:100000000C9424020C9455020C9455020C94550245
:100010000C9455020C9455020C9455020C94550204
:100020000C9455020C9455020C9455020C945502F4
:100030000C9455020C9455020C9455020C945502E4
:100040000C9455020C9455020C9455020C945502D4
:100050000C9455020C9455020C9455020C94C82231
:100060000C9455020C94741D0C94CA1D0C945502EA
:100070000C9455020C9455020C9455020C945502A4
:100080000C9455020C9455020C9455020C94550294
:100090000C94411E0C94971E0C9455020C9455021E
:1000A0000C9455020C9455020C9455020C94550274
:1000B0000C9455020C9455020C9455020C94550264
:1000C0000C9455020C9455020C9455020C94550254
:1000D0000C9455020C9455020C9455020C94550244
:1000E0000C94550276057D057F05810585058905FA
:1000F00099059D05A105B105B505E423E723D623A0
:10010000DA23E0231E24EB23EF23F523F923FD2339
:10011000032407240B241E241124152419240C94D1
:10012000A1050C947F050C94891B0C9469020C9416
:100130006B1B0C94F5230C94FE0E0C94581C0C9421
:1001400011240C94C0050C94A1190C9438140C942F
:10015000F9230C941E240C94B1050C949D050C9469
:1001600015240C94C11E0C94E7230C94FC050C94EC
:1001700060100C947D050C94D51B0C94FD230C94FD
:1001800022140C94731B0C94F5190C94EF230C940B
:1001900007240C94A91B0C94421B0C94EB230C9485
:1001A00019240C947A1C0C9476050C940E1F0C9454
:1001B000B5050C9485050C94E4230C94F41D0C9463
:1001C000FE1D0C9403240C94D6230C9499050C94D6
:1001D0000B240C94DA230C9489050C94E0230C94E2
:1001E00081050C94B6190C94CB1E0123456789AB8D
:1001F000CDEFFEDCBA9876543210F0E1D2C3982FDE
:100200008A4291443771CFFBC0B5A5DBB5E95BC22B
:100210005639F111F159A4823F92D55E1CAB98AAD0
:1002200007D8015B8312BE853124C37D0C55745DF4
:10023000BE72FEB1DE80A706DC9B74F19BC1C16972
:100240009BE48647BEEFC69DC10FCCA10C246F2C4A
:10025000E92DAA84744ADCA9B05CDA88F976525197
:100260003E986DC631A8C82703B0C77F59BFF30BAE
:10027000E0C64791A7D55163CA0667292914850AA4
:10028000B72738211B2EFC6D2C4D130D385354739A
:100290000A65BB0A6A762EC9C281852C7292A1E8D2
:1002A000BFA24B661AA8708B4BC2A3516CC719E84A
:1002B00092D1240699D685350EF470A06A1016C125
:1002C000A419086C371E4C774827B5BCB034B30C62
:1002D0001C394AAAD84E4FCA9C5BF36F2E68EE8237
:1002E0008F746F63A5781478C8840802C78CFAFFEE
:1002F000BE90EB6C50A4F7A3F9BEF27871C65741DB
:10030000524E494E473A20546F6F206D616E7920EE
:100310007265636F7264732E20496E6372656173D8
:1003200065204D41585F4E4445465F5245434F520C
:1003300044532E0000000A0B02090C0D0E0807039F
:1003400004010000000000000000000000000000A8
:10035000000000000000000000000000000000009D
:10036000121110000000000000000000000000005A
:100370000000000000000000000001021020200822
:1003800008102040102040800201020108040201F0
:10039000010204081020408080402010080402015F
:1003A00080040201804020100804020108040201B8
:1003B000010204081020408001020408102040803F
:1003C00005050505070508080808020202020A0AD1
:1003D00008080404040401010101010101010303EF
:1003E000030303030303040707070C0C0C0C0C0C9A
:1003F0000C0C0202020206060606060606060B0B97
:100400000B0B0B0B0B0B00002200250028002B0010
:100410002E003100340002010000050108010B012B
:1004200000002100240027002A002D0030003300A6
:1004300001010000040107010A016902C005601002
:100440003814FE1DCB1EFC0511241FBECFEFD1E2D8
:10045000DEBFCDBF00E00CBF15E0A0E0B2E0E8E4F5
:10046000F5E500E00BBF02C007900D92AC38B10774
:10047000D9F72AE0ACE8B5E001C01D92A33AB20773
:10048000E1F714E0C6E4D4E000E006C022970109D9
:10049000FE010BBF0E94DD24CA33D10780E00807AC
:1004A000A9F70E94B9220C94922A0C9400006AE3E6
:1004B00072E08CE599E00E94AE1F68E873E18CE879
:1004C00095E00E94170969E472E08CE599E00C94CC
:1004D000AE1F4AE061EE77E083E696E00E94D31912
:1004E00063E676E08CE895E00E94131810925E06B1
:1004F00010925D0610925F0681E080936006109274
:100500006206109261060895CF93DF93CDB7DEB7F0
:10051000C555D1090FB6F894DEBF0FBECDBF26E09A
:1005200030E040E855E260E070E08CE599E00E9440
:10053000091D26E030E040E855E260E070E089EF18
:1005400099E00E94091D6EE572E08CE599E00E9439
:10055000AE1F89EF99E00E94731B892BD1F320E431
:1005600030E0AE014F5F5F4F6AE089EF99E00E9493
:10057000A52045E050E060E872E0CE0101960E94BF
:100580002127892B09F07EC066E872E089EF99E0A7
:100590000E94AE1F89EF99E00E94731B892BD1F353
:1005A00020E430E0AE014F5F5F4F6AE089EF99E0F1
:1005B0000E94A520BE016F5F7F4FCE01805B9F4FE1
:1005C0000E94482128E030E040E050E0BE01605B3E
:1005D0007F4FCE018F5B9F4F0E947322BE016F5BE6
:1005E0007F4F8CE895E00E94BF04CE018F5B9F4F48
:1005F0000E94DA202DE130E049E050E0BE01605B6E
:100600007F4FCE018F5B9F4F0E947322BE016F5BB5
:100610007F4F8CE895E00E948704CE018F5B9F4F4F
:100620000E94DA2027E230E04EE150E0BE01605B3C
:100630007F4FCE01865B9F4F0E94732220E030E007
:1006400049E050E0BE016F5B7F4FCE01865B9F4F5C
:100650000E9429222A961FAE2A97CE018F5B9F4FB8
:100660000E94F126AB01BC018CE895E00E94D30406
:10067000CE01865B9F4F0E94DA20CE01805B9F4FA8
:100680000E94DA208CE895E00E94FC046EE872E09B
:100690008CE599E00E947F1F6CE875E0CE018F5BCE
:1006A0009F4F0E94C804BE016F5B7F4F8CE599E0AD
:1006B0000E94711FCE018F5B9F4F0E94DA2068E974
:1006C00072E08CE599E00E947F1F6CE875E0CE0136
:1006D0008F5B9F4F0E94B404BE016F5B7F4F8CE520
:1006E00099E00E94711FCE018F5B9F4F0E94DA201C
:1006F00063EA72E08CE599E00E947F1F6CE875E088
:10070000CE018F5B9F4F0E94DC04BE016F5B7F4F69
:100710008CE599E00E94711FCE018F5B9F4F0E9474
:10072000DA206FE974E08CE599E00E94AE1FCB5AA5
:10073000DF4F0FB6F894DEBF0FBECDBFDF91CF9174
:1007400008950F931F93CF93DF93CDB7DEB7AF9785
:100750000FB6F894DEBF0FBECDBF8C01FC01248123
:1007600035812550310940E050E0BC01CE018A9628
:100770000E94732260E3CE018A960E94F62120E057
:1007800030E04BE050E0BE016F5F7F4FCE018A96B4
:100790000E9429221B86CE0101960E94F126AB0100
:1007A000BC014093E9065093EA066093EB06709310
:1007B000EC0689E696E00E944914BC01CE018096C1
:1007C0000E944B274091E9065091EA066091EB06A2
:1007D0007091EC064A5051096109710989E696E069
:1007E0000E944914BC01CE0146960E944B274091BD
:1007F000E9065091EA066091EB067091EC06465FBF
:100800005F4F6F4F7F4F89E696E00E944914BC010D
:10081000CE010C960E944B2762E370E080E090E0EE
:100820000E94412366EB76E0CE0146960E94422765
:10083000892B19F482E090E012C066EB76E0CE01DD
:1008400080960E944227892BA9F366EB76E0CE01C1
:100850000C960E944227892B69F388E090E09093E0
:10086000DE078093DD07B80185EC96E00E945E21EB
:10087000CE018A960E94DA20AF960FB6F894DEBFBA
:100880000FBECDBFDF91CF911F910F9108950F93B0
:100890001F93CF93DF9300D000D0CDB7DEB78B018D
:1008A00020E030E046E050E065EC77E00E9429224D
:1008B0001092CA074091E5065091E6066091E7065E
:1008C0007091E8062AE0CE0101960E949621BE01B1
:1008D0006F5F7F4FC8010E94EF21CE0101960E94F9
:1008E000DA2020E030E043E150E062EB77E0C8013D
:1008F0000E9429221092C40726960FB6F894DEBFF4
:100900000FBECDBFDF91CF911F910F910895CF936F
:10091000DF93CDB7DEB76F970FB6F894DEBF0FBE8B
:10092000CDBFCB0120E030E045E150E06DE977E05C
:100930000E94292244E150E06DE977E0CE01019662
:100940000E9443148FE1FE013196A9E6B6E00190C2
:100950000D928A95E1F76F960FB6F894DEBF0FBE41
:10096000CDBFDF91CF910895CF93DF93EC016DE977
:1009700077E00E944821CE01DF91CF910895CB010D
:1009800020E030E049E050E06DEA76E00C94292266
:10099000CF93DF93EC016DEA76E00E944821CE010F
:1009A000DF91CF9108954093E5065093E60660935A
:1009B000E7067093E8060895CF93DF93EC0140912A
:1009C000E5065091E6066091E7067091E8062AE098
:1009D0000E949621CE01DF91CF9108954F375105A6
:1009E00054F4FC01EF5AFF4F5083319640838D5AE7
:1009F0009F4F0C942E2708950F931F93CF93DF934F
:100A0000CDB7DEB7EC970FB6F894DEBF0FBECDBF03
:100A10008C01CE0101960E94CB14BE016F5F7F4F07
:100A20008DEE96E00E94FE14CE0101960E94E8141D
:100A300068EB72E0CE0101960E94482166ED72E0FB
:100A4000CE01C7960E944821AE014F5F5F4FBE01A5
:100A5000695C7F4F8DEE96E00E945216CE01C796DC
:100A60000E94DA20CE0101960E94DA208DEE96E0F7
:100A70000E9464159093240780932307893791057A
:100A800038F066EE72E08CE599E00E94AE1FFFCF71
:100A900065E277E08DEE96E00E948D154091230788
:100AA0005091240765E277E0C8010E94EE04C80176
:100AB0000E941918C8010E943218EC960FB6F894DB
:100AC000DEBF0FBECDBFDF91CF911F910F91089573
:100AD0000F93CF93DF93DA01E9016B30710508F0D2
:100AE0004BC0FB01EE58FF4F0C94D02480E98C934F
:100AF00011961C920E5F08833FC08AE607C08AE603
:100B000001C085E68C9381E833C082E68C9382E84D
:100B10002FC086E68C9387E711968C93119789E016
:100B2000EDEAF6E0129601900D928A95E1F78BE0DE
:100B300022C082E28C9383E31BC083E38C9384E422
:100B400003C084E48C9385E511968C9311971296DB
:100B50008BE1E1E9F6E001900D928A95E1F78EE1F3
:100B60000AC085E58C9386E603C081EB8C9382EB0B
:100B700011968C9382E08883DF91CF910F91089535
:100B800067E972E087ED97E00E94482167E972E02B
:100B900081ED97E00E94482167E972E08BEC97E0D5
:100BA0000E9448218DEE96E00E94CB1467E972E026
:100BB0008DED96E00E94482167E972E087ED96E0AE
:100BC0000E94482167E972E081ED96E00E94482189
:100BD00067E972E08BEC96E00E94482167E972E0D9
:100BE00085EC96E00E9448214AE050E066E072E021
:100BF00089E696E00C94431485EC96E00E94DA2096
:100C00008BEC96E00E94DA2081ED96E00E94DA20DB
:100C100087ED96E00E94DA208DED96E00E94DA20C2
:100C20008DEE96E00E94E8148BEC97E00E94DA20AB
:100C300081ED97E00E94DA2087ED97E00C94DA20AE
:100C4000CF93DF93CDB7DEB7C755D1090FB6F89470
:100C5000DEBF0FBECDBF8CE599E00E94731B181656
:100C600019060CF0B0C120E430E0AE014F5F5F4FD9
:100C70006AE08CE599E00E94A52043E050E06FEF28
:100C800072E0CE0101960E942127892B09F0BDC098
:100C90004091E5065091E6066091E7067091E806FE
:100CA0004F5F5F4F6F4F7F4F4093E5065093E606CF
:100CB0006093E7067093E8062AE0CE018F5B9F4FB2
:100CC0000E94962120E030E049E050E068E876E0BC
:100CD000CE018F5B9F4F0E942922CE018F5B9F4FD9
:100CE0000E94DA2084E1FE013596A1E9B6E0019088
:100CF0000D928A95E1F789E0E8E8F6E0A4EAB6E02B
:100D000001900D928A95E1F785E0E1E9F6E0DE01D8
:100D1000AE5ABF4F01900D928A95E1F78AE0E7E95C
:100D2000F6E0DE01AF5BBF4F01900D928A95E1F7CF
:100D300063E073E089EF99E00E947F1FBE016F5B63
:100D40007F4F89EF99E00E947F1F68E173E089EF90
:100D500099E00E947F1F4091E5065091E606609160
:100D6000E7067091E8062AE0CE01845B9F4F0E945F
:100D70009621BE01645B7F4F89EF99E00E94711F4D
:100D8000CE01845B9F4F0E94DA206FE674E089EF0A
:100D900099E00E947F1F6DEA76E089EF99E00E945A
:100DA0007F1F65E473E089EF99E00E947F1F67ED84
:100DB00077E089EF99E00E94711F63E573E089EFA6
:100DC00099E00E947F1FBE016E5A7F4F89EF99E024
:100DD0000E947F1F61E673E089EF99E00E947F1F08
:100DE00064E673E08CE599E00E947F1F61E976E09C
:100DF0008CE599E00E947F1F6FE974E08CE599E033
:100E00000E94AE1F85E090E0C7C043E050E063E77A
:100E100073E0CE0101960E942127892B09F0C1C001
:100E20004091E5065091E6066091E7067091E8066C
:100E30004F5F5F4F6F4F7F4F4093E5065093E6063D
:100E40006093E7067093E8062AE0CE018F5B9F4F20
:100E50000E94962120E030E049E050E068E876E02A
:100E6000CE018F5B9F4F0E942922CE018F5B9F4F47
:100E70000E94DA2084E1FE013596A1E9B6E00190F6
:100E80000D928A95E1F789E0E8E8F6E0A4EAB6E099
:100E900001900D928A95E1F785E0E1E9F6E0DE0147
:100EA000AE5ABF4F01900D928A95E1F78AE0E7E9CB
:100EB000F6E0DE01AF5BBF4F01900D928A95E1F73E
:100EC00063E073E089EF99E00E947F1FBE016F5BD2
:100ED0007F4F89EF99E00E947F1F67E773E089EFFA
:100EE00099E00E947F1F4091E5065091E6066091CF
:100EF000E7067091E8062AE0CE01845B9F4F0E94CE
:100F00009621BE01645B7F4F89EF99E00E94711FBB
:100F1000CE01845B9F4F0E94DA206FE674E089EF78
:100F200099E00E947F1F6DEA76E089EF99E00E94C8
:100F30007F1F65E473E089EF99E00E947F1F67EDF2
:100F400077E089EF99E00E94711F64EA73E089EF0E
:100F500099E00E947F1FBE016E5A7F4F89EF99E092
:100F60000E947F1F61E673E089EF99E00E947F1F76
:100F700062EB73E08CE599E00E947F1F61E976E007
:100F80008CE599E00E947F1F6FE974E08CE599E0A1
:100F90000E94AE1F86E090E09093DE078093DD070D
:100FA00010C043E050E061EC73E0CE0101960E9476
:100FB0002127892B41F06BEC73E08CE599E00E94CE
:100FC000AE1F81E001C080E0C95ADF4F0FB6F89430
:100FD000DEBF0FBECDBFDF91CF9108950F931F935A
:100FE000CF93DF93CDB7DEB72C970FB6F894DEBF63
:100FF0000FBECDBF8CE599E00E94731B1816190631
:101000001CF501E08CE599E00E94731B1816190687
:10101000DCF48CE599E00E94A91B182F8091C3068F
:10102000612F811103C08DED96E002C087ED96E03F
:101030000E94F6211A3319F40093C306E3CF1B3341
:1010400009F781E08093C4068091C406882309F4DF
:10105000E2C067ED73E08DED96E00E940A228823DE
:1010600081F063EE73E087ED96E00E940A22882308
:1010700009F4B7C081E090E09093E0078093DF0728
:10108000B0C067EE73E08DED96E00E940A228823DF
:1010900029F063EE73E087ED96E0A1C063E773E0AB
:1010A0008DED96E00E940A228823C9F18091E50621
:1010B0009091E606A091E706B091E8060196A11D81
:1010C000B11D8093E5069093E606A093E706B093E2
:1010D000E80620E130E046E050E067ED76E0CE0142
:1010E00007960E94732225E030E040E050E067ED73
:1010F00076E0CE0101960E947322BE01695F7F4FA8
:10110000CE0101960E944704CE0101960E94DA208A
:10111000CE0107960E94DA2086E090E040C06FEF93
:1011200072E08DED96E00E940A228823E9F1809119
:10113000E5069091E606A091E706B091E8060196D3
:10114000A11DB11D8093E5069093E606A093E706E6
:10115000B093E80620E130E046E050E067ED76E04D
:10116000CE0107960E94732225E030E040E050E077
:1011700067ED76E0CE0101960E947322BE01695FA1
:101180007F4FCE0101960E944704CE0101960E9436
:10119000DA20CE0107960E94DA2085E090E0909355
:1011A000DE078093DD071DC061EC73E08DED96E0F6
:1011B0000E940A22882379F067ED76E0CE0101963D
:1011C0000E947521CE0101960E94A103CE010196D5
:1011D0000E94DA2006C061EF73E08DED96E00E9478
:1011E0000A2267E972E08DED96E00E947E2167E9B0
:1011F00072E087ED96E00E947E2167E972E081ED62
:1012000096E00E947E211092C3061092C2061092B0
:10121000C40681E001C080E02C960FB6F894DEBFD2
:101220000FBECDBFDF91CF911F910F9108955F92B7
:101230006F927F928F929F92AF92BF92CF92DF92E6
:10124000EF92FF920F931F93CF93DF93CDB7DEB74B
:10125000C85ED1090FB6F894DEBF0FBECDBF7C01CA
:101260008B011092E4061092E30684E090E09093E4
:101270001202809311021092C0066BEF73E081EDB1
:1012800097E00E947E2167E972E087ED97E00E9477
:101290007E211092C10689E0E3E1F2E0DE01AD5269
:1012A000BF4F01900D928A95E1F789E0ECE1F2E001
:1012B000DE01A653BF4F01900D928A95E1F7FE0122
:1012C000EF57FF4F86E2DF011D928A95E9F78CE820
:1012D000808385E0818384E0828380E28783D701F5
:1012E000AF52BF4F0D90BC91A02D109731F08D9152
:1012F0009D91AC9184839583A683980146E2BF01BA
:10130000C7010E946F18813041F06FEF73E08CE5E8
:1013100099E00E94AE1F80E02BC36CE174E08CE585
:1013200099E00E94AE1F8FE0E5E2F2E0DE01A554F5
:10133000BF4F01900D928A95E1F7F701EC52FF4FF4
:101340008081811106C08FEFC753DF4F8883C95C4E
:10135000D040F701ED52FF4F1082C12CD12C552403
:10136000539434E0632E712C5E01B7EAAB0EB11CCE
:1013700040E8BE016F5F7F4FC7010E94AD186B81CF
:101380009C810D818A81803409F4F8C138F480325F
:1013900009F4CBC0803309F403C184C2843A21F03C
:1013A000803B09F477C07EC2662319F0643039F1BE
:1013B000AAC29C30B1F5023009F07DC08E81813E19
:1013C00009F079C08F818350823008F074C000E04A
:1013D0009E0128513F4FAE014F5F5F4F60E070E0CC
:1013E000C7010E9468058F8111E0833009F487C22C
:1013F000843009F089C282E0C82ED12C85C249E030
:1014000050E0BE016C5F7F4FCE018D529F4F0E9416
:101410002127892B71F481E090E09093DE0780937F
:10142000DD0700E09E0128513F4FAE014F5F5F4F47
:1014300079C049E050E0BE016C5F7F4FCE0186531A
:101440009F4F0E942127892BD9F466E374E08CE535
:1014500099E00E94AE1F0E94EE07811107C06AE06A
:1014600070E080E090E00E944123F5CF00E09E0113
:1014700028513F4FAE014F5F5F4F65E070E08CC079
:1014800000E09E0128513F4FAE014F5F5F4F62E089
:1014900070E082C070E0762F6627690F711D81E0D1
:1014A000C816D10491F092E0C916D104D1F0C1144C
:1014B000D10409F028C200E09E0128513F4FAE013F
:1014C0004F5F5F4F61E070E067C06138710560F4A5
:1014D000802E912CABEBB0E0AC0FBD1F6A0F7B1FD1
:1014E00013C06138710550F000E09E0128513F4F54
:1014F000AE014F5F5F4F64E070E04EC0802E912CD4
:101500006F5A7F4F6E0D7F1DA401CE0101960E9480
:101510002E2741E050E04C0F5D1F480D591D9E01E4
:1015200028513F4F60E070E037C06111ECC191116C
:10153000EAC1DE011696E6EBF6E010E0CF01865B2D
:101540009640081719071CF08D918193F7CF66E438
:1015500074E08CE599E00E94AE1F0E94EE078111B5
:1015600007C06AE070E080E090E00E944123F5CF80
:101570008091DD079091DE078230910509F451CF0B
:10158000089709F0C0C100E09E0128513F4FAE010D
:101590004F5F5F4F6AE070E0C7010E946805B3C10A
:1015A0006111B1C19111AFC1DE011696F50110E0D4
:1015B000CF018A199B09081719071CF08D91819397
:1015C000F7CFF501E00FF11F1082B501CE018E516A
:1015D0009F4F0E9448216CE2CE018E519F4F0E9486
:1015E0006F228C016BE3CE018E519F4F0E946F22C0
:1015F0004C0198012150310940E050E0BE016E518C
:101600007F4FCE0184529F4F0E947322BE016452CD
:101610007F4F87ED97E00E945E21CE0184529F4F5D
:101620000E94DA20A8014F5F5F4F9401BE016E5106
:101630007F4FCE0184529F4F0E947322BE0164529D
:101640007F4F81ED97E00E945E21CE0184529F4F33
:101650000E94DA2064E574E08CE599E00E947F1F27
:10166000BE016E517F4F8CE599E00E94711F6FE9BA
:1016700074E08CE599E00E94AE1F67EE73E08CE5A4
:1016800099E00E947F1F61ED77E08CE599E00E9470
:10169000711F6FE974E08CE599E00E94AE1F64E66B
:1016A00070E080E090E00E9441230E94EE078111EB
:1016B00005C06AE070E080E090E0F5CF1092DE07B0
:1016C0001092DD0700E09E0128513F4FAE014F5FB1
:1016D0005F4F60E070E0C7010E9468058091C1061D
:1016E000811146C063E073E089EF99E00E947F1F9B
:1016F0004091E9065091EA066091EB067091EC0684
:101700002AE0CE0184529F4F0E949621BE0164526E
:101710007F4F89EF99E00E94711FCE0184529F4F45
:101720000E94DA2069E574E089EF99E00E947F1F4A
:101730006DEA76E089EF99E00E947F1F65E473E02F
:1017400089EF99E00E947F1F67ED77E089EF99E0CC
:101750000E94711F61E673E089EF99E00E947F1F8C
:1017600060E874E08CE599E00E94AE1F5092C106DB
:10177000CE018E519F4F0E94DA20C5C06111C3C0B7
:101780009111C1C00E9420068091DD079091DE0773
:101790008530910511F18630910509F44CC0892BF3
:1017A00009F079C01092DE071092DD076CE874E052
:1017B0008CE599E00E94AE1F00E09E0128513F4F4A
:1017C000AE014F5F5F4F66E070E0C7010E946805A1
:1017D00070921202609211025EC01092DE071092A7
:1017E000DD0761EA74E08CE599E00E947F1F68EBF9
:1017F00074E08CE599E00E947F1F4091E5065091CE
:10180000E6066091E7067091E8062AE030E08CE594
:1018100099E00E9419206FE974E08CE599E00E943C
:10182000AE1F00E09E0128513F4FAE014F5F5F4F5A
:1018300067E070E02DC01092DE071092DD076AECC1
:1018400074E08CE599E00E947F1F68EB74E08CE502
:1018500099E00E947F1F4091E5065091E606609155
:10186000E7067091E8062AE030E08CE599E00E94F6
:1018700019206FE974E08CE599E00E94AE1F00E04A
:101880009E0128513F4FAE014F5F5F4F68E070E00F
:10189000C7010E94680562E370E080E090E00E946A
:1018A000412331C08091E3069091E4060196909324
:1018B000E4068093E30611E004970CF010E060EE7C
:1018C00074E08CE599E00E947F1F4AE050E06A8155
:1018D0008CE599E00E9470206FE974E08CE599E056
:1018E0000E94AE1F00E09E0128513F4FAE014F5FA6
:1018F0005F4F62E070E0C7010E94680505C0CC241C
:10190000C394D12C01C011E06DEF74E08CE599E037
:101910000E94AE1F00E020E030E0C851DF4F488158
:10192000C85ED040BE016F5F7F4FC7010E94FB18A9
:10193000892B59F463E175E08CE599E00E94AE1FB4
:1019400060E0C7010E94661902C0111111CD63E366
:1019500075E08CE599E00E94AE1F68E475E08CE5C7
:1019600099E00E94AE1F60E0C7010E94661981E005
:10197000C851DF4F0FB6F894DEBF0FBECDBFDF9169
:10198000CF911F910F91FF90EF90DF90CF90BF907C
:10199000AF909F908F907F906F905F90089561E0DF
:1019A00085E30E94582461E085E30E941F248CB5E2
:1019B00080618CBD8CB580648CBD61E084E30E9445
:1019C0001F2461E083E30C941F24CF93DF93EC0189
:1019D00044E150E06AEE71E08B5B9F4F0E94182754
:1019E000FE01E75AFF4F1082118212821382CC5BF4
:1019F000DF4F1882DF91CF9108952F923F924F923F
:101A00005F926F927F928F929F92AF92BF92CF928E
:101A1000DF92EF92FF920F931F93CF93DF93CDB797
:101A2000DEB7A0970FB6F894DEBF0FBECDBF9E8F76
:101A30008D8F9C012B5B3F4FD9014D915D916D9135
:101A40007C914D835E836F8378872C5F3F4FD901F4
:101A50004D915D916D917C9149875A876B877C8709
:101A60002C5F3F4FD9014D915D916D917C914D87D8
:101A70005E876F87788B2C5F3F4FD9014D915D91C9
:101A80006D917C91498B5A8B6B8B7C8B2C5F3F4F7C
:101A9000D9014D915D916D917C914D8B5E8B6F8BDA
:101AA000788F498F5A8F6B8F7C8F09891A892B8980
:101AB0003C89CD84DE84EF84F88889849A84AB8461
:101AC000BC844D815E816F81788549835A836B83A5
:101AD0007C83212C312C422D403198F4D901C8014E
:101AE0008C259D25AE25BF2588219921AA21BB21C2
:101AF00080279127A227B32787569648AD47B54A36
:101B00008FC0822D8F706D8D7E8D54E0859F600D0E
:101B1000711D1124D1011D96AF70BB271196AA0F1C
:101B2000BB1FAA0FBB1F8D8D9E8DA80FB91FF10182
:101B30003896EF70FF273196EE0FFF1FEE0FFF1F55
:101B4000E80FF91F8D919D910D90BC91A02D4080C3
:101B500051806280738084259525A625B725FB01D9
:101B6000448055806680778084259525A625B725F5
:101B7000F1013296EF70FF273196EE0FFF1FEE0F47
:101B8000FF1F6D8C7E8CE60DF71D408051806280BA
:101B9000738084259525A625B725880F991FAA1F30
:101BA000BB1F811DFB0184839583A683B7834431CA
:101BB00008F494CFD701C601483268F488259925E6
:101BC000AA25BB2580279127A227B3278F559441AB
:101BD000A642B14925C04C33B8F488299929AA29CD
:101BE000BB2980239123A223B32326013701482058
:101BF00059206A207B2084299529A629B729845257
:101C00009344A44EB0470CC088259925AA25BB252E
:101C100080279127A227B3278A529E43AD49B54317
:101C20004F706D8C7E8C54E0459F600C711C1124AC
:101C300078A26F8E49815A816B817C81EBE1769528
:101C4000679557954795EA95D1F749805A806B80FB
:101C50007C80F5E0440C551C661C771CFA95D1F786
:101C60004429552966297729EF8DF8A144805580AC
:101C700066807780440D551D661D771D480F591FDE
:101C80006A1F7B1F898D9A8DAB8DBC8D480F591FA4
:101C90006A1F7B1FD501C401E2E0B695A795979511
:101CA0008795EA95D1F7FEE1880C991CAA1CBB1C0C
:101CB000FA95D1F7882A992AAA2ABB2A9FEF291ACE
:101CC000390AA0E52A16310489F0098F1A8F2B8F63
:101CD0003C8F970186017501640189809A80AB80F1
:101CE000BC8049835A836B837C83F5CEED8DFE8D5A
:101CF000EB5BFF4F8D819E81AF81B885480F591FE7
:101D00006A1F7B1F40835183628373836D8C7E8C3B
:101D100099E4690E711C89819A81AB81BC814985E6
:101D20005A856B857C85840F951FA61FB71FF3010D
:101D300080839183A283B383ED8DFE8DE35BFF4FA0
:101D40004D855E856F857889840E951EA61EB71E0B
:101D500080829182A282B382ED8DFE8DEF5AFF4F79
:101D600069897A898B899C89C60ED71EE81EF91E5F
:101D7000C082D182E282F3824D8D5E8D4B5A5F4FDD
:101D80008D899E89AF89B88D080F191F2A1F3B1FA7
:101D9000DA010D931D932D933C931397A0960FB6E4
:101DA000F894DEBF0FBECDBFDF91CF911F910F9191
:101DB000FF90EF90DF90CF90BF90AF909F908F906B
:101DC0007F906F905F904F903F902F900895CF93AA
:101DD000DF93EC01CC5BDF4F388123E02327FC014C
:101DE000E20FF11D648321E0230F2883203419F4CE
:101DF0000E94FD0C1882DF91CF910895262FFC01DF
:101E0000E75AFF4F40815181628173814F5F5F4F7D
:101E10006F4F7F4F4083518362837383622F0E9491
:101E2000E70E81E090E008950F931F93CF93DF9327
:101E3000EC0160E80E94E70E8E010C5B1F4FF80179
:101E4000808160E0883321F0CE010E94E70EF7CF59
:101E5000CE010E94E70E60E0CE010E94E70E60E036
:101E6000CE010E94E70E8E01075A1F4FF8016081D4
:101E7000718182819381EDE196958795779567953C
:101E8000EA95D1F7CE010E94E70EF80160817181D9
:101E900082819381F5E19695879577956795FA9577
:101EA000D1F7CE010E94E70EF80160817181828135
:101EB0009381ADE09695879577956795AA95D1F72B
:101EC000CE010E94E70EF8016081718182819381C9
:101ED000B5E09695879577956795BA95D1F7CE0138
:101EE0000E94E70EF8016081660F660F660FCE0153
:101EF000DF91CF911F910F910C94E70ECF93DF9359
:101F0000EC010E94140FAE0125E030E0FA01EB5B1A
:101F1000FF4F60817181828193810E94D62460830A
:101F2000718382839383215031094C5F5F4F211568
:101F3000310561F7CE018B5B9F4FDF91CF91089503
:101F4000AF92BF92CF92DF92EF92FF920F931F93C7
:101F5000CF93DF9300D01F92CDB7DEB75C017C0139
:101F60008DE5E80EF11C80E4D7011D928A95E9F712
:101F70004134510554F1C50149835A836B837C83F5
:101F80000E94E50C6B81062F7C81172F49815A81B5
:101F90006801C40ED51E0C151D0561F0F801619194
:101FA0008F01D501ED91FC910190F081E02DC501EB
:101FB0001995F1CFC5010E947E0F24E1FC01D701E4
:101FC00001900D922A95E1F703C0C7010E942E27C8
:101FD000C5010E94E50C85017501B0E4EB0EF11C12
:101FE00086E3D82ED501ED91FC91D801A35ABF4FBD
:101FF0006C916D250190F081E02DC50119950F5F61
:102000001F4F0E151F0571F70F900F900F900F9037
:10201000DF91CF911F910F91FF90EF90DF90CF90C4
:10202000BF90AF900895DF92EF92FF920F931F93AE
:10203000CF93DF93EC010E947E0FDE01A356BF4FCA
:1020400024E1FC0101900D922A95E1F7CE010E9456
:10205000E50C7E0180E4E80EF11C8E019CE5D92E92
:10206000E881F981D801A35ABF4F6C916D25019089
:10207000F081E02DCE0119950F5F1F4F0E151F0542
:1020800079F77E0184E1E80EF11C8E01E881F98187
:10209000D801A356BF4F0190F081E02D6C91CE0185
:1020A00019950F5F1F4F0E151F0581F7CE01DF91A8
:1020B000CF911F910F91FF90EF90DF900C947E0FC6
:1020C0001092E5071092E4078CE595E09093E30702
:1020D0008093E20708952F923F924F925F926F9202
:1020E0007F928F929F92AF92BF92CF92DF92EF92A8
:1020F000FF920F931F93CF93DF93CDB7DEB7EF9788
:102100000FB6F894DEBF0FBECDBF9FAF8EAF9C0160
:102110002B5B3F4FD9018D919D910D90BC91A02DCE
:102120008C8F9D8FAE8FBF8F2EAD3FAD275B3F4F06
:10213000D9018D919D910D90BC91A02D88A399A35B
:10214000AAA3BBA32EAD3FAD235B3F4FD9018D9119
:102150009D910D90BC91A02D8CA39DA3AEA3BFA378
:102160002EAD3FAD2F5A3F4FD9018D919D910D90CE
:10217000BC91A02D88A799A7AAA7BBA72EAD3FAD5C
:102180002B5A3F4FD9018D919D910D90BC91A02D5F
:102190008CA79DA7AEA7BFA72EAD3FAD275A3F4F37
:1021A000D9018D919D910D90BC91A02D88AB99ABDB
:1021B000AAABBBAB2EAD3FAD235A3F4FD9018D919A
:1021C0009D910D90BC91A02D8CAB9DABAEABBFABE8
:1021D0002EAD3FAD2F593F4FD9018D919D910D905F
:1021E000BC91A02D88AF99AFAAAFBBAF2EEF31E065
:1021F0003B8F2A8F4C015D018CA99DA9AEA9BFA977
:102200008A8B9B8BAC8BBD8B28A939A94AA95BA96A
:102210002E8B3F8B488F598F8CA59DA5AEA5BFA552
:1022200089839A83AB83BC8328A539A54AA55BA57E
:102230002E873F87488B598B8CA19DA1AEA1BFA152
:102240008A879B87AC87BD8728A139A14AA15BA15A
:102250002E833F83488759874C8D5D8D6E8D7F8D92
:10226000AAEF2A2E33243A941D82C980DA80EB80AB
:10227000FC808BE0F694E794D794C7948A95D1F7C5
:1022800089819A81AB81BC8125E1880F991FAA1FA2
:10229000BB1F2A95D1F7C82AD92AEA2AFB2A098125
:1022A0001A812B813C81E6E0369527951795079595
:1022B000EA95D1F749805A806B807C80FAE1440C22
:1022C000551C661C771CFA95D1F704291529262977
:1022D0003729C026D126E226F32609811A812B81CF
:1022E0003C81A9E13695279517950795AA95D1F7D1
:1022F00049805A806B807C80B7E0440C551C661C7A
:10230000771CBA95D1F70429152926293729C02623
:10231000D126E226F3260A891B892C893D898E89DC
:102320009F89A88DB98D082719272A273B278981DE
:102330009A81AB81BC81082319232A233B238A89F4
:102340009B89AC89BD89082719272A273B27EA8D55
:10235000FB8D4590559065907490C00ED11EE21E85
:10236000F31EC40CD51CE61CF71C8D818F70EEADDE
:10237000FFAD94E0899FE00DF11D112484819581CA
:10238000A681B781C80ED91EEA1EFB1EC80CD91C37
:10239000EA1CFB1C4A015B011DE0B694A7949794CC
:1023A00087941A95D1F7DB01CA0103E1880F991FC1
:1023B000AA1FBB1F0A95D1F7882A992AAA2ABB2AE5
:1023C0008A019B0182E036952795179507958A9596
:1023D000D1F72A013B019EE1440C551C661C771C79
:1023E0009A95D1F70429152926293729802691267F
:1023F000A226B3268A019B01E6E13695279517951B
:102400000795EA95D1F72A013B01FAE0440C551CE7
:10241000661C771CFA95D1F7042915292629372936
:1024200080269126A226B3260E811F812885398514
:102430008A859B85AC85BD85082B192B2A2B3B2BC8
:1024400004231523262337234E805F8068847984F4
:10245000482259226A227B22042915292629372954
:10246000080D191D2A1D3B1D8E859F85A889B989D8
:102470008C0D9D1DAE1DBF1D8E879F87A88BB98BB0
:102480000C0D1D1D2E1D3F1D9D819F5F9D83903452
:1024900009F40AC18D81803108F4CBC08F70AEADD4
:1024A000BFADE4E08E9FA00DB11D1124BDAFACAF58
:1024B000D101AF70BB271196AA0FBB1FAA0FBB1F7C
:1024C0008EAD9FADA80FB91FECADFDADC480D5801A
:1024D000E680F7808D919D910D90BC91A02DC80E46
:1024E000D91EEA1EFB1EF1013596EF70FF273196CB
:1024F000EE0FFF1FEE0FFF1F8EAD9FADE80FF91F10
:10250000408051806280738053014201E1E1B694C2
:10251000A79497948794EA95D1F7D301C201FFE07D
:10252000880F991FAA1FBB1FFA95D1F7882A992AED
:10253000AA2ABB2AD301C201EAE0B695A7959795CE
:102540008795EA95D1F788269926AA26BB26D30136
:10255000C201F3E1B695A79597958795FA95D1F7BE
:10256000EDE0440C551C661C771CEA95D1F78429D4
:102570009529A629B72988269926AA26BB26C80CFC
:10258000D91CEA1CFB1CF1013897EF70FF2731962C
:10259000EE0FFF1FEE0FFF1FAEADBFADEA0FFB1F2B
:1025A000408051806280738053014201B7E0B6944D
:1025B000A79497948794BA95D1F7D301C201E9E122
:1025C000880F991FAA1FBB1FEA95D1F7882A992A5D
:1025D000AA2ABB2AD301C201F3E0B695A795979525
:1025E0008795FA95D1F788269926AA26BB26D30186
:1025F000C201E2E1B695A79597958795EA95D1F73F
:10260000FEE0440C551C661C771CFA95D1F7842912
:102610009529A629B72988269926AA26BB26C80C5B
:10262000D91CEA1CFB1CECADFDADC482D582E68250
:10263000F7828A8D9B8D04969B8F8A8F9FEF291A34
:10264000390A8A889B88AC88BD888E899F89A88D25
:10265000B98D8A8B9B8BAC8BBD8B89819A81AB8129
:10266000BC818E8B9F8BA88FB98F8E859F85A88903
:10267000B98989839A83AB83BC838A859B85AC8522
:10268000BD858E879F87A88BB98B8E819F81A885FA
:10269000B9858A879B87AC87BD874E835F836887B0
:1026A0007987B901A801E1CDEEADFFADEB5BFF4F3E
:1026B0008C8D9D8DAE8DBF8D080F191F2A1F3B1F5E
:1026C0000083118322833383EEADFFADE75BFF4FC1
:1026D00088A199A1AAA1BBA1480F591F6A1F7B1FFE
:1026E00040835183628373836EAD7FAD635B7F4FA5
:1026F0008E819F81A885B9852CA13DA14EA15FA1A6
:10270000820F931FA41FB51FFB0180839183A283B7
:10271000B3836EAD7FAD6F5A7F4F8A859B85AC8545
:10272000BD8528A539A54AA55BA5820F931FA41FC7
:10273000B51FFB0180839183A283B3836EAD7FAD10
:102740006B5A7F4F8E859F85A889B9892CA53DA599
:102750004EA55FA5820F931FA41FB51FFB018083A9
:102760009183A283B3836EAD7FAD675A7F4F89811A
:102770009A81AB81BC8128A939A94AA95BA9820F9A
:10278000931FA41FB51FFB0180839183A283B38392
:102790006EAD7FAD635A7F4F8E899F89A88DB98DAD
:1027A0002CA93DA94EA95FA9820F931FA41FB51F95
:1027B000FB0180839183A283B3836EAD7FAD6F599C
:1027C0007F4F8A899B89AC89BD8928AD39AD4AADD7
:1027D0005BAD820F931FA41FB51FFB018083918304
:1027E000A283B383EF960FB6F894DEBF0FBECDBFC2
:1027F000DF91CF911F910F91FF90EF90DF90CF90DD
:10280000BF90AF909F908F907F906F905F904F9010
:102810003F902F900895CF93DF93EC01CC5BDF4F77
:10282000388123E02327FC01E20FF11D648321E0BE
:10283000230F2883203419F40E946B101882DF9133
:10284000CF910895262FFC01EB59FF4F4081518114
:10285000628173814F5F5F4F6F4F7F4F4083518322
:1028600062837383622F0E940B1481E090E00895CD
:10287000109296081092950884E695E0909394083B
:10288000809393080895FC0171836083538342838E
:102890000895CF93DF93EC01CB01BA012EE130E034
:1028A00040E050E00E94B1242C833D834E835F833F
:1028B000188619861A861B865C874D873E872F8768
:1028C0004A815B816881798182EE97E00E94A00F46
:1028D000E091E207F091E307BE01685F7F4F02805D
:1028E000F381E02D48E050E082EE97E0199582EE0A
:1028F00097E00E941310998B888BFC0143894F70DD
:1029000050E05B8B4A8B1C8A1D8A1E8A1F8A20E03E
:1029100030E0840F951F4C895D896E897F89762F01
:10292000652F542F44274C8B5D8B6E8B7F8BFC0166
:10293000E20FF31FE0814E2B4C8B5D8B6E8B7F8BF8
:102940002F5F3F4F2430310531F7CB01BA019F771C
:1029500020E432E44FE050E00E94B1246C8B7D8B88
:102960008E8B9F8B68969F938F937F936F9388E650
:1029700095E09F938F93DF93CF930E94B227EDB79B
:10298000FEB738960FB6F894FEBF0FBEEDBFCE016E
:10299000DF91CF910895EF92FF920F931F93CF9302
:1029A000DF938C01EC017C0184E3E80EF11CCE0185
:1029B0000E94AB162D96CE15DF05C9F7F80115AAB2
:1029C00014AADF91CF911F910F91FF90EF9008957E
:1029D0000F931F93CF93DF938C01009751F0EC017D
:1029E000E496C017D10729F02D97CE010E94BA16A0
:1029F000F8CFDF91CF911F910F910895AF92BF92C1
:102A0000CF92DF92EF92FF920F931F93CF93DF93BA
:102A1000CDB7DEB72D970FB6F894DEBF0FBECDBF92
:102A20008C016B0186179707E9F17C01A12CB12C71
:102A3000F80184A995A9A816B906A8F4CE010196B3
:102A40000E94AB16BE016F5F7F4FC7010E94DA166E
:102A5000CE0101960E94BA168FEFA81AB80AEDE0CF
:102A6000EE0EF11CE5CFF60184A995A9F80195AB0E
:102A700084ABE12CF12CA12CB12CF80184A995A9EF
:102A8000A816B90678F4B6016E0D7F1DC8018E0D2B
:102A90009F1D0E94DA16FFEFAF1ABF0A8DE0E80E05
:102AA000F11CEBCFC8012D960FB6F894DEBF0FBE18
:102AB000CDBFDF91CF911F910F91FF90EF90DF90ED
:102AC000CF90BF90AF900895CF92DF92EF92FF9298
:102AD0000F931F93CF93DF936C017C0100E010E014
:102AE000C0E0D0E0F60184A995A90817190758F4A9
:102AF000C7010E944317C80FD91F0F5F1F4F8DE0FA
:102B0000E80EF11CEFCFCE01DF91CF911F910F9115
:102B1000FF90EF90DF90CF900895CF92DF92EF92E9
:102B2000FF920F931F93CF93DF936C017B018C0176
:102B3000C0E0D0E0F60184A995A9C817D907B8F478
:102B4000219621E0C817D90709F020E041E0C13003
:102B5000D10509F040E0B701C8010E947417C8010F
:102B60000E944317E80EF91E035F1F4FE3CFDF916A
:102B7000CF911F910F91FF90EF90DF90CF9008952C
:102B8000CF93DF93EC012CA93DA92430310588F4C3
:102B90004DE0429FC001439F900D11248C0F9D1F5B
:102BA0000E94DA168CA99DA901969DAB8CAB81E0A1
:102BB00007C06EEF72E08CE599E00E949C1F80E0F8
:102BC000DF91CF9108956F927F928F929F92AF92F3
:102BD000BF92CF92DF92EF92FF920F931F93CF930A
:102BE000DF93CDB7DEB72D970FB6F894DEBF0FBEDB
:102BF000CDBF6C018B015A0149016DB67EB6CE0185
:102C000001960E94AB1664E0CE0101960E94CA179D
:102C1000F801448155814F5F5F4F8DB79EB7841B8C
:102C2000950B0FB6F8949EBF0FBE8DBFEDB7FEB7E4
:102C300031967F0120E030E0BF01C8010E942922C7
:102C4000F80144815581B701CE0101960E94CD174C
:102C5000A401B501CE0101960E94F017BE016F5F7D
:102C60007F4FC6010E94C015CE0101960E94BA1680
:102C70000FB6F8947EBE0FBE6DBE2D960FB6F894BB
:102C8000DEBF0FBECDBFDF91CF911F910F91FF909F
:102C9000EF90DF90CF90BF90AF909F908F907F90FC
:102CA0006F9008958F929F92AF92BF92CF92DF92D2
:102CB000EF92FF920F931F93CF93DF9300D000D03A
:102CC000CDB7DEB75C014B018A01CDB6DEB6FA01A5
:102CD000448155814F5F5F4F8DB79EB7841B950B25
:102CE0000FB6F8949EBF0FBE8DBFEDB7FEB73196FD
:102CF0007F0120E030E0BF01C8010E942922F801D5
:102D000004811581B401CE0101960E9475219801BC
:102D1000A701BE016F5F7F4FC5010E94E315CE0181
:102D200001960E94DA200FB6F894DEBE0FBECDBE2B
:102D300026960FB6F894DEBF0FBECDBFDF91CF91C0
:102D40001F910F91FF90EF90DF90CF90BF90AF90C9
:102D50009F908F900895FC0110821282118214823C
:102D600013821682158210861782128611861486A7
:102D700013860895CF93DF93EC0189819A81892B83
:102D800021F08F8198850E9479258B819C81892BE8
:102D900021F089859A850E9479258D819E81892BD4
:102DA00031F08B859C85DF91CF910C947925DF9153
:102DB000CF910895EF92FF920F931F93CF93DF93DC
:102DC000EC018B018617970709F455C089819A8118
:102DD000892B21F08F8198850E9479258B819C8198
:102DE000892B21F089859A850E9479258D819E8184
:102DF000892B21F08B859C850E947925F8018081A3
:102E00008883E180F280FA82E982838194819C83C5
:102E10008B83858196819E838D83E114F10459F023
:102E2000C7010E94E12498878F83F801678170852C
:102E3000A7010E942E27EB80FC80E114F10459F0D9
:102E4000C7010E94E1249A878987F801618572850C
:102E5000A7010E942E27ED80FE80E114F10459F0B5
:102E6000C7010E94E1249C878B87F80163857485E4
:102E7000A7010E942E27CE01DF91CF911F910F91C4
:102E8000FF90EF900895FC01438154814F3F51051D
:102E900021F01CF026E030E002C023E030E0658144
:102EA00076816115710511F02F5F3F4F818192810D
:102EB000860F971F840F951F820F931F0895FC01A3
:102EC00020816111206830E0411120648381948168
:102ED0008F3F910509F00CF4206185819681892B43
:102EE00009F02860822F0895EF92FF920F931F93AD
:102EF000CF93DF93EC018B01642F422F0E945F1769
:102F0000F8018083898181838B819C818F3F91052A
:102F100009F024F482830D5F1F4F09C0F80112826B
:102F200013828C8184838B8185830A5F1F4F8D81FF
:102F30009E81009719F0F80181938F016F81788548
:102F400049815A81C8010E942E27E980FA80E00E4B
:102F5000F11E69857A854B815C81C7010E942E270D
:102F60008B819C814D815E814115510561F06B859E
:102F70007C858E0D9F1DDF91CF911F910F91FF904A
:102F8000EF900C942E27DF91CF911F910F91FF901E
:102F9000EF900895FC0160830895EF92FF920F93E4
:102FA0001F93CF93DF93EC017B018A0189819A8182
:102FB000892B21F08F8198850E947925C8010E9474
:102FC000E12498878F83A801B7010E942E271A83D6
:102FD0000983DF91CF911F910F91FF90EF9008959A
:102FE000EF92FF920F931F93CF93DF93EC017B013E
:102FF0008A018B819C81892B21F089859A850E9489
:103000007925C8010E94E1249A878987A801B70120
:103010000E942E271C830B83DF91CF911F910F916C
:10302000FF90EF900895815B9F4FFC017183608357
:103030000895CF93DF93EC01C15BDF4F88819981C5
:10304000DC01ED91FC910190F081E02D19958881D2
:103050009981DC01ED91FC910280F381E02DDF91FB
:10306000CF911994EF92FF920F93CF93DF93FC01CE
:1030700094E1978781E0808B918B828B7F018FE435
:10308000E80EF11CD7018D919C91EF012F96DC0188
:10309000ED91FC910480F581E02D00E020E030E02E
:1030A00044E0BE011995811112C0F7018081918120
:1030B000DC01ED91FC910680F781E02D20E030E00D
:1030C00040E4BE01199521E0181619060CF020E025
:1030D000822FDF91CF910F91FF90EF900895CF92C3
:1030E000DF92EF92FF920F93CF93DF93EC01690190
:1030F0007C018FE4E80EF11CD7018D919C91DC01DD
:10310000ED91FC910480F581E02D00E020E030E0BD
:10311000199587FD15C0F70180819181DC01ED9142
:10312000FC91BE01615F7F4F0680F781E02D960123
:1031300040E41995181634F08E3F31F480E005C054
:103140008FEF03C081E001C08EEFDF91CF910F912F
:10315000FF90EF90DF90CF900895EF92FF920F9342
:103160001F93CF93DF93EB01142F26E82883815B15
:103170009F4F7C01DC018D919C91DC01ED91FC91D4
:103180000480F581E02D00E020E030E041E0199579
:10319000811126C0F70180819181DC01ED91FC91C4
:1031A0000680F781E02D20ED37E0412FBE01199513
:1031B00018161906CCF49C0121503109888181111F
:1031C00011C040E0842F90E08217930738F4FE018D
:1031D000E80FF91F818180834F5FF4CFC90104C0DC
:1031E0008FEF01C08BEF9FEFDF91CF911F910F9178
:1031F000FF90EF900895EF92FF920F93CF93DF939C
:10320000EC014034E8F0232B19F080E090E058C046
:10321000DC011F966A177B07C1F38EE88F87FE01DA
:10322000E15BFF4F80819181FC0120813181F901B7
:10323000E480F580042F9B0141E0BD01F70124C02B
:103240005FEF540F5F3F79F0852F992787FD9095A9
:10325000FB01E80FF91FE081DE01A80FB91F5096AE
:10326000EC935150EFCF8EE88F87FE01E15BFF4F6B
:1032700080819181DC01ED91FC914F5F0480F581AB
:10328000E02DBE01615F7F4F19958111BECFFE0118
:10329000E15BFF4F80819181DC01ED91FC91068023
:1032A000F781E02D28EB3BE040E4BE01615F7F4FFA
:1032B000199597FDAACF81E090E02F85211180E03C
:1032C000DF91CF910F91FF90EF900895EF92FF92D1
:1032D0000F93CF93DF93FC0182E58787608B7F019B
:1032E0008FE4E80EF11CD7018D919C91EF012F9690
:1032F000DC01ED91FC910480F581E02D00E020E0FF
:1033000030E042E0BE011995811113C0F7018081C0
:103310009181DC01ED91FC910680F781E02D20E0A8
:1033200030E040E4BE01DF91CF910F91FF90EF902C
:10333000199480E090E0DF91CF910F91FF90EF9092
:10334000089561E0FC0184810E941F240E94CF0C3B
:103350008CB5837F8CBD8CB580628CBD8CB58C7F29
:1033600081608CBD8DB581608DBD0895CF93DF9355
:10337000EC0160E08C810E94582462E070E080E003
:1033800090E00E94412361E08C81DF91CF910C9409
:1033900058248EBD00000DB407FEFDCF8EB50895F4
:1033A00080E00C94C919FC0182E795E09183808349
:1033B000158273836283448308951F93CF93DF93B1
:1033C000EC0160E08C810E94582482E00E94C919BF
:1033D0000E94D019182F61E08C810E945824812FFF
:1033E0008170DF91CF911F910895BF92CF92DF92AC
:1033F000EF92FF920F931F93CF93DF938C01D62E02
:10340000B72EC42E7901C0E0D0E0C8010E94DD19BA
:10341000811110C061E070E080E090E00E944123E3
:103420002196E114F10489F3EC16FD0670F78EEF96
:103430009FEF59C060E0F80184810E94582461E048
:1034400070E080E090E00E94412383E00E94C9196F
:103450000E94D019811115C00E94D019811111C08C
:103460000E94D0198F3F69F40E94D019F82E0E9453
:10347000D0198F0D31F4F801C5810E94D019853D16
:1034800049F0CDEFDFEF61E0F80184810E9458241C
:10349000CE0129C00E94D01991E09C0F9813F1CF62
:1034A000FA94FA94CF1438F40E94D0190E94D019DB
:1034B000CCEFDFEFE8CF86EDE82EEC0ECD2CCD2D56
:1034C000DB2D8C2F8C198F1528F40E94D01989932D
:1034D000E80EF7CF0E94D0198E0D99F60E94D019F0
:1034E000CF2DD0E0D0CFDF91CF911F910F91FF90E2
:1034F000EF90DF90CF90BF9008958F929F92AF9200
:10350000BF92CF92DF92EF92FF920F931F93CF93D0
:10351000DF937C01162FD72EB42EA22E932E60E0BF
:10352000FC0184810E94582462E070E080E090E019
:103530000E94412381E00E94C91980E00E94C919BC
:1035400080E00E94C9198FEF0E94C919C1E0C00F25
:10355000CB0D8C2F0E94C9198C2F81950E94C919FF
:1035600084ED0E94C919812EC12FDD2D14ED8C2F01
:1035700088198B1540F46E0189910E94C919F601D2
:103580008081180FF4CFBA2CCA2DD92D8C2F8B190E
:10359000801740F46E0189910E94C919F60180815B
:1035A000180FF4CF812F81950E94C91980E00E94E5
:1035B000C91961E0F7018481DF91CF911F910F91CB
:1035C000FF90EF90DF90CF90BF90AF909F908F9043
:1035D0000C945824AF92BF92CF92DF92EF92FF9259
:1035E0000F931F93CF93DF93CDB7DEB72C970FB612
:1035F000F894DEBF0FBECDBF7C0186E0E4E3F2E0CD
:10360000DE01179601900D928A95E1F760E0F701CF
:1036100084810E94582461E070E080E090E00E9484
:10362000412383E00E94C9198E010F5F1F4F6E0175
:10363000F7E0CF0ED11CB02EA12E0E94D019F801B8
:1036400081938F01EC15FD05C1F761E0F7018481DD
:103650000E94582446E050E0B8018B2D9A2D0E941C
:1036600021272C960FB6F894DEBF0FBECDBFDF9199
:10367000CF911F910F91FF90EF90DF90CF90BF906F
:10368000AF9008950F931F93CF93DF93EC01FB014D
:1036900080818D83CE010E947D1A1AE0CE010E94A6
:1036A000DD1981110AC061E070E080E090E00E94C5
:1036B0004123115099F78EEF09C0CE010E94EA1AFA
:1036C00091E0811101C090E0892F8195DF91CF9128
:1036D0001F910F910895DC01ED91FC9170E004843D
:1036E000F585E02D1994FC01218D828D30E0205C60
:1036F0003F4F281B31092F7333270288F389E02DB0
:10370000808182FF04C0C901969587950895C901FB
:103710000895FC01918D828D9817C1F0A289B3891B
:103720008C9182FF0DC0928D828DDF01A80FB11D9B
:103730005E968C91E90FF11D258D90E0922B0895F6
:10374000828DE80FF11D858D90E008958FEF9FEF3A
:103750000895FC01918D828D981721F1A289B3897A
:103760008C9182FF13C0828DDF01A80FB11D5D9681
:103770002C91828DDF01A80FB11D5E968C91928DE8
:103780009E5F9F73928F90E0922B0895828DDF0150
:10379000A80FB11D5D968C91928D9F5F9F73928F44
:1037A00090E008958FEF9FEF089584EF9DE1892BBE
:1037B00041F080E090E0892B21F00E94F41D8111FE
:1037C00025C081EC9EE1892B41F080E090E0892BBF
:1037D00021F00E94C11E81111CC080E090E0892B65
:1037E00041F080E090E0892B21F00E9400008111DF
:1037F00013C080E090E0892BA1F080E090E0892B5D
:1038000081F00E94000081110AC008950E9400000A
:10381000D8CF0E940000E1CF0E940000EACF0C94B4
:1038200000000895CF93DF93FC01A289B3898C91A6
:1038300082FF1CC0848DEF01C80FD11DC35ADF4F1A
:103840003881848DEF01C80FD11DC25ADF4F288106
:10385000848D90E002968F739927848F8C9130FF2E
:1038600002C0816001C08E7F8C930DC0848DDF010A
:10387000A80FB11DA35ABF4F2C91848D90E00196E3
:103880008F739927848FA689B7892C93A089B189D2
:103890008C9180648C93938D848D981306C00288DC
:1038A000F389E02D80818F7D8083DF91CF91089512
:1038B000CF93DF93EC01888D8823C9F0EA89FB89D7
:1038C000808185FD05C0A889B9898C9186FD0FC0CE
:1038D0000FB607FCF5CF808185FFF2CFA889B989A3
:1038E0008C9185FFEDCFCE010E94121CE7CFDF91B6
:1038F000CF910895EF92FF920F931F93CF93DF9391
:103900001F92CDB7DEB77C018B01DC015B969C91E9
:103910005B975C968C915C975296ED91FC915397D6
:10392000981308C050968D919C915197DC018C9111
:1039300085FD4EC0808182FF04C0F701238D2E5F7C
:1039400004C0D7015B962C912F5F2F73F701848DF4
:10395000281311C00FB607FCF9CFD7015096ED918F
:10396000FC915197808185FFF1CFC70129830E9487
:10397000121C2981EBCF0288F389E02D8081D701C9
:1039800082FF13C05B968C915B97A80FB11DA35A61
:10399000BF4F812F81708C93D7015B968C915B9781
:1039A000A80FB11DA25ABF4F07C05B968C915B97C1
:1039B000A80FB11DA35ABF4F0C93D7015B962C9350
:1039C0005B9780818062808381E058968C9317C0DA
:1039D000808182FF07C0808110FF02C0816001C02A
:1039E0008E7F8083D7015696ED91FC915797008387
:1039F0005096ED91FC91519780818064808381E0A5
:103A000090E00F90DF91CF911F910F91FF90EF9079
:103A10000895CF92DF92EF92FF920F931F93CF936F
:103A2000DF93EC016A017B018901E889F98982E071
:103A30008083411581EE580761057105A1F060E0B2
:103A400079E08DE390E0A70196010E948F24215038
:103A50003109410951095695479537952795211503
:103A600080E1380798F0E889F989108260E874E805
:103A70008EE190E0A70196010E948F242150310928
:103A8000410951095695479537952795EC85FD8550
:103A90003083EE85FF852083188E10FF05C0EA89EC
:103AA000FB89808184608083EC89FD890083EA89B9
:103AB000FB89808180618083EA89FB8980818860BD
:103AC0008083EA89FB89808180688083EA89FB8919
:103AD00080818F7D8083DF91CF911F910F91FF9027
:103AE000EF90DF90CF9008951F920F920FB60F9234
:103AF00011240BB60F922F933F938F939F93AF9305
:103B0000BF93EF93FF93E0916C09F0916D09808171
:103B1000E0917209F091730982FD2CC0A0916E09A9
:103B2000B0916F098C9182FF08C0809175098E5FFA
:103B30008F732C912695217004C0809175098F5F39
:103B40008F739081309176098317A9F03C91E091B1
:103B50007509F0E0E45AF64F32FF08C0258FE09176
:103B60007509F0E0E45AF64F968F01C0958F809367
:103B7000750901C08081FF91EF91BF91AF919F9135
:103B80008F913F912F910F900BBE0F900FBE0F9012
:103B90001F9018951F920F920FB60F9211240BB61B
:103BA0000F922F933F934F935F936F937F938F93D6
:103BB0009F93AF93BF93EF93FF938CE599E00E949F
:103BC000121CFF91EF91BF91AF919F918F917F91C7
:103BD0006F915F914F913F912F910F900BBE0F907E
:103BE0000FBE0F901F9018958CE599E00E94731BF3
:103BF00021E0892B09F420E0822F089510925F09BB
:103C000010925E0988EE93E0A0E0B0E08093600936
:103C100090936109A0936209B09363098EE795E0E0
:103C200090935D0980935C0985EC90E0909369091D
:103C30008093680984EC90E090936B0980936A0903
:103C400080EC90E090936D0980936C0981EC90E09A
:103C500090936F0980936E0982EC90E090937109C4
:103C60008093700986EC90E09093730980937209B9
:103C700010927509109276091092770910927809BE
:103C800008951F920F920FB60F9211240BB60F9248
:103C90002F933F938F939F93AF93BF93EF93FF9394
:103CA000E091090AF0910A0A8081E0910F0AF091EF
:103CB000100A82FD2CC0A0910B0AB0910C0A8C91C5
:103CC00082FF08C08091120A8E5F8F732C91269517
:103CD000217004C08091120A8F5F8F7390813091A0
:103CE000130A8317A9F03C91E091120AF0E0E75023
:103CF000F64F32FF08C0258FE091120AF0E0E7503E
:103D0000F64F968F01C0958F8093120A01C0808173
:103D1000FF91EF91BF91AF919F918F913F912F9123
:103D20000F900BBE0F900FBE0F901F9018951F9213
:103D30000F920FB60F9211240BB60F922F933F9351
:103D40004F935F936F937F938F939F93AF93BF93A3
:103D5000EF93FF9389EF99E00E94121CFF91EF917E
:103D6000BF91AF919F918F917F916F915F914F9193
:103D70003F912F910F900BBE0F900FBE0F901F9091
:103D8000189589EF99E00E94731B21E0892B09F4B3
:103D900020E0822F08951092FC091092FB0988EE12
:103DA00093E0A0E0B0E08093FD099093FE09A0931A
:103DB000FF09B093000A8EE795E09093FA0980938B
:103DC000F9098DEC90E09093060A8093050A8CEC3B
:103DD00090E09093080A8093070A88EC90E0909313
:103DE0000A0A8093090A89EC90E090930C0A809368
:103DF0000B0A8AEC90E090930E0A80930D0A8EECE9
:103E000090E09093100A80930F0A1092120A109279
:103E1000130A1092140A1092150A0895CF92DF9295
:103E2000EF92FF920F931F93CF93DF936C017A0170
:103E3000EB01E60EF71E00E010E0CE15DF0561F0A5
:103E40006991D601ED91FC910190F081E02DC601C0
:103E50001995080F191FF1CFC801DF91CF911F915C
:103E60000F91FF90EF90DF90CF900895611571054D
:103E700081F0DB010D900020E9F7AD0141505109BF
:103E8000461B570BDC01ED91FC910280F381E02D84
:103E9000199480E090E00895EF92FF920F931F93A2
:103EA000CF93DF938C01FB01C0E0D0E064917F01F0
:103EB0008FEFE81AF80A662361F0D801ED91FC91C2
:103EC0000190F081E02DC8011995C80FD91FF701A5
:103ED000EDCFCE01DF91CF911F910F91FF90EF9029
:103EE0000895DC01ED91FC91DB0114964D915C91FC
:103EF00015976D917C910280F381E02D19940C94BB
:103F0000361FDC01ED91FC910190F081E02D1994B8
:103F10000F931F93CF93DF93EC016DE00E94811FFD
:103F20008C016AE0CE010E94811F800F911FDF91FA
:103F3000CF911F910F9108950F931F93CF93DF930C
:103F4000EC010E944C1F8C01CE010E94881F800F43
:103F5000911FDF91CF911F910F9108950F931F93A0
:103F6000CF93DF93EC010E94361F8C01CE010E949B
:103F7000881F800F911FDF91CF911F910F9108959E
:103F80008F929F92AF92BF92CF92DF92EF92FF9269
:103F90000F931F93CF93DF93CDB7DEB7A1970FB6E3
:103FA000F894DEBF0FBECDBF7C01C42EE52FCB0140
:103FB000D22E19A221E02D1510F02AE0D22E8E016A
:103FC0000F5D1F4F8D2C912CA12CB12C6C2D7E2FB1
:103FD000A50194010E948F248C2DD29E801911245A
:103FE000015011098A3014F4805D01C0895CF80128
:103FF0008083211531054105510521F0C22EE32FA3
:10400000CA01E4CFB801C7010E94361FA1960FB6BE
:10401000F894DEBF0FBECDBFDF91CF911F910F91FE
:10402000FF90EF90DF90CF90BF90AF909F908F90D8
:104030000895CF92DF92EF92FF920F931F93CF9349
:10404000DF93EC016A017B012115310579F4E881E8
:10405000F9810190F081E02D642FDF91CF911F91C4
:104060000F91FF90EF90DF90CF9019942A30310597
:10407000E9F477FF1AC06DE20E94811F8C0144278A
:104080005527BA014C195D096E097F092AE0CE0156
:104090000E94C01F800F911FDF91CF911F910F9140
:1040A000FF90EF90DF90CF9008952AE0B701A6012E
:1040B000CE01DF91CF911F910F91FF90EF90DF9094
:1040C000CF900C94C01F2115310541F4DC01ED9116
:1040D000FC910190F081E02D642F19940C94C01F85
:1040E0009A01462F50E060E070E00C9463200F933B
:1040F0001F93CF93DF93EC010E9412236887798787
:104100008A879B87E881F9810680F781E02DCE01BF
:10411000199597FF15C00E941223088519852A85D5
:104120003B85601B710B820B930B0C811D812E81D3
:104130003F81601771078207930720F38FEF9FEF8E
:10414000DF91CF911F910F910895AF92BF92CF92BF
:10415000DF92EF92FF920F931F93CF93DF936C0147
:10416000790121153105B9F08A01C0E0D0E0A62E11
:10417000BB24A7FCB094C6010E94772097FD0EC017
:104180008A159B0559F0F80181938F012196CE1570
:10419000DF0589F703C080E090E001C0CE01DF9128
:1041A000CF911F910F91FF90EF90DF90CF90BF9034
:1041B000AF900895FC01808191810C947925CF9373
:1041C000DF93EC0188819981009711F00E94792595
:1041D000198218821D821C821B821A82DF91CF9164
:1041E00008950F931F93CF93DF93EC018B016F5FC3
:1041F0007F4F888199810E940826009731F099832A
:1042000088831B830A8381E001C080E0DF91CF9126
:104210001F910F910895CF93DF93EC0188819981CD
:10422000892B29F08A819B818617970760F4CE013C
:104230000E94F120882341F08C819D81892B19F403
:10424000E881F981108281E0DF91CF910895EF92AA
:10425000FF920F931F93CF93DF93EC017B018A01B1
:10426000BA010E940B21811104C0CE010E94DF20FF
:1042700007C01D830C83B701888199810E944B2759
:10428000CE01DF91CF911F910F91FF90EF90089594
:10429000FC01118210821382128215821482611530
:1042A000710559F0FB0101900020E9F7AF01415081
:1042B0005109461B570B0C9427210895CF93DF9388
:1042C000EC01FB018617970761F060817181611530
:1042D000710529F0448155810E94272102C00E9466
:1042E000DF20CE01DF91CF910895FC011182108271
:1042F00013821282158214820C945E21CF93DF9375
:10430000EC016115710561F0FB0101900020E9F7F6
:10431000AF0141505109461B570B0E94272102C093
:104320000E94DF20CE01DF91CF9108950F931F935C
:10433000CF93DF93CDB7DEB7A2970FB6F894DEBF69
:104340000FBECDBF8C01CB01BA01F80111821082E2
:10435000138212821582148230E0AE014F5F5F4FEC
:104360000E946127BE016F5F7F4FC8010E947E21BE
:10437000A2960FB6F894DEBF0FBECDBFDF91CF91EE
:104380001F910F910895EF92FF920F931F93CF9378
:10439000DF93EC017B010C811D816115710511F426
:1043A00080E016C04115510591F0040F151FB801AA
:1043B0000E940B218823A1F3288139818C819D8162
:1043C000B701820F931F0E944B271D830C8381E04E
:1043D000DF91CF911F910F91FF90EF900895FB0116
:1043E00044815581608171810C94C321CF93DF9307
:1043F0001F921F92CDB7DEB769831A8241E050E069
:10440000BE016F5F7F4F0E94C3210F900F90DF911D
:10441000CF910895FC0124813581232B31F421E0D3
:1044200061157105A1F0FB0108C0FC01808191813B
:104430006115710531F421E0FC018081882339F098
:1044400005C00E94422721E0892B09F020E0822F3D
:1044500008950F931F93CF93DF93EB0141155105FF
:10446000E9F02097D9F0FC016481758126173707A0
:10447000A0F4621B730B8A010150110960177107C8
:1044800008F48B01FC0160817181620F731FA80128
:10449000CE010E945227C00FD11F1882DF91CF9109
:1044A0001F910F910895CF93DF93FC018481958133
:1044B0004817590778F4C081D181772767FD709537
:1044C000CE01840F951F0E943727009719F08C1B8F
:1044D0009D0B02C08FEF9FEFDF91CF91089540E0D9
:1044E00050E00C945322BF92CF92DF92EF92FF9252
:1044F0000F931F93CF93DF936C017B01EA01890136
:104500002417350720F48D2FE901042F182F67E9B0
:1045100072E0C6010E944821D70114968D919C91AA
:104520001597C817D907C8F48017910708F48C01AC
:10453000D701ED91FC911197E00FF11FB08010822F
:104540006D917C916C0F7D1FC6010E947E21D70169
:10455000ED91FC91E00FF11FB082C601DF91CF9188
:104560001F910F91FF90EF90DF90CF90BF90089533
:1045700008950E9469230E94B8220E948402C5ED1A
:10458000DBE10E9457022097E1F30E94D51BF9CF8F
:104590001F920F920FB60F9211242F933F938F9378
:1045A0009F93AF93BF938091970A9091980AA0919F
:1045B000990AB0919A0A3091960A23E0230F2D3779
:1045C00020F40196A11DB11D05C026E8230F029617
:1045D000A11DB11D2093960A8093970A9093980A83
:1045E000A093990AB0939A0A80919B0A90919C0A91
:1045F000A0919D0AB0919E0A0196A11DB11D8093C4
:104600009B0A90939C0AA0939D0AB0939E0ABF9127
:10461000AF919F918F913F912F910F900FBE0F906F
:104620001F9018952FB7F8946091970A7091980A87
:104630008091990A90919A0A2FBF08953FB7F894F4
:1046400080919B0A90919C0AA0919D0AB0919E0A2C
:1046500026B5A89B05C02F3F19F00196A11DB11DDD
:104660003FBF6627782F892F9A2F620F711D811DFA
:10467000911D42E0660F771F881F991F4A95D1F759
:104680000895CF92DF92EF92FF92CF93DF936B0169
:104690007C010E941E23EB01C114D104E104F1044A
:1046A00089F00E948E240E941E236C1B7D0B683EA5
:1046B000734090F381E0C81AD108E108F108C851AD
:1046C000DC4FEACFDF91CF91FF90EF90DF90CF905A
:1046D0000895789484B5826084BD84B5816084BD7A
:1046E00085B5826085BD85B5816085BDEEE6F0E06B
:1046F000808181608083E1E8F0E0108280818260C7
:104700008083808181608083E0E8F0E08081816047
:104710008083E1EBF0E0808184608083E0EBF0E077
:10472000808181608083E1E9F0E080818260808324
:10473000808181608083E0E9F0E080818160808316
:10474000E1EAF0E080818260808380818160808303
:10475000E0EAF0E0808181608083E1E2F1E0808145
:1047600082608083808181608083E0E2F1E08081EB
:1047700081608083EAE7F0E08081846080838081CB
:104780008260808380818160808380818068808373
:104790001092C100089590E0FC013197E231F105DB
:1047A00008F04CC0E358FF4F0C94D0248091800057
:1047B0008F7703C0809180008F7D80938000089563
:1047C00080918000877FF9CF84B58F7702C084B550
:1047D0008F7D84BD08958091B0008F7703C0809154
:1047E000B0008F7D8093B0000895809190008F7706
:1047F00007C0809190008F7D03C080919000877FDB
:104800008093900008958091A0008F7707C08091D9
:10481000A0008F7D03C08091A000877F8093A000BF
:104820000895809120018F7707C0809120018F7DAE
:1048300003C080912001877F809320010895CF934A
:10484000DF9390E0FC01E658FC4F2491FC01E0541A
:10485000FC4F8491882349F190E0880F991FFC0157
:10486000E05EFB4FA591B4918A5F9B4FFC01C5911F
:10487000D4919FB7611108C0F8948C912095822340
:104880008C93888182230AC0623051F4F8948C9111
:10489000322F309583238C938881822B888304C0A8
:1048A000F8948C91822B8C939FBFDF91CF910895C8
:1048B0000F931F93CF93DF931F92CDB7DEB7282FAF
:1048C00030E0F901EC5CFC4F8491F901E658FC4FB3
:1048D0001491F901E054FC4F04910023C9F088239E
:1048E00021F069830E94CB236981E02FF0E0EE0F75
:1048F000FF1FEA5FFB4FA591B4919FB7F8948C918D
:10490000611103C01095812301C0812B8C939FBF3F
:104910000F90DF91CF911F910F9108950895A1E21B
:104920001A2EAA1BBB1BFD010DC0AA1FBB1FEE1F29
:10493000FF1FA217B307E407F50720F0A21BB30B74
:10494000E40BF50B661F771F881F991F1A9469F7F0
:1049500060957095809590959B01AC01BD01CF014C
:104960000895052E97FB1EF400940E94C82457FD5D
:1049700007D00E948F2407FC03D04EF40C94C82467
:1049800050954095309521953F4F4F4F5F4F08957B
:1049900090958095709561957F4F8F4F9F4F0895AB
:1049A000EE0FFF1F0590F491E02D199469279627CB
:1049B000692778278727782708950790F691E02DB3
:1049C0001994CF93DF938230910510F482E090E048
:1049D000E091A10AF091A20A20E030E0A0E0B0E06E
:1049E000309739F14081518148175907B8F048177D
:1049F000590771F482819381109729F013969C9343
:104A00008E9312972CC09093A20A8093A10A27C07C
:104A10002115310531F04217530718F0A901DB01C8
:104A200001C0EF019A01BD01DF010280F381E02D99
:104A3000D7CF21153105F9F0281B390B243031056A
:104A400080F48A819B816115710521F0FB019383BC
:104A5000828304C09093A20A8093A10AFE01329639
:104A600044C0FE01E20FF31F81939193225031095C
:104A7000398328833AC020919F0A3091A00A232BC2
:104A800041F420910202309103023093A00A209356
:104A90009F0A20910002309101022115310541F455
:104AA0002DB73EB74091040250910502241B350BEF
:104AB000E0919F0AF091A00AE217F307A0F42E1BE1
:104AC0003F0B2817390778F0AC014E5F5F4F241772
:104AD000350748F04E0F5F1F5093A00A40939F0A7E
:104AE0008193919302C0E0E0F0E0CF01DF91CF919C
:104AF0000895CF93DF93009709F487C0FC013297A4
:104B000013821282C091A10AD091A20A209781F447
:104B100020813181280F391F80919F0A9091A00A2E
:104B20008217930779F5F093A00AE0939F0A6DC06E
:104B3000DE0120E030E0AE17BF0750F412964D9131
:104B40005C9113979D014115510509F1DA01F3CFED
:104B5000B383A28340815181840F951F8A179B07DD
:104B600071F48D919C911197840F951F02969183FA
:104B7000808312968D919C91139793838283211544
:104B8000310529F4F093A20AE093A10A3EC0D901AD
:104B90001396FC93EE9312974D915D91A40FB51F60
:104BA000EA17FB0779F480819181840F951F0296A3
:104BB000D90111969C938E938281938113969C9335
:104BC0008E931297E0E0F0E08A819B81009719F0C4
:104BD000FE01EC01F9CFCE01029628813981820FC6
:104BE000931F20919F0A3091A00A2817390769F472
:104BF000309729F41092A20A1092A10A02C01382DF
:104C00001282D093A00AC0939F0ADF91CF9108959A
:104C10006F927F928F929F92AF92BF92CF92DF92CC
:104C2000EF92FF920F931F93CF93DF93EC01CB0191
:104C3000209781F4DF91CF911F910F91FF90EF901A
:104C4000DF90CF90BF90AF909F908F907F906F90AC
:104C50000C94E124FE01E60FF71F9E01225031095A
:104C6000E217F30708F4ACC0D9010D911C9111971C
:104C700006171707B8F00530110508F49FC0A80102
:104C8000445051094617570708F498C002501109BB
:104C9000061B170B019311936D937C93CF010E9418
:104CA00079258CC05B01A01AB10A4E01800E911EBD
:104CB000A091A10AB091A20A612C712C60E070E071
:104CC000109709F449C0A815B905C9F5ED90FC90F5
:104CD0001197670142E0C40ED11CCA14DB0478F1BD
:104CE00047018A189B08640142E0C40ED11C129649
:104CF000BC9012971396AC91B5E0CB16D10440F05E
:104D0000B282A38391828082D9018D939C9309C042
:104D10000E5F1F4F0E0D1F1DF90111830083EB2D38
:104D2000FA2F6115710531F0DB011396FC93EE93B8
:104D3000129744C0F093A20AE093A10A3FC06D917C
:104D40007C9111976616770608F43B01BD01129617
:104D50000D90BC91A02DB4CF60919F0A7091A00AD4
:104D600068157905E9F468167906D0F440910002D7
:104D7000509101024115510541F44DB75EB7609164
:104D8000040270910502461B570BE417F507C0F4A7
:104D9000F093A00AE0939F0AF901918380830EC0EB
:104DA0000E94E1247C01009759F0A801BE010E94F5
:104DB0002E27CE010E947925C70104C0CE0102C072
:104DC00080E090E0DF91CF911F910F91FF90EF90E5
:104DD000DF90CF90BF90AF909F908F907F906F901B
:104DE00008951F93FC0199278827BC01E89411912D
:104DF0001032E9F3193010F01E30C8F31B3251F0B5
:104E00001D3249F4689406C00E947B27610F711D12
:104E1000811D911D119110531A30B0F33EF49095FD
:104E20008095709561957F4F8F4F9F4F1F9108958B
:104E3000FB01DC0102C005900D9241505040D8F7B3
:104E40000895FB01DC0104C08D910190801921F4CB
:104E500041505040C8F7881B990B0895FB01DC01B5
:104E600002C001900D9241505040D8F70895FC01C6
:104E70008191861721F08823D9F7992708953197D2
:104E8000CF010895FB01DC018D9101908019011083
:104E9000D9F3990B0895FB01DC0101900D920020DC
:104EA000E1F70895FB01DC014150504048F00190CA
:104EB0000D920020C9F701C01D9241505040E0F70B
:104EC00008952532310520F4223010F00C946C271F
:104ED000FA011082CA010895BB272A3051F49923A0
:104EE00042F4BDE290958095709561957F4F8F4F0C
:104EF0009F4F0C949127592F482F372F262F660F3D
:104F0000771F881F991F660F771F881F991F620FD1
:104F1000731F841F951F660F771F881F991F0895A1
:104F2000BB27FA01A62F6217710581059105330B86
:104F300030FB66F0AA27660F771F881F991FAA1FEC
:104F4000A21710F0A21B63953850A9F7A05DAA33F1
:104F500008F0A95DA19336F7B111B1931082CA018F
:104F60000C94F2290F931F93CF93DF93CDB7DEB745
:104F70002E970FB6F894DEBF0FBECDBF0E891F89E6
:104F800086E08C831A8309838FEF9FE79E838D834E
:104F9000AE01465E5F4F688D798DCE0101960E940D
:104FA000E127EF81F885E00FF11F10822E960FB6F2
:104FB000F894DEBF0FBECDBFDF91CF911F910F914F
:104FC00008952F923F924F925F926F927F928F92AD
:104FD0009F92AF92BF92CF92DF92EF92FF920F9388
:104FE0001F93CF93DF93CDB7DEB72C970FB6F8940E
:104FF000DEBF0FBECDBF7C016B018A01FC011782B1
:105000001682838181FFBDC1CE0101964C01F7015B
:105010009381F60193FD859193FF81916F01882320
:1050200009F4ABC1853239F493FD859193FF8191E9
:105030006F01853229F4B70190E00E94022AE7CF80
:10504000512C312C20E02032A0F48B3269F030F466
:10505000803259F0833269F420612CC08D3239F0EE
:10506000803339F4216026C02260246023C0286088
:1050700021C027FD27C030ED380F3A3078F426FFE5
:1050800006C0FAE05F9E300D1124532E13C08AE053
:10509000389E300D1124332E20620CC08E3221F444
:1050A00026FD6BC1206406C08C3611F4206802C056
:1050B000883641F4F60193FD859193FF81916F014C
:1050C0008111C1CF982F9F7D9554933028F40C5FA8
:1050D0001F4FFFE3F9830DC0833631F0833771F042
:1050E000833509F05BC022C0F801808189830E5F9F
:1050F0001F4F44244394512C540115C03801F2E051
:105100006F0E711CF801A080B18026FF03C0652DD1
:1051100070E002C06FEF7FEFC5012C870E94E72986
:105120002C0183012C852F77222E17C03801F2E045
:105130006F0E711CF801A080B18026FF03C0652DA1
:1051400070E002C06FEF7FEFC5012C870E94DC2961
:105150002C012C852068222E830123FC1BC0832D6B
:1051600090E048165906B0F4B70180E290E00E9442
:10517000022A3A94F4CFF50127FC859127FE81910C
:105180005F01B70190E00E94022A31103A94F1E0E9
:105190004F1A51084114510471F7E5C0843611F0DB
:1051A000893639F5F80127FF07C060817181828156
:1051B00093810C5F1F4F08C060817181882777FD44
:1051C0008095982F0E5F1F4F2F76B22E97FF09C044
:1051D00090958095709561957F4F8F4F9F4F206878
:1051E000B22E2AE030E0A4010E94342AA82EA8188A
:1051F00044C0853729F42F7EB22E2AE030E025C046
:10520000F22FF97FBF2E8F36C1F018F4883579F070
:10521000B4C0803719F0883721F0AFC02F2F20613C
:10522000B22EB4FE0DC08B2D8460B82E09C024FFB1
:105230000AC09F2F9660B92E06C028E030E005C056
:1052400020E130E002C020E132E0F801B7FE07C003
:1052500060817181828193810C5F1F4F06C06081E4
:10526000718180E090E00E5F1F4FA4010E94342AFC
:10527000A82EA818FB2DFF77BF2EB6FE0BC02B2D36
:105280002E7FA51450F4B4FE0AC0B2FC08C02B2D2A
:105290002E7E05C07A2C2B2D03C07A2C01C0752CD4
:1052A00024FF0DC0FE01EA0DF11D8081803311F451
:1052B000297E09C022FF06C07394739404C0822F14
:1052C000867809F0739423FD13C020FF06C05A2C82
:1052D000731418F4530C5718732C731468F4B70133
:1052E00080E290E02C870E94022A73942C85F5CFEF
:1052F000731410F4371801C0312C24FF12C0B70109
:1053000080E390E02C870E94022A2C8522FF17C0A0
:1053100021FF03C088E590E002C088E790E0B70174
:105320000CC0822F867859F021FD02C080E201C0B6
:105330008BE227FD8DE2B70190E00E94022AA514BE
:1053400038F4B70180E390E00E94022A5A94F7CF24
:10535000AA94F401EA0DF11D8081B70190E00E944A
:10536000022AA110F5CF332009F451CEB70180E213
:1053700090E00E94022A3A94F6CFF7018681978145
:1053800002C08FEF9FEF2C960FB6F894DEBF0FBED2
:10539000CDBFDF91CF911F910F91FF90EF90DF90E4
:1053A000CF90BF90AF909F908F907F906F905F90C5
:1053B0004F903F902F900895FC01059061507040F0
:1053C0000110D8F7809590958E0F9F1F0895FC01CE
:1053D0006150704001900110D8F7809590958E0F24
:1053E0009F1F0895DC01FC01672F71917723E1F77E
:1053F000329704C07C916D9370836291AE17BF07A2
:10540000C8F308950F931F93CF93DF93182F092F9D
:10541000EB018B8181FD03C08FEF9FEF20C082FFE6
:1054200010C04E815F812C813D81421753077CF46F
:10543000E881F9819F012F5F3F4F398328831083D3
:1054400006C0E885F985812F1995892B29F72E81CA
:105450003F812F5F3F4F3F832E83812F902FDF911E
:10546000CF911F910F910895FA01AA27283051F189
:10547000203181F1E8946F936E7F6E5F7F4F8F4F85
:105480009F4FAF4FB1E03ED0B4E03CD0670F781FE4
:10549000891F9A1FA11D680F791F8A1F911DA11DC9
:1054A0006A0F711D811D911DA11D20D009F4689402
:1054B0003F912AE0269F11243019305D3193DEF6AA
:1054C000CF010895462F4770405D4193B3E00FD060
:1054D000C9F7F6CF462F4F70405D4A3318F0495D4B
:1054E00031FD4052419302D0A9F7EACFB4E0A6952E
:1054F0009795879577956795BA95C9F70097610550
:10550000710508959B01AC010A2E069457954795A5
:1055100037952795BA95C9F7620F731F841F951F9A
:10552000A01D089514E0C6E4D4E000E006C0229770
:105530000109FE010BBF0E94DD24C834D10780E0C1
:085540000807A9F7F894FFCF5A
:105548000000A30A80004142434445464748494A6F
:105558000004000007D27600008501010007FF0063
:105568000000001234000F20005400FF0406E1047C
:10557800008000000000FF00FF006C6F673A6D615B
:10558800696E206C6F6F703B006C6F673A66696E6E
:105598006520656D756C617A696F6E653B006C6F2F
:1055A800673A2077616974696E67206C656F206956
:1055B8006E697469616C697A7A6174696F6E3B00AF
:1055C80072656164790072657175657374006C6FDA
:1055D800673A2049443A20002C2053656372657469
:1055E8003A20002C204C617374205472616E7361F0
:1055F8006374696F6E3A200069742E626C716C6115
:1056080062732E616E64726F69642E636F6666657D
:10561800656170703200616E64726F69642E636FC9
:105628006D3A706B67006C6F673A4E646566206D03
:1056380065737361676520746F206269673B0072E8
:1056480065630073746F7265207B2274696D65737E
:1056580074616D70223A2200222C226576656E7480
:105668005F74797065223A22726563686172676552
:10567800222C227472616E73616374696F6E5F6944
:1056880064223A2200222C22757365725F696422B3
:105698003A2200222C22616D6F756E74223A222BF9
:1056A80000227D006C6F673A2072656368617267DB
:1056B80065200070757200222C226576656E745F15
:1056C80074797065223A2270757263686173652215
:1056D8002C227472616E73616374696F6E5F6964A2
:1056E800223A2200222C22616D6F756E74223A22B2
:1056F8002D006C6F673A207075726368617365205E
:10570800006765745F74696D653A006C6F673A206D
:105718006572726F723B00636F6E6E656374696F5A
:105728006E3A006F6B3B007365745F646174613A35
:10573800006765745F646174653A00302E30006CF0
:105748006F673A20696E69742061732074617267AB
:1057580065742074696D656F75743B006C6F673A8A
:1057680074617267657420696E697A69616C697AB7
:105778007A61746F3B00636F6E6E656374696F6EF8
:105788003A7265713B006765745F74696D653A725A
:1057980065713B006C6F673A00222C226576656E56
:1057A800745F74797065223A226C6F675F696E2244
:1057B8002C226D616368696E655F6964223A220014
:1057C8006C6F673A206C6F67696E3B006C6F673A65
:1057D800207374617475732057414954494E473B8F
:1057E800006C6F673A207374617475732052454377
:1057F80048415247454420007472616E7361637476
:10580800696F6E204944203D20006C6F673A207311
:1058180074617475732050555243484153452000B4
:105828006C6F673A636F6D6D616E64206E6F742084
:10583800737570706F72746564203D20006C6F67BB
:105848003A75736369746F20646120737769746350
:10585800683B006C6F673A736574206461746120FB
:105868006661696C656420696E2072656C65617338
:10587800653B006C6F673A75736369746F20646188
:10588800207768696C653B006C6F673A696E2072B7
:10589800656C656173653B0000000000FE0E0E1F1D
:1058A8000000000022140E1F2530366C6400000032
:1058B8000000A119B619421BF519000000006B1B66
:0C58C8000E1F731BA91B891B581C7A1CA7
:00000001FF
