:100000000C94CD010C94FA010C94FA010C94FA01B1
:100010000C94FA010C94FA010C94FA010C94FA0174
:100020000C94FA010C94FA010C94FA010C94FA0164
:100030000C94FA010C94FA010C94FA010C94FA0154
:100040000C94FA010C94FA010C94FA010C94FA0144
:100050000C94FA010C94FA010C94FA010C9468289F
:100060000C94FA010C94E7220C9496230C94FA0158
:100070000C94FA010C94FA010C94FA010C94FA0114
:100080000C94FA010C94FA010C94FA010C94FA0104
:100090000C94C0230C946F240C94FA010C94FA0174
:1000A0000C94FA010C94FA010C94FA010C94FA01E4
:1000B0000C94FA010C94FA010C94FA010C94FA01D4
:1000C0000C94FA010C94FA010C94FA010C94FA01C4
:1000D0000C94FA010C94FA010C94FA010C94FA01B4
:1000E0000C94FA010123456789ABCDEFFEDCBA9889
:1000F00076543210F0E1D2C3982F8A42914437717E
:10010000CFFBC0B5A5DBB5E95BC25639F111F1599A
:10011000A4823F92D55E1CAB98AA07D8015B8312DC
:10012000BE853124C37D0C55745DBE72FEB1DE8088
:10013000A706DC9B74F19BC1C1699BE48647BEEFB7
:10014000C69DC10FCCA10C246F2CE92DAA84744A42
:10015000DCA9B05CDA88F97652513E986DC631A8B8
:10016000C82703B0C77F59BFF30BE0C64791A7D597
:100170005163CA0667292914850AB72738211B2E1F
:10018000FC6D2C4D130D385354730A65BB0A6A7607
:100190002EC9C281852C7292A1E8BFA24B661AA813
:1001A000708B4BC2A3516CC719E892D1240699D623
:1001B00085350EF470A06A1016C1A419086C371E9C
:1001C0004C774827B5BCB034B30C1C394AAAD84E7A
:1001D0004FCA9C5BF36F2E68EE828F746F63A578B5
:1001E0001478C8840802C78CFAFFBE90EB6C50A448
:1001F000F7A3F9BEF27871C667E6096A85AE67BBF8
:1002000072F36E3C3AF54FA57F520E518C68059BF8
:10021000ABD9831F19CDE05B206279746573002030
:100220007265636F7264000A4E444546204D6573E3
:100230007361676520005741524E494E473A20543A
:100240006F6F206D616E79207265636F7264732EBB
:1002500020496E637265617365204D41585F4E445D
:1002600045465F5245434F5244532E000000210043
:10027000240027002A002D00300033000101000077
:10028000040107010A0100002200250028002B00BC
:100290002E003100340002010000050108010B01AD
:1002A000000020002300260029002C002F0032002F
:1002B0000001000003010601090105050505070508
:1002C00008080808020202020A0A080804040404D2
:1002D00001010101010101010303030303030303FE
:1002E000040707070C0C0C0C0C0C0C0C020202028D
:1002F00006060606060606060B0B0B0B0B0B0B0B76
:100300000102102020080810204010204080020127
:10031000020108040201010204081020408080400C
:10032000201008040201800402018040201008040B
:1003300002010804020101020408102040800102A9
:100340000408102040800000090A02080B0C0D0769
:10035000060304010000000000000000000000008F
:10036000000000000000000000000000000000008D
:10037000000011100F00000000000000000000004D
:1003800000000000000000000000000066054007BB
:100390006C13C41749232224390711241FBECFEF41
:1003A000D1E2DEBFCDBF00E00CBF15E0A0E0B2E0BF
:1003B000ECEEF7E500E00BBF02C007900D92AA3803
:1003C000B107D9F71BBE1AE0AAE8B5E001C01D923B
:1003D000A13AB107E1F713E0C8E9D3E004C02297DE
:1003E000FE010E94AE2BCC38D107C9F70E945928D4
:1003F0000C94E92B0C9400001F93FC01992788278B
:10040000BC01E89411911032E9F3193010F01E305C
:10041000C8F31B3251F01D3249F4689406C00E94A3
:10042000A002610F711D811D911D119110531A3091
:10043000B0F33EF490958095709561957F4F8F4F06
:100440009F4F1F910895FB01DC0102C005900D92A2
:1004500041505040D8F70895FB01DC0104C08D9154
:100460000190801921F441505040C8F7881B990B26
:100470000895FB01DC0102C001900D9241505040F3
:10048000D8F70895FC018191861721F08823D9F7C8
:10049000992708953197CF010895FB01DC018D91D3
:1004A000019080190110D9F3990B0895FB01DC012B
:1004B00001900D920020E1F70895FB01DC0141500D
:1004C000504048F001900D920020C9F701C01D92E4
:1004D00041505040E0F70895FA01CF93FF93EF9316
:1004E000223044F1253234F5C22FE894CA3049F461
:1004F00097FB3EF490958095709561957F4F8F4F57
:100500009F4F2C2F332744275527FF93EF930E94AB
:100510006F2BEF91FF91605D6A330CF0695D619321
:10052000B901CA01605070408040904051F716F404
:10053000CDE2C19310828F919F91CF910C94CC0406
:10054000592F482F372F262F660F771F881F991F87
:10055000660F771F881F991F620F731F841F951FD7
:10056000660F771F881F991F0895AEE0B0E0EBEB90
:10057000F2E00C94C02B0E891F8986E08C831A83CD
:1005800009838FEF9FE79E838D839E01265E3F4FF9
:10059000CE010196688D798DA9010E94D9022F8123
:1005A0003885020F131FF80110822E96E4E00C9498
:1005B000DC2BABE0B0E0EFEDF2E00C94B22B3C01B1
:1005C0002B015A01FC0117821682838181FD03C031
:1005D0006FEF7FEFC6C19AE0892E1E010894211C9F
:1005E000311CF3012381F20123FD859123FF8191C9
:1005F0002F01882309F4B2C1853239F423FD859196
:1006000023FF81912F01853229F490E0B3010E94EC
:10061000DC04E7CF982FFF24EE249924FFE1FF1597
:10062000D0F09B3269F09C3228F4903259F093322A
:1006300091F40EC09D3249F0903369F441E024C03A
:1006400052E0F52A84E0F82A28C098E0F92A25C06B
:10065000E0E1FE2A22C0F7FC29C0892F80538A30AE
:1006600070F4F6FE05C0989C902C1124980E15C0CD
:10067000E89CE02C1124E80EF0E2FF2A0EC09E3226
:1006800029F4F6FC6BC140E4F42A07C09C3619F447
:1006900050E8F52A02C0983649F4F20123FD9591FD
:1006A00023FF91912F01992309F0B8CF892F855409
:1006B000833018F08052833038F444E050E0A40EC8
:1006C000B51E5FE359830FC0933631F0933779F04D
:1006D000933509F056C020C0F5018081898342E03E
:1006E00050E0A40EB51E610101E010E012C0F5015A
:1006F000C080D180F6FC03C06FEF7FEF02C0692D90
:1007000070E042E050E0A40EB51EC6010E94C10494
:100710008C015FE7F52214C0F501C080D180F6FCA2
:1007200003C06FEF7FEF02C0692D70E042E050E040
:10073000A40EB51EC6010E94B6048C0150E8F52A2D
:10074000F3FE07C01AC080E290E0B3010E94DC040F
:10075000EA948E2D90E008171907A8F30EC0F60151
:10076000F7FC8591F7FE81916F0190E0B3010E9443
:10077000DC04E110EA94015010400115110579F7ED
:10078000EAC0943611F0993669F5F7FE08C0F50114
:10079000208131814281538184E090E00AC0F501DB
:1007A000808191819C01442737FD4095542F82E040
:1007B00090E0A80EB91E9FE6F92257FF09C0509598
:1007C0004095309521953F4F4F4F5F4FE0E8FE2A0F
:1007D000CA01B901A1012AE030E00E940805D82E23
:1007E000D21840C0953729F41F2D1F7E2AE030E033
:1007F0001DC01F2D197F9F3661F0903720F498356A
:1008000009F0ACC00FC0903739F0983709F0A6C096
:1008100004C028E030E00AC0106114FD146020E13B
:1008200030E004C014FD166020E132E017FF08C07C
:10083000F501608171818281938144E050E008C0BC
:10084000F50180819181BC0180E090E042E050E0C0
:10085000A40EB51EA1010E940805D82ED2188FE75C
:10086000F82EF122F6FE0BC05EEFF522D91438F413
:10087000F4FE07C0F2FC05C08FEEF82202C01D2D69
:1008800001C0192DF4FE0DC0FE01ED0DF11D80819A
:10089000803319F499EEF92208C01F5FF2FE05C0FB
:1008A00003C08F2D867809F01F5F0F2DF3FC14C055
:1008B000F0FE0FC01E1510F09D2C0BC09D2C9E0C41
:1008C000911A1E2D06C080E290E0B3010E94DC0464
:1008D0001F5F1E15C0F304C01E1510F4E11A01C0FD
:1008E000EE2404FF0FC080E390E0B3010E94DC041B
:1008F00002FF1DC001FD03C088E790E00EC088E53F
:1009000090E00BC0802F867891F001FF02C08BE24F
:1009100001C080E2F7FC8DE290E0B3010E94DC04AC
:1009200006C080E390E0B3010E94DC049A94D914DD
:10093000C0F3DA94F101ED0DF11D808190E0B30177
:100940000E94DC04DD20A9F706C080E290E0B3013C
:100950000E94DC04EA94EE20C1F743CEF3016681E5
:100960007781CB012B96E2E10C94CE2BFC01059014
:10097000615070400110D8F7809590958E0F9F1FA1
:100980000895FC016150704001900110D8F78095E6
:1009900090958E0F9F1F0895DC01FC01672F7191C8
:1009A0007723E1F7329704C07C916D937083629155
:1009B000AE17BF07C8F308950F931F93CF93DF932C
:1009C0008C01EB018B8181FF1BC082FF0DC02E814A
:1009D0003F818C819D812817390764F4E881F98172
:1009E0000193F983E88306C0E885F985802F19957E
:1009F000892B31F48E819F8101969F838E8302C063
:100A00000FEF1FEFC801DF91CF911F910F91089554
:100A1000FA01AA27283051F1203181F1E8946F932F
:100A20006E7F6E5F7F4F8F4F9F4FAF4FB1E03ED0D5
:100A3000B4E03CD0670F781F891F9A1FA11D680F73
:100A4000791F8A1F911DA11D6A0F711D811D911DA6
:100A5000A11D20D009F468943F912AE0269F11241B
:100A60003019305D3193DEF6CF010895462F47707F
:100A7000405D4193B3E00FD0C9F7F6CF462F4F70DA
:100A8000405D4A3318F0495D31FD4052419302D038
:100A9000A9F7EACFB4E0A6959795879577956795DE
:100AA000BA95C9F700976105710508959B01AC01DE
:100AB0000A2E06945795479537952795BA95C9F705
:100AC000620F731F841F951FA01D08950F931F931E
:100AD0000AE815E0C8016FED77E04AE00E949E1D2C
:100AE00080E995E0B8010E94EE1B10926206109218
:100AF00061061092630681E0809364061092660698
:100B0000109265061F910F9108950F931F930AE5A8
:100B100019E0C80160E072E00E94EF2580E995E0ED
:100B200068E873E10E94940CC8016FE072E00E94D3
:100B3000EF251F910F910895CF92DF92EF92FF92D0
:100B40000F931F93DF93CF93CDB7DEB7C357D0403A
:100B50000FB6F894DEBF0FBECDBF8AE599E040E83E
:100B600055E260E070E026E030E00E94282187EF47
:100B700099E040E855E260E070E026E030E00E9455
:100B800028218AE599E064E272E00E94EF2587EF70
:100B900099E00E949521892BD1F38E010C5C1F4FA7
:100BA00087EF99E06AE0A80120E430E00E942E2659
:100BB000C80166E472E045E050E00E942C02009714
:100BC00009F06DC087EF99E06CE472E00E94EF25B8
:100BD00087EF99E00E949521892BD1F38E010C5C5F
:100BE0001F4F87EF99E06AE0A80120E430E00E94FF
:100BF0002E266E010894C11CD11CC601B8010E94AA
:100C000088278E01095F1F4FC801B60140E050E000
:100C100028E030E00E94EB2780E995E0B8010E94CF
:100C2000F307C8010E9453288E01035F1F4FC801BC
:100C3000B60149E050E02DE130E00E94EB2780E969
:100C400095E0B8010E94FD07C8010E94532883E186
:100C5000E82EF12CEC0EFD1EC701B6014EE150E06E
:100C600027E230E00E94EB278E01055D1F4FC70190
:100C7000B80149E050E020E030E00E9463261BAA62
:100C8000C8010E94FC01AB01BC0180E995E00E9413
:100C9000AB06C7010E945328C6010E94532880E971
:100CA00095E00E942F088AE599E064E572E00E94D1
:100CB000EC258E01075E1F4FC80160E975E00E94B8
:100CC000B4068AE599E0B8010E94E624C8010E94B2
:100CD00053288AE599E06EE572E00E94EC258E01CA
:100CE000015E1F4FC80160E975E00E94BF068AE5FA
:100CF00099E0B8010E94E624C8010E9453288AE5C1
:100D000099E069E672E00E94EC258E010B5D1F4FB1
:100D1000C80160E975E00E94E1078AE599E0B80141
:100D20000E94E624C8010E9453288AE599E06EE7F4
:100D300072E00E94EF25CD58DF4F0FB6F894DEBF6A
:100D40000FBECDBFCF91DF911F910F91FF90EF901C
:100D5000DF90CF90089540935F07509360076093B2
:100D600061077093620708950F931F938C0162E9E6
:100D700077E00E948827C8011F910F9108950F9373
:100D80001F938C0166E976E00E948827C8011F91B5
:100D90000F9108958130910509F041C06F5F7F4F39
:100DA00009F066C08BE696E060E872E00E94882752
:100DB00081E796E060E872E00E94882787E796E086
:100DC00060E872E00E94882785E297E00E9481181F
:100DD00085E697E060E872E00E9488278BE697E05E
:100DE00060E872E00E94882781E797E060E872E09F
:100DF0000E94882787E797E060E872E00E948827D2
:100E00008DE797E060E872E00E94882780EC97E029
:100E100064E275E04AE050E00E94CF170895892B04
:100E200039F56F5F7F4F21F58DE797E00E945328DA
:100E300087E797E00E94532881E797E00E945328B4
:100E40008BE697E00E94532885E697E00E9453289E
:100E500085E297E00E94981887E796E00E94532861
:100E600081E796E00E9453288BE696E00E94532883
:100E7000089580E090E06FEF7FEF0E94CA0608952A
:100E800081E090E06FEF7FEF0E94CA0608950F9314
:100E9000CF93DF93FA01E9016530710509F443C08E
:100EA00066307105B4F46230710599F163307105F3
:100EB00044F46115710529F16130710509F06DC0C7
:100EC00026C06330710539F16430710509F065C0E1
:100ED00026C06830710509F447C06930710544F4D3
:100EE0006630710579F16730710509F056C02EC082
:100EF0006930710509F447C06A30710509F04DC0C9
:100F000046C080E9808311820E5F088346C08AE66E
:100F100007C08AE601C085E6808381E83BC082E69F
:100F2000808382E837C086E6808387E78183DA01A1
:100F30001296E2E9F7E089E001900D928150E1F725
:100F40008BE02AC082E2808383E324C083E3808332
:100F500084E48183DA011296EBE9F7E08BE10190FA
:100F60000D928150E1F70DC084E4808385E5818393
:100F7000DA011296EBE9F7E08BE101900D928150D6
:100F8000E1F78EE109C085E5808386E603C081EB49
:100F9000808382EB818382E08883DF91CF910F9100
:100FA0000895FC014F3751055CF4EF5AFF4F852F30
:100FB000992787FD9A9581934193CF010E94390229
:100FC00008950F931F938C0140915F075091600724
:100FD00060916107709162072AE00E94BA27C801F8
:100FE0001F910F910895CB0162E977E049E050E04D
:100FF00020E030E00E94632608950F931F93DF9353
:10100000CF93CDB7DEB76F970FB6F894DEBF0FBEA4
:10101000CDBFCB0166E976E045E150E020E030E06D
:101020000E9463268E010F5F1F4FC80166E976E0BC
:1010300044E150E00E94CF17A0ECB7E0F8018FE147
:1010400001900D928150E1F76F960FB6F894DEBFD4
:101050000FBECDBFCF91DF911F910F910895CF9219
:10106000DF92EF92FF920F931F93DF93CF93CDB751
:10107000DEB7C254D0400FB6F894DEBF0FBECDBF6E
:10108000D82EC92E8E01035F1F4FC8010E94811800
:1010900085E297E0B8010E94A119C8010E94981842
:1010A0007E010894E11CF11CC70161E872E00E9416
:1010B00088278E01095F1F4FC80166E972E00E9410
:1010C000882785E297E0B701A8010E944519C80169
:1010D0000E945328C7010E94532885E297E00E948E
:1010E000561A90932407809323078937910538F087
:1010F0008AE599E068E972E00E94EF25FFCF85E27A
:1011000097E06BEA76E00E94151A40912307509110
:1011100024078D2D9C2D6BEA76E00E94D1078D2D42
:101120009C2D0E94F41B8D2D9C2D0E94121CCE5BC9
:10113000DF4F0FB6F894DEBF0FBECDBFCF91DF916A
:101140001F910F91FF90EF90DF90CF9008950F9334
:101150001F93DF93CF93CDB7DEB7C956D0400FB6FC
:10116000F894DEBF0FBECDBF8AE599E00E949521BD
:10117000181619060CF09EC18E01065D1F4F8AE5F8
:1011800099E06AE0A80120E430E00E942E26C80120
:1011900061EB72E043E050E00E942C02009709F0FE
:1011A000B5C040915F0750916007609161077091F1
:1011B00062074F5F5F4F6F4F7F4F40935F075093C2
:1011C000600760936107709362078E010F5F1F4F86
:1011D000C8012AE00E94BA27C80167EB77E049E01E
:1011E00050E020E030E00E946326C8010E945328AE
:1011F000ABE9B7E0FE01BE9684E101900D9281500B
:10120000E1F7AEEAB7E0E7EBF7E089E001900D9295
:101210008150E1F7DE015396EBE9F7E085E00190BC
:101220000D928150E1F7DE015F96E1EAF7E08AE096
:1012300001900D928150E1F787EF99E065EB72E044
:101240000E94EC2587EF99E0BE01615E7F4F0E940E
:10125000EC2587EF99E06AEC72E00E94EC258E01A4
:10126000095F1F4F40915F075091600760916107D0
:1012700070916207C8012AE00E94BA2787EF99E0BF
:10128000B8010E94E624C8010E94532887EF99E024
:1012900067EF72E00E94EC2587EF99E062E977E062
:1012A0000E94EC2587EF99E068E073E00E94EC254E
:1012B00087EF99E06BE676E00E94E62487EF99E0FD
:1012C00066E173E00E94EC2587EF99E0BE016D5E58
:1012D0007F4F0E94EC2587EF99E064E273E00E9463
:1012E000EC258AE599E067E273E00E94EC258AE547
:1012F00099E06BE977E00E94EC258AE599E066E3E6
:1013000073E00E94EF2585E090E0BEC0C80168E36D
:1013100073E043E050E00E942C02009709F0BAC04D
:1013200040915F075091600760916107709162077B
:101330004F5F5F4F6F4F7F4F40935F075093600742
:1013400060936107709362078E01035F1F4FC801AE
:101350002AE00E94BA27C80167EB77E049E050E035
:1013600020E030E00E946326C8010E945328ABE9C8
:10137000B7E0FE01BE9684E101900D928150E1F745
:10138000AEEAB7E0E7EBF7E089E001900D9281501B
:10139000E1F7DE015396EBE9F7E085E001900D926D
:1013A0008150E1F7DE015F96E1EAF7E08AE0019023
:1013B0000D928150E1F787EF99E065EB72E00E94B2
:1013C000EC2587EF99E0BE01615E7F4F0E94EC251E
:1013D00087EF99E06CE373E00E94EC258E01075ED5
:1013E0001F4F40915F0750916007609161077091B6
:1013F0006207C8012AE00E94BA2787EF99E0B80186
:101400000E94E624C8010E94532887EF99E067EF05
:1014100072E00E94EC2587EF99E062E977E00E9494
:10142000EC2587EF99E068E073E00E94EC2587EFF8
:1014300099E06BE676E00E94E62487EF99E069E6A2
:1014400073E00E94EC2587EF99E0BE016D5E7F4F4F
:101450000E94EC2587EF99E064E273E00E94EC259E
:101460008AE599E067E773E00E94EC258AE599E058
:101470006BE977E00E94EC258AE599E066E373E08A
:101480000E94EF2586E090E090936A0680936906BB
:1014900081E011C0C80166E873E043E050E00E94BB
:1014A0002C02009739F08AE599E060E973E00E9428
:1014B000EF25EECF80E0C759DF4F0FB6F894DEBFBF
:1014C0000FBECDBFCF91DF911F910F910895EF9285
:1014D000FF920F931F93DF93CF9300D000D0CDB72F
:1014E000DEB78B016DE776E046E050E020E030E0CB
:1014F0000E9463261092820640915F075091600718
:1015000060916107709162077E010894E11CF11CF3
:10151000C7012AE00E94BA27C801B7010E944D27DF
:10152000C7010E945328C80163E876E043E150E018
:1015300020E030E00E9463261092950626960FB6B2
:10154000F894DEBF0FBECDBFCF91DF911F910F91F9
:10155000FF90EF900895AF92BF92CF92DF92EF92FB
:10156000FF920F931F93DF93CF93CDB7DEB7AF9763
:101570000FB6F894DEBF0FBECDBF6C01FC01248115
:101580003581255030408E010F5F1F4FC801B601D5
:1015900040E050E00E94EB27C80160E30E94392739
:1015A00035E2E32EF12CEC0EFD1EC801B7014BE035
:1015B00050E020E030E00E9463261FA6C7010E9491
:1015C000FC01AB01BC0140935B0750935C07609347
:1015D0005D0770935E0780EC97E00E94D517BC0111
:1015E00027E0A22EB12CAC0EBD1EC5010E945602F2
:1015F00040915B0750915C0760915D0770915E07B9
:101600004A5050406040704080EC97E00E94D517EF
:10161000BC018E010F5E1F4FC8010E94560240910F
:101620005B0750915C0760915D0770915E07465FB4
:101630005F4F6F4F7F4F80EC97E00E94D517BC0142
:101640009BE1E92EF12CEC0EFD1EC7010E94560213
:1016500062E370E080E090E00E942029C80168E821
:1016600077E00E944D02009771F0C50168E877E0CD
:101670000E944D02009739F0C70168E877E00E94A8
:101680004D02009719F482E090E002C088E090E0FB
:1016900090936A06809369068DE797E0B6010E94F1
:1016A0003228CE0101960E945328AF960FB6F894C7
:1016B000DEBF0FBECDBFCF91DF911F910F91FF9085
:1016C000EF90DF90CF90BF90AF900895EF92FF9290
:1016D0000F931F93DF93CF93CDB7DEB76E970FB6FF
:1016E000F894DEBF0FBECDBF8AE599E00E94952138
:1016F00018161906ECF024C08AE599E00E94DC2156
:10170000082F80918407882319F485E697E002C0AA
:101710008BE697E0602F0E9439270A3319F4109363
:10172000840707C00B3329F481E08093830708C046
:1017300011E08AE599E00E94952118161906E4F255
:1017400080918307882309F4E2C085E697E06CE97D
:1017500073E00E94B326882381F08BE697E068EA65
:1017600073E00E94B326882309F4B8C081E090E0BA
:101770009093680680936706B1C085E697E06CEAAF
:1017800073E00E94B326882329F08BE697E068EA8D
:1017900073E0A2C085E697E068E373E00E94B32699
:1017A0008823C9F180915F0790916007A09161073C
:1017B000B09162070196A11DB11D80935F079093C0
:1017C0006007A0936107B09362077E010894E11C53
:1017D000F11CC7016BE677E040E050E025E030E027
:1017E0000E94EB278E01095F1F4FC8016BE677E06F
:1017F00046E050E020E130E00E94EB27C701B8014D
:101800000E94670AC8010E945328C7010E945328FA
:1018100086E090E041C085E697E061EB72E00E94CF
:10182000B3268823F1F180915F0790916007A09122
:101830006107B09162070196A11DB11D80935F07FA
:1018400090936007A0936107B09362074DE0E42E88
:10185000F12CEC0EFD1EC7016BE677E040E050E096
:1018600025E030E00E94EB278E010D5E1F4FC8017E
:101870006BE677E046E050E020E130E00E94EB27A5
:10188000C701B8010E94670AC8010E945328C70116
:101890000E94532885E090E090936A068093690641
:1018A0001DC085E697E066E873E00E94B3268823B2
:1018B00079F08E01075E1F4FC8016BE677E00E944A
:1018C0004928C8010E94AB0AC8010E94532806C0DB
:1018D00085E697E066EB73E00E94B32685E697E025
:1018E00060E872E00E94A1278BE697E060E872E072
:1018F0000E94A12781E797E060E872E00E94A1279B
:1019000010928407109285071092830781E06E96EB
:101910000FB6F894DEBF0FBECDBFCF91DF911F9100
:101920000F91FF90EF9008952F923F924F925F9208
:101930006F927F928F929F92AF92BF92CF92DF92DF
:10194000EF92FF920F931F93DF93CF93CDB7DEB744
:10195000C85ED0400FB6F894DEBF0FBECDBF6C019D
:101960008B01109264071092630784E090E09093DB
:101970002305809322051092870781E796E060ECAB
:1019800073E00E94A1278BE696E060E872E00E9477
:10199000A12710928607DE01DD9686E2FD011192F5
:1019A0008A95E9F78CE88DAF85E08EAF84E08FAF44
:1019B00080E2FE01EC5BFF4F808321ED30E0C20E40
:1019C000D31EF601808191812FE23FEFC20ED31E1C
:1019D000009739F01496FC0183E001900D9281503C
:1019E000E1F7CD51DF4FC882C35ED040CC51DF4F0D
:1019F000D882C45ED040C601BE01635C7F4F46E220
:101A000098010E94541C813041F08AE599E064EC11
:101A100073E00E94EF2580E031C38AE599E061EE32
:101A200073E00E94EF25DE015A96E7E4F5E08FE0CF
:101A300001900D928150E1F784ED90E0C80ED91E1F
:101A4000F60180812CE23FEFC20ED31E882311F4F1
:101A50008FEF88A783ED90E0C80ED91EF6011082A3
:101A60002DE23FEFC20ED31E44245524E3E6AE2EF2
:101A7000B12CAC0EBD1E4E010894811C911CC501F9
:101A80000396CB51DF4F99838883C55ED040F50123
:101A90003596C951DF4FF983E883C75ED04072E0C5
:101AA000672E712C6C0E7D1ECD51DF4F8881C35E79
:101AB000D040CC51DF4F9881C45ED040B50140E8A2
:101AC0000E94951CF50192812381E48081818034FC
:101AD00009F4E3C1813438F4803209F4B9C08033A9
:101AE00009F065C2F0C0843A21F0803B09F05FC282
:101AF00071C0992321F0943009F075C227C02C30B1
:101B0000C9F5F2E0EF1609F077C0F5018581813E55
:101B100009F072C086818350823008F06DC0C60122
:101B200060E070E0A501940100E00E944707F50124
:101B30008681833021F461E0462E512C54C28430DA
:101B400009F051C252E0452E512C4DC28EE395E072
:101B5000CB51DF4F68817981C55ED04049E050E0CC
:101B60000E942C02009751F481E090E090936A0665
:101B700080936906C60160E070E022C085E395E0CD
:101B8000CB51DF4F68817981C55ED04049E050E09C
:101B90000E942C020097D1F48AE599E06BEF73E084
:101BA0000E94EF2506C06AE070E080E090E00E94AD
:101BB00020290E94660B8823B1F3C60165E070E01E
:101BC000A501940100E00E9447070DC2C60162E032
:101BD00070E0F6CF392E2224C101820F911D9C01A5
:101BE00091E04916510461F0E2E04E165104A1F073
:101BF0004114510409F0F7C1C60161E070E0E0CF83
:101C00002138310560F40E2D10E08AE190E08C0F50
:101C10009D1F280F391F0DC02138310520F0C60146
:101C200064E070E0CDCF0E2D10E02F5A3F4F2C0D09
:101C30003D1DC501B901402F50E00E9439020A0D37
:101C40001B1DC60160E070E0A80194010E2DBBCF02
:101C5000992309F0C8C1222309F0C5C1C951DF4F3A
:101C6000A881B981C75ED04020E030E00E2D10E0A1
:101C700007C0F901E857F84F8D9180832F5F3F4FE0
:101C800002171307B4F78AE599E06BE074E00E944D
:101C9000EF2506C06AE070E080E090E00E94202915
:101CA0000E94660B8823B1F38091690690916A06C1
:101CB0008230910509F45ECF089709F094C1C601FE
:101CC0006AE070E07DCF992309F08DC1222309F0ED
:101CD0008AC1C951DF4F48815981C75ED04020E099
:101CE00030E0AE2DB0E00DC069E270E06C0F7D1FFA
:101CF000620F731FFA018191AF01FB0180832F5F97
:101D00003F4FA217B30784F729E230E02C0F3D1FA5
:101D1000A20FB31F1C92C301B9010E948827C301FF
:101D20006CE20E94AE268C01C3016BE30E94AE26DA
:101D30007C0101501040CE010896B30140E050E014
:101D400098010E94EB278BE696E0BE01685F7F4F0B
:101D50000E943228CE0108960E9453280E5F1F4F22
:101D6000CE010E96B301A80197010E94EB2781E7EF
:101D700096E0BE01625F7F4F0E943228CE010E9630
:101D80000E9453288AE599E069E174E00E94EC25FD
:101D90008AE599E0B3010E94E6248AE599E066E3CA
:101DA00073E00E94EF258AE599E06CEA73E00E94F7
:101DB000EC258AE599E061E776E00E94E6248AE571
:101DC00099E066E373E00E94EF2564E670E080E04E
:101DD00090E004C06AE070E080E090E00E9420297A
:101DE0000E94660B8823B1F310926A06109269066E
:101DF000C60160E070E0A501940100E00E94470781
:101E000080918607882309F044C087EF99E065EB4D
:101E100072E00E94EC258E010C5E1F4F40915B0723
:101E200050915C0760915D0770915E07C8012AE0E0
:101E30000E94BA2787EF99E0B8010E94E624C80102
:101E40000E94532887EF99E06EE174E00E94EC2530
:101E500087EF99E062E977E00E94EC2587EF99E04F
:101E600068E073E00E94EC2587EF99E06BE676E08E
:101E70000E94E62487EF99E064E273E00E94EC257B
:101E80008AE599E065E474E00E94EF2581E08093A3
:101E90008607C3010E945328A6C0992309F0A3C056
:101EA000222309F0A0C00E94A708809169069091A2
:101EB0006A068530910501F18630910509F444C028
:101EC000892B09F06DC010926A06109269068AE5A6
:101ED00099E061E574E00E94EF25C60166E070E0DC
:101EE000A501940100E00E94470784E090E09093F0
:101EF00023058093220554C010926A061092690649
:101F00008AE599E066E674E00E94EC258AE599E0AE
:101F10006DE774E00E94EC2540915F0750916007E7
:101F200060916107709162078AE599E02AE030E0EC
:101F30000E94AC258AE599E066E373E00E94EF25F4
:101F4000C60167E070E027C010926A061092690629
:101F50008AE599E06FE874E00E94EC258AE599E053
:101F60006DE774E00E94EC2540915F075091600797
:101F700060916107709162078AE599E02AE030E09C
:101F80000E94AC258AE599E066E373E00E94EF25A4
:101F9000C60168E070E0A501940100E00E944707D7
:101FA00062E370E080E090E00E9420291CC08091F4
:101FB0006307909164070196909364078093630789
:101FC00010E004970CF411E08AE599E065EA74E00A
:101FD0000E94EC25C60162E070E0A501940100E0DA
:101FE0000E94470701C011E08AE599E060EC74E0C7
:101FF0000E94EF25CD51DF4F8881C35ED040CC5188
:10200000DF4F9881C45ED040B501498120E030E0C7
:1020100000E00E94E91C892BA1F48AE599E066EDB5
:1020200074E00E94EF25CD51DF4F8881C35ED04020
:10203000CC51DF4F9881C45ED04060E00E94621DA9
:1020400003C0112309F030CD8AE599E066EF74E012
:102050000E94EF258AE599E06BE075E00E94EF258C
:10206000CD51DF4F8881C35ED040CC51DF4F988186
:10207000C45ED04060E00E94621D81E0C851DF4F25
:102080000FB6F894DEBF0FBECDBFCF91DF911F9189
:102090000F91FF90EF90DF90CF90BF90AF909F9007
:1020A0008F907F906F905F904F903F902F9008950A
:1020B000882319F48CB5806202C08CB58F7D8CBDED
:1020C00008959CB5937F982B9CBD08952CB5382F0F
:1020D00033702C7F322B3CBD2DB590E095958795C4
:1020E0009595879581702E7F822B8DBD089585E310
:1020F00061E00E943B2A85E361E00E9488298CB55B
:1021000080618CBD8CB580648CBD84E361E00E94ED
:10211000882983E361E00E94882908952F923F92E5
:102120004F925F926F927F928F929F92AF92BF92E7
:10213000CF92DF92EF92FF920F931F93DF93CF9393
:10214000CDB7DEB762970FB6F894DEBF0FBECDBF36
:102150008B5B9F4FDC012D913D914D915D912D83C6
:102160003E834F8358872D903D904D905D906D90AC
:102170007D908D909D902D913D914D915D91298304
:102180003A834B835C832D913D914D915C911397E4
:102190002B873C874D875E87A555B040B88BAF87AE
:1021A0001A8619861985103108F469C069857A85FF
:1021B0006F7070706F5F7F4F660F771F660F771FAE
:1021C000EF85F8896E0F7F1FA985BA851D96AF70C0
:1021D000B0701196AA0FBB1FAA0FBB1FAE0FBF1F77
:1021E00089859A8508968F7090700196880F991F3F
:1021F000880F991F8E0F9F1F2D913D914D915C91DE
:10220000FC0180819181A281B381282739274A2747
:102210005B27FB0180819181A281B3812827392727
:102220004A275B27E985FA853296EF70F070319680
:10223000EE0FFF1FEE0FFF1F8F859889E80FF91F24
:1022400080819181A281B381282739274A275B2782
:10225000DA01C901880F991FAA1FBB1F222757FD4A
:102260002395332744275527822B932BA42BB52B5B
:10227000FB0180839183A283B3831431C8F4298145
:102280003A814B815C812625372548255925222115
:1022900033214421552189819A81AB81BC81282732
:1022A00039274A275B27275636484D47554A46C0A7
:1022B000183298F4A401930122253325442555258D
:1022C00089819A81AB81BC81282739274A275B27DE
:1022D0002F5534414642514931C01C33E8F4A40122
:1022E0009301222933294429552989819A81AB8177
:1022F000BC81282339234A235B23D401C3018221D3
:102300009321A421B521282B392B4A2B5B2B245256
:102310003344444E504712C0A40193012225332573
:102320004425552589819A81AB81BC81282739278D
:102330004A275B272A523E434D495543ED80FE8094
:102340000F811885EBE116950795F794E794EA95C8
:10235000D1F78D819E81AF81B88575E0880F991F77
:10236000AA1FBB1F7A95D1F7E82AF92A0A2B1B2B43
:102370008B859C85AD85BE85E80EF91E0A1F1B1F47
:10238000E985FA85EF70F0703196EE0FFF1FEE0FC2
:10239000FF1FAF85B889EA0FFB1F80819181A28161
:1023A000B381E80EF91E0A1F1B1FE20EF31E041F65
:1023B000151F620151019EE1AA0CBB1CCC1CDD1C47
:1023C0009A95D1F782E056944794379427948A954A
:1023D000D1F7A228B328C428D528E985FA853196F3
:1023E000FA87E98729813A814B815C812B873C8779
:1023F0004D875E87B301898A9A8A2D803E804F80FF
:102400005884E035F10589F0C701D8018D839E839A
:10241000AF83B8873501460149895A89CB01DA0172
:1024200089839A83AB83BC83BDCEEF85F889EB5B50
:10243000FF4F80819181A281B381E80EF91E0A1FAE
:102440001B1FE082F182028313836F857889675BAB
:102450007F4FFB0180819181A281B3812D813E81DB
:102460004F815885820F931FA41FB51F80839183CE
:10247000A283B383EF85F889E35BFF4F808191816D
:10248000A281B381A80EB91ECA1EDB1EA082B18232
:10249000C282D382EF85F889EF5AFF4F8081918104
:1024A000A281B381860D971DA81DB91D80839183DC
:1024B000A283B3836F8578896B5A7F4FFB0180813C
:1024C0009181A281B38129813A814B815C81820F04
:1024D000931FA41FB51F80839183A283B383629649
:1024E0000FB6F894DEBF0FBECDBFCF91DF911F9125
:1024F0000F91FF90EF90DF90CF90BF90AF909F90A3
:102500008F907F906F905F904F903F902F900895A5
:10251000CF93DF939C01EC01CC5BDF4F988183E08C
:102520008927F901E80FF11D64839F5F9883903438
:1025300021F4C9010E948E101882DF91CF91089575
:10254000FC01E75AFF4F20813181428153812F5F87
:102550003F4F4F4F5F4F20833183428353830E940D
:10256000881281E090E008950F931F93CF93DF933B
:10257000EC0160E80E9488128E010C5B1F4F04C0C2
:10258000CE0160E00E948812F80180818833C1F793
:10259000CE0160E00E948812CE0160E00E948812A5
:1025A000CE0160E00E9488128E01075A1F4FF80189
:1025B0002081318142815381FDE1569547953795C0
:1025C0002795FA95D1F7CE01622F0E948812F80163
:1025D0002081318142815381E5E1569547953795B8
:1025E0002795EA95D1F7CE01622F0E948812F80153
:1025F00020813181428153817DE056954795379501
:1026000027957A95D1F7CE01622F0E948812F801A2
:10261000208131814281538165E0569547953795F8
:1026200027956A95D1F7CE01622F0E948812F80192
:102630006081660F660F660FCE010E948812DF91DF
:10264000CF911F910F910895EF92FF920F931F93D7
:10265000CF93DF93EC010E94B412FE01EB5BFF4FBE
:1026600060E070E02081318142815381B22FAA273E
:1026700099278827E52EFF2400271127E82AF92A21
:102680000A2B1B2BB42FA32F922F882780709070BA
:10269000B070E82AF92A0A2B1B2B232F342F452F41
:1026A0005527207040705070E22AF32A042B152B16
:1026B000E192F192019311936F5F7F4F6530710545
:1026C00089F69E012B5B3F4FC901DF91CF911F918E
:1026D0000F91FF90EF9008951092E3071092E20798
:1026E0008AE595E09093E1078093E00708950F93C2
:1026F0001F938C018B5B9F4F64EE70E044E150E0D0
:102700000E942302075A1F4FF80110821182128281
:10271000138205511040F80110821F910F91089506
:10272000BF92CF92DF92EF92FF920F931F93CF93BE
:10273000DF93EC013DE9C32ED12CC80ED91E0E94B7
:102740002413D601FC0184E101900D928150E1F740
:10275000CE010E9477138E01035A1F4F2CE5B22E33
:102760009DE9E92EF12CEC0EFD1EE881F981D801DE
:102770006D918D016B250190F081E02DCE011995B1
:102780000E151F0591F7860181EBE82EF12CEC0E5A
:10279000FD1EE881F9810190F081E02DCE01D80184
:1027A0006D918D0119950E151F0599F7CE010E94A7
:1027B0002413DF91CF911F910F91FF90EF90DF9045
:1027C000CF90BF900895CF92DF92EF92FF920F9338
:1027D0001F93CF93DF938C017B01EA016DE5C62E39
:1027E000D12CC80ED91E80E4D6011D928A95E9F736
:1027F00041345105FCF0C8010E9477130BC0F7016A
:1028000061917F01D801ED91FC910190F081E02D63
:10281000C80119952197BFEFCF3FDB0781F7C801AA
:102820000E942413D601FC0184E101900D92815095
:10283000E1F704C0C601B7010E943902C8010E9435
:102840007713E60156E3D52E4DE9E42EF12CE00E88
:10285000F11ED801ED91FC9169916D250190F081F7
:10286000E02DC8011995CE15DF0599F7DF91CF91BD
:102870001F910F91FF90EF90DF90CF9008952F92CE
:102880003F924F925F926F927F928F929F92AF9200
:10289000BF92CF92DF92EF92FF920F931F93DF933D
:1028A000CF93CDB7DEB7A2970FB6F894DEBF0FBEB9
:1028B000CDBF8B5B9F4FDC012D913D914D915D9183
:1028C00029833A834B835C832D913D914D915D919A
:1028D0002D833E834F8358872D913D914D915D917E
:1028E00029873A874B875C876D907D908D909D906E
:1028F0002D913D914D915D912D873E874F87588B4E
:102900002D913D914D915D91298B3A8B4B8B5C8B39
:102910002D913D914D915D91BAA3A9A32D8B3E8B35
:102920004F8B588F8D919D910D90BC91A02DE9A159
:10293000FAA1E156F040FAA3E9A328EF30E03C8F7A
:102940002B8F41E050E05A8F498F0EC1598D503185
:1029500008F4CBC0698D7A8D6F707070E98DFA8D37
:102960003297EF70F0703196EE0FFF1FEE0FFF1FE2
:1029700089A19AA1E80FF91FA080B180C280D380FD
:10298000E98DFA8D3F97EF70F0703196EE0FFF1FD3
:10299000EE0FFF1FE80FF91F608071808280938027
:1029A000E98DFA8D3797EF70F0703196EE0FFF1FBB
:1029B000EE0FFF1FE80FF91F6F5F7F4F660F771F46
:1029C000660F771F680F791FE080F1800281138105
:1029D000FB0180819181A281B381E80EF91E0A1F5B
:1029E0001B1FD601C50121E1B695A795979587953F
:1029F0002A95D1F7A6019501FFE0220F331F441F4E
:102A0000551FFA95D1F7822B932BA42BB52BA6013A
:102A10009501EAE05695479537952795EA95D1F7C0
:102A200082279327A427B527A6019501FDE0220F51
:102A3000331F441F551FFA95D1F7E3E1D694C7948D
:102A4000B794A794EA95D1F72A293B294C295D2907
:102A500082279327A427B527E80EF91E0A1F1B1FFC
:102A6000D401C30127E0B695A795979587952A9538
:102A7000D1F7A4019301F9E1220F331F441F551F21
:102A8000FA95D1F7822B932BA42BB52BA40193019C
:102A9000E3E05695479537952795EA95D1F7822734
:102AA0009327A427B527A4019301FEE0220F331F2B
:102AB000441F551FFA95D1F7E2E1969487947794D5
:102AC0006794EA95D1F72629372948295929822779
:102AD0009327A427B527E80EF91E0A1F1B1FDB0149
:102AE000ED92FD920D931C931397EB8DFC8D349614
:102AF000FC8FEB8F298D3A8D2F5F3F4F3A8F298FB7
:102B00008D899E89AF89B88D29893A894B895C89DD
:102B10002D8B3E8B4F8B588F2D853E854F85588949
:102B2000298B3A8B4B8B5C8B69847A848B849C8455
:102B30002D813E814F81588529873A874B875C8755
:102B400029813A814B815C812D833E834F83588755
:102B500029823A824B825C822D8D3E8D4F8D58A109
:102B60002D873E874F87588B2B8D3C8DF901A59083
:102B7000B590C590D490A80EB91ECA1EDB1E2D8537
:102B80003E854F8558890BE0569547953795279593
:102B90000A95D1F78D859E85AF85B88915E1880F97
:102BA000991FAA1FBB1F1A95D1F7282B392B4A2B27
:102BB0005B2B8D859E85AF85B889F6E0B695A79588
:102BC00097958795FA95D1F7ED84FE840F8518893E
:102BD000EAE1EE0CFF1C001F111FEA95D1F78E29C8
:102BE0009F29A02BB12B282739274A275B278D85C2
:102BF0009E85AF85B88979E1B695A7959795879514
:102C00007A95D1F7ED84FE840F85188967E0EE0C84
:102C1000FF1C001F111F6A95D1F78E299F29A02B39
:102C2000B12B282739274A275B27A20EB31EC41EC3
:102C3000D51E89899A89AB89BC892D893E894F899E
:102C4000588D82279327A427B5272D853E854F854C
:102C5000588982239323A423B5232D893E894F8944
:102C6000588D82279327A427B527A80EB91ECA1E00
:102C7000DB1EE98DFA8D3197EF70F0703196EE0F13
:102C8000FF1FEE0FFF1F49A15AA1E40FF51F80811E
:102C90009181A281B381A80EB91ECA1EDB1EE980F4
:102CA000FA800B811C813DE016950795F794E79417
:102CB0003A95D1F789819A81AB81BC8123E1880F54
:102CC000991FAA1FBB1F2A95D1F7E82AF92A0A2BB8
:102CD0001B2B89819A81AB81BC81F2E0B695A795C7
:102CE00097958795FA95D1F729813A814B815C8137
:102CF000EEE1220F331F441F551FEA95D1F7822BB7
:102D0000932BA42BB52BE826F9260A271B278981AC
:102D10009A81AB81BC8176E1B695A7959795879509
:102D20007A95D1F729813A814B815C816AE0220F43
:102D3000331F441F551F6A95D1F7822B932BA42B69
:102D4000B52BE826F9260A271B27D601C501860DD3
:102D5000971DA81DB91D8D8F9E8FAF8FB8A32D8095
:102D60003E804F80588429853A854B855C85222A90
:102D7000332A442A552A89819A81AB81BC81282231
:102D800039224A225B228D819E81AF81B8858223C0
:102D90009323A423B523282A392A4A2A5B2A2E0CF6
:102DA0003F1C401E511E2A0C3B1C4C1C5D1CAB8D55
:102DB000BC8DA45FB14009F0C9CDE9A1FAA1EB5BDC
:102DC000FF4F80819181A281B381280E391E4A1E56
:102DD0005B1E208231824282538269A17AA1675BA5
:102DE0007F4FFB0180819181A281B38129813A814A
:102DF0004B815C81820F931FA41FB51F8083918339
:102E0000A283B38369A17AA1635B7F4FFB018081B9
:102E10009181A281B3812D813E814F815885820F9E
:102E2000931FA41FB51F80839183A283B38369A1DD
:102E30007AA16F5A7F4FFB0180819181A281B3817A
:102E400029853A854B855C85820F931FA41FB51F8A
:102E500080839183A283B383E9A1FAA1EB5AFF4F48
:102E600060807180828093802D8D3E8D4F8D58A122
:102E7000260D371D481D591D2083318342835383FE
:102E800069A17AA1675A7F4FFB0180819181A2815C
:102E9000B3812D853E854F855889820F931FA41FCE
:102EA000B51F80839183A283B38369A17AA1635AFA
:102EB0007F4FFB0180819181A281B38129893A8969
:102EC0004B895C89820F931FA41FB51F8083918358
:102ED000A283B38369A17AA16F597F4FFB018081DF
:102EE0009181A281B3812D893E894F89588D820FAE
:102EF000931FA41FB51F80839183A283B383A296DF
:102F00000FB6F894DEBF0FBECDBFCF91DF911F91FA
:102F10000F91FF90EF90DF90CF90BF90AF909F9078
:102F20008F907F906F905F904F903F902F9008957B
:102F3000CF93DF939C01EC01CC5BDF4F988183E062
:102F40008927F901E80FF11D64839F5F988390340E
:102F500021F4C9010E943F141882DF91CF91089596
:102F6000FC01EB59FF4F20813181428153812F5F5A
:102F70003F4F4F4F5F4F20833183428353830E94E3
:102F8000981781E090E008951092940810929308A9
:102F900082E695E090939208809391080895FC0151
:102FA000718360835383428308950F931F93CF935C
:102FB000DF93EC01CB01BA012EE130E040E050E0BC
:102FC0000E94912B2C833D834E835F831886198644
:102FD0001A861B86852F9927AA27BB278C87CA01AB
:102FE000BB2797FDB095AB2F8D87BB2757FDBA95B3
:102FF000A52F942F832F8E872F87688179814A810F
:103000005B8180EE97E00E94E313BE01685F7F4F13
:1030100080EE97E048E050E00E94992480EE97E02F
:103020000E949013FC01998B888B838990E08F70AC
:1030300090709B8B8A8B1C8A1D8A1E8A1F8A60E077
:1030400070E08C899D89AE89BF89BA2FA92F982FEE
:1030500088278C8B9D8BAE8BBF8BE889F989E60F17
:10306000F71F2A893B89E20FF31F208130E040E0FF
:1030700050E0282B392B4A2B5B2B2C8B3D8B4E8B16
:103080005F8B6F5F7F4F64307105D9F65F77CA0140
:10309000B90120E432E44FE050E00E94912B6C8BA8
:1030A0007D8B8E8B9F8B8E01085E1F4F2DB73EB799
:1030B000285030400FB6F8943EBF0FBE2DBFEDB77D
:1030C000FEB73196ADB7BEB712961C930E9311970B
:1030D0002BE135E033832283648375838683978372
:1030E0000E94B5022DB73EB7285F3F4F0FB6F89448
:1030F0003EBF0FBE2DBFC801DF91CF911F910F9131
:1031000008950F931F938C010E94851AC8010D9694
:103110000E94851AC8014A960E94851AC80187969E
:103120000E94851AF80115AA14AA1F910F910895FB
:103130000F931F93CF93DF938C01009751F0EC0115
:10314000E496C017D10729F02D97CE010E94B31A3B
:10315000F8CFDF91CF911F910F910895CF93DF9317
:10316000EC012CA93DA924303105A8F48DE090E0B4
:10317000AC01249FC001259F900D349F900D112418
:103180008C0F9D1F0E948A1B8CA99DA901969DAB47
:103190008CAB81E007C08AE599E066E372E00E94AB
:1031A000182580E0DF91CF9108954F925F926F9242
:1031B0007F928F929F92AF92BF92CF92DF92EF92C7
:1031C000FF920F931F93DF93CF93CDB7DEB72D9769
:1031D0000FB6F894DEBF0FBECDBF3C016B015A01A4
:1031E00049014DB65EB67E010894E11CF11CC70191
:1031F0000E94851AC70162E00E94B01AF60144815C
:1032000055814F5F5F4F8DB79EB7841B950B0FB6EF
:10321000F8949EBF0FBE8DBF0DB71EB70F5F1F4F37
:10322000C601B80120E030E00E946326F601448127
:103230005581C701B8010E94F91AC701B501A4015F
:103240000E94D11AC301B7010E94AE18C7010E94A3
:10325000B31A0FB6F8945EBE0FBE4DBE2D960FB6D4
:10326000F894DEBF0FBECDBFCF91DF911F910F91BC
:10327000FF90EF90DF90CF90BF90AF909F908F9096
:103280007F906F905F904F9008956F927F928F9292
:103290009F92AF92BF92CF92DF92EF92FF920F93E5
:1032A0001F93DF93CF9300D000D0CDB7DEB74C0192
:1032B0005B016A016DB67EB6FA01448155814F5FAC
:1032C0005F4F8DB79EB7841B950B0FB6F8949EBFCA
:1032D0000FBE8DBFEDB6FEB60894E11CF11CC60111
:1032E000B70120E030E00E9463268E010F5F1F4F80
:1032F000C801B5010E944928F60124813581C40125
:10330000B801A7010E94D518C8010E9453280FB622
:10331000F8947EBE0FBE6DBE26960FB6F894DEBF43
:103320000FBECDBFCF91DF911F910F91FF90EF9016
:10333000DF90CF90BF90AF909F908F907F906F90D5
:1033400008958F929F92AF92BF92CF92DF92EF92A9
:10335000FF920F931F93DF93CF93CDB7DEB72D97D7
:103360000FB6F894DEBF0FBECDBF7C015B018617A0
:10337000970709F446C000E010E06E010894C11CF4
:10338000D11C4DE0842E912C14C0C6010E94851AD8
:10339000089DC001099D900D189D900D11248E0D62
:1033A0009F1DB6010E948A1BC6010E94B31A0F5FBF
:1033B0001F4FF70184A995A90817190730F3F501E4
:1033C00084A995A9F70195AB84AB00E010E03DE03E
:1033D000C32ED12C10C00C9DC0010D9D900D1C9DC5
:1033E000900D1124B501680F791F8E0D9F1D0E944D
:1033F0008A1B0F5F1F4FF70184A995A908171907AA
:1034000050F3C7012D960FB6F894DEBF0FBECDBFA7
:10341000CF91DF911F910F91FF90EF90DF90CF90B0
:10342000BF90AF909F908F900895AF92BF92CF9230
:10343000DF92EF92FF920F931F93CF93DF936C0174
:103440007B0100E010E07DE0A72EB12C1EC00A9D9C
:10345000E0010B9DD00D1A9DD00D1124CC0DDD1D6A
:1034600040E00115110509F441E00F5F1F4F20E016
:103470000817190709F421E0CE01B7010E94211BAA
:10348000CE010E94941AE80EF91EF60184A995A9AE
:1034900008171907E0F2DF91CF911F910F91FF906C
:1034A000EF90DF90CF90BF90AF900895CF92DF92D2
:1034B000EF92FF920F931F93CF93DF937C0100E075
:1034C00010E0C0E0D0E0EDE0CE2ED12C0EC0CC9DBF
:1034D000C001CD9D900DDC9D900D11248E0D9F1D82
:1034E0000E94941A080F191F2196F70184A995A923
:1034F000C817D90760F3C801DF91CF911F910F91D1
:10350000FF90EF90DF90CF900895FC01108212821F
:1035100011821482138216821582108617821286F7
:103520001186148613860895FC01638174816F3FB0
:10353000710509F01CF483E090E002C086E090E0A1
:10354000458156814115510509F00196218132814D
:10355000240F351F260F371F280F391FC901089563
:10356000FC0160830895CF93DF93EC0189819A81F8
:10357000892B21F08F8198850E9422208B819C814C
:10358000892B21F089859A850E9422208D819E8138
:10359000892B21F08B859C850E942220DF91CF9181
:1035A0000895EF92FF920F931F93CF93DF93EC0157
:1035B000F62EE72E142F052F8B819C81892B21F06D
:1035C00089859A850E942220812F902F0E94851F35
:1035D00089879A876F2D7E2D412F502F0E943902A7
:1035E0001B830C83DF91CF911F910F91FF90EF9080
:1035F0000895EF92FF920F931F93CF93DF93EC0107
:10360000F62EE72E142F052F89819A81892B21F020
:103610008F8198850E942220812F902F0E94851FE4
:103620008F8398876F2D7E2D412F502F0E94390256
:1036300019830A83DF91CF911F910F91FF90EF9033
:103640000895EF92FF920F931F93CF93DF93EC01B6
:103650008B018881682F70E04111606821116064DE
:103660008B819C818F3F910509F00CF460618D8105
:103670009E81892B09F06860F80161938981D801E6
:1036800011968C93DF0111968B819C818F3F910560
:1036900009F02CF481838D010F5F1F4F0DC0118243
:1036A00011961C9211978C8112968C9312978B8194
:1036B00013968C930A5F1F4F8D819E81009719F09E
:1036C000F80181938F016F81788549815A81C80102
:1036D0000E943902E980FA80E00EF11E69857A8540
:1036E0004B815C81C7010E9439022B813C81ED81B5
:1036F000FE81309741F02E0D3F1D6B857C85C90101
:10370000AF010E943902DF91CF911F910F91FF907D
:10371000EF9008950F931F93CF93DF93EC018B01EC
:103720008617970709F454C089819A81892B21F063
:103730008F8198850E9422208B819C81892B21F08A
:1037400089859A850E9422208D819E81892B21F076
:103750008B859C850E942220F801808188832181AD
:1037600032813A832983838194819C838B838581F1
:1037700096819E838D832115310561F0C9010E94D8
:10378000851F8F839887F8016781708549815A81E9
:103790000E9439028B819C81009759F00E94851FFD
:1037A00089879A87F801618572854B815C810E94C7
:1037B00039028D819E81009759F00E94851F8B8769
:1037C0009C87F801638574854D815E810E94390272
:1037D000CE01DF91CF911F910F910895FC01E15B24
:1037E000FF4F7183608308950F931F938C01015BDA
:1037F0001F4FF801A081B181ED91FC9111970190CB
:10380000F081E02DCD011995F801A081B181ED91F4
:10381000FC9111970280F381E02DCD0119951F9144
:103820000F910895EF92FF920F93CF93DF93FC01D6
:1038300094E1978781E0808B918B828BEF01C15B54
:10384000DF4FA881B9814FE0E42EF12CEE0EFF1E70
:10385000ED91FC9111970480F581E02DCD01B70128
:1038600044E020E030E000E01995882311F020E0EA
:1038700014C0E881F981A081B18116960D90BC91A8
:10388000A02DCF01B70140E420E030E0FD01199503
:1038900020E0181619060CF421E0822FDF91CF9159
:1038A0000F91FF90EF900895CF92DF92EF92FF92E9
:1038B0000F93CF93DF93EC016901AFE4EA2EF12C73
:1038C000E80EF91EF701A081B181ED91FC911197ED
:1038D0000480F581E02DCD0120E030E000E0199575
:1038E00087FF02C08FEF19C0D701ED91FC91A08135
:1038F000B1812F9616960D90BC91A02DCF01BE01DF
:1039000040E49601FD011995181614F481E005C0F4
:103910008E3F11F08EEF01C080E0DF91CF910F91CB
:10392000FF90EF90DF90CF900895EF92FF920F936A
:103930001F93CF93DF93EB01142F26E82883BFE476
:10394000EB2EF12CE80EF91EF701A081B181ED916B
:10395000FC9111970480F581E02DCD0141E020E03C
:1039600030E000E01995882319F02FEF3FEF29C0D0
:10397000D701ED91FC91A081B18116960D90BC917B
:10398000A02DCF01BE01412F20ED37E0FD0119959B
:103990009C0118161906ACF4215030408881882308
:1039A00019F02BEF3FEF0DC040E006C0FE01E80F1D
:1039B000F91F818180834F5F842F90E082179307E6
:1039C000A8F3C901DF91CF911F910F91FF90EF9064
:1039D0000895EF92FF920F93CF93DF93EC017B0159
:1039E000542F4034E8F0232B09F063C0BC01615F21
:1039F0007F4FE616F70609F45CC08EE88F87C15B3F
:103A0000DF4FA881B981CF54D040ED91FC9111973F
:103A10000480F581E02DCD0141E09701052F28C0FC
:103A20004150842F992787FD9095DB01A80FB91F7E
:103A3000FC017096EC0FFD1F05C08C9180834150F6
:103A40001197319747FFF9CF8EE88F87C15BDF4F22
:103A5000A881B981CF54D040ED91FC911197BE015E
:103A6000615F7F4F5F5F0480F581E02DCD01452FC1
:103A700019958823F1F4C15BDF4FA881B981CF5438
:103A8000D040ED91FC911197BE01615F7F4F0680A0
:103A9000F781E02DCD0140E428EB3BE0199597FD3F
:103AA00008C020E030E08F85882329F421E030E051
:103AB00002C020E030E0C901DF91CF910F91FF906B
:103AC000EF900895EF92FF920F93CF93DF93FC0155
:103AD00082E58787608BEF01C15BDF4FA881B981E9
:103AE0000FE0E02EF12CEE0EFF1EED91FC911197F0
:103AF0000480F581E02DCD01B70142E020E030E007
:103B000000E01995882319F020E030E010C0E8812A
:103B1000F981A081B18116960D90BC91A02DCF01A5
:103B2000B70140E420E030E0FD0119959C01C90196
:103B3000DF91CF910F91FF90EF900895FC018AE6FD
:103B400095E0918380831582738362834483089513
:103B50001F93CF93DF93EC018C8160E00E943B2A9E
:103B600082E08EBD0DB407FEFDCF8EB51EBC0DB438
:103B700007FEFDCF1EB58C8161E00E943B2A812F9C
:103B80008170DF91CF911F910895CF92DF92EF92D4
:103B9000FF920F931F93CF93DF93EC01F62EE72E46
:103BA000142FD22EC32E8C8160E00E943B2A62E04B
:103BB00070E080E090E00E94202981E08EBD0DB48D
:103BC00007FEFDCF8EB51EBC0DB407FEFDCF8EB532
:103BD0001EBC0DB407FEFDCF8EB58FEF8EBD0DB4AC
:103BE00007FEFDCF8EB51F5F812F800F11508EBD58
:103BF0000DB407FEFDCF9EB581958EBD0DB407FEB9
:103C0000FDCF8EB584ED8EBD0DB407FEFDCF8EB514
:103C10008F2D9E2D9C01F90144ED80E009C090811B
:103C20009EBD0DB407FEFDCF2EB5490F8F5F3196B7
:103C30008117A8F38D2D9C2D9C01F90180E009C00E
:103C400090819EBD0DB407FEFDCF2EB5490F8F5F4D
:103C500031968017A8F341954EBD0DB407FEFDCFF8
:103C60008EB51EBC0DB407FEFDCF8EB58C8161E014
:103C70000E943B2ADF91CF911F910F91FF90EF900F
:103C8000DF90CF900895BF92CF92DF92EF92FF9294
:103C90000F931F93CF93DF937C01C62EB72ED42EA4
:103CA0008901C0E0D0E010C061E070E080E090E009
:103CB0000E94202921960115110531F00C171D07CE
:103CC00018F4CEEFDFEF83C0C7010E94A81D882340
:103CD00059F3F701848160E00E943B2A61E070E0C3
:103CE00080E090E00E94202983E08EBD0DB407FEA5
:103CF000FDCF8EB51EBC0DB407FEFDCF8EB588235B
:103D000009F05EC01EBC0DB407FEFDCF8EB5882342
:103D100009F056C01EBC0DB407FEFDCF8EB58F3F17
:103D200009F04EC05FC00DB407FEFDCF3EB51EBC0E
:103D30000DB407FEFDCF8EB5830F09F041C0F7012A
:103D400025811EBC0DB407FEFDCF8EB5853DC1F5A6
:103D50001EBC0DB407FEFDCF922F9F5F8EB5981746
:103D600079F542C01EBC0DB407FEFDCF8EB51EBC5A
:103D70000DB407FEFDCF8EB5CCEFDFEF23C0422F91
:103D80004A528C2D9B2D9C01F90190E008C01EBC6D
:103D90000DB407FEFDCF8EB58193480F9F5F951739
:103DA000B0F31EBC0DB407FEFDCF8EB5480F41F435
:103DB0001EBC0DB407FEFDCF8EB5C52FD0E002C0EE
:103DC000CDEFDFEFF701848161E00E943B2ACE0155
:103DD000DF91CF911F910F91FF90EF90DF90CF90E7
:103DE000BF9008951EBC9FCF532F5250D51608F494
:103DF000B9CFC5CF0F931F938C01FC01848160E084
:103E00000E943B2A62E070E080E090E00E9420295E
:103E1000F801848161E00E943B2A1F910F9108956F
:103E20000F931F93DF93CF9300D000D0CDB7DEB7B1
:103E30008C01FC01848160E00E943B2A61E070E01B
:103E400080E090E00E94202983E08EBD0DB407FE43
:103E5000FDCF8EB5FE0131969E01295F3F4F1EBCFE
:103E60000DB407FEFDCF8EB58193E217F307B9F7C6
:103E7000F801848161E00E943B2ACE01019662E74D
:103E800075E046E050E00E942C0226960FB6F894AA
:103E9000DEBF0FBECDBFCF91DF911F910F9108956F
:103EA0000F93CF93DF93EC01FB0180818D83CE01D3
:103EB0000E94C51D0AE00AC061E070E080E090E069
:103EC0000E942029015011F48EEF0AC0CE010E94F9
:103ED000A81D882389F3CE010E94101F81118FEF46
:103EE000DF91CF910F910895FC01848161E00E94E0
:103EF00088290E94771080E00E94611080E00E9473
:103F0000581085E00E94661008950F931F93CF9379
:103F1000DF93BC018230910510F462E070E0E09123
:103F20009F0AF091A00A40E050E0A0E0B0E024C079
:103F30008081918186179707D0F08617970771F4D3
:103F400082819381109729F013969C938E931297F8
:103F50002CC09093A00A80939F0A27C04115510559
:103F600019F08417950718F48D01AC01EF01DF01FA
:103F7000828193819C01F9013097D1F64115510559
:103F8000F9F0CA01861B970B8430910580F48A8171
:103F90009B810115110521F0F8019383828304C0F0
:103FA0009093A00A80939F0AFE01329645C0FE01BD
:103FB000E80FF91F619371930297998388833CC03E
:103FC00080919D0A90919E0A892B41F48091310540
:103FD0009091320590939E0A80939D0A40913305FB
:103FE000509134054115510541F44DB75EB78091AC
:103FF0002F0590913005481B590B20919D0A309157
:104000009E0A24173507B0F4CA01821B930B86174A
:10401000970780F0AB014E5F5F4F8417950750F014
:10402000420F531F50939E0A40939D0AF9016193DA
:10403000719302C0E0E0F0E0CF01DF91CF911F91DA
:104040000F910895CF93DF939C01009709F48FC0DF
:10405000EC0122971B821A8260919F0A7091A00A3C
:104060006115710581F488819981820F931F2091D8
:104070009D0A30919E0A2817390739F5D0939E0A78
:10408000C0939D0A74C0DB0140E050E0AC17BD074F
:1040900008F1BB83AA83FE0121913191E20FF31F46
:1040A000AE17BF0779F48D919C911197280F391F96
:1040B0002E5F3F4F3983288312968D919C911397E1
:1040C0009B838A834115510571F4D093A00AC09354
:1040D0009F0A4DC012968D919C911397AD01009748
:1040E00011F0DC01D3CFDA011396DC93CE93129753
:1040F000FA0121913191E20FF31FCE17DF0769F426
:1041000088819981280F391F2E5F3F4FFA01318333
:1041100020838A819B8193838283E0E0F0E0DB014E
:1041200012968D919C911397009719F0BC01FD0197
:10413000F6CFAB014E5F5F4FDB018D919C91840FF9
:10414000951F20919D0A30919E0A2817390779F40E
:10415000309729F41092A00A10929F0A02C013828D
:1041600012824250504050939E0A40939D0ADF9124
:10417000CF910895DC01ED91FC910484F585E02D4B
:1041800070E019950895CF93DF93DC015296CD919D
:10419000DC915397888182FF2AC05C968C915C9752
:1041A000FD01E80FF11DE35AFF4F20815C968C91D1
:1041B0005C97FD01E80FF11DE25AFF4F30815C96DC
:1041C0008C915C9790E002968F7390705C968C93C4
:1041D0005C9720FF03C08881816002C088818E7F48
:1041E00088835696ED91FC915797308318C05C9662
:1041F0008C915C97FD01E80FF11DE35AFF4F208180
:104200005C968C915C9790E001968F7390705C96B1
:104210008C935C975696ED91FC915797208350961E
:10422000ED91FC9151978081806480835B969C9195
:104230005B975C968C915C97981739F45296ED9148
:10424000FC91539780818F7D8083DF91CF9108957A
:10425000CF92DF92EF92FF920F931F93CF93DF9352
:10426000EC017A018B016901E889F98982E0808398
:10427000403081EE580780E0680780E07807A1F0C1
:1042800060E079E08DE390E0A80197010E946F2B38
:1042900021503040404050405695479537952795DE
:1042A00080E12030380798F0E889F989108260E8C9
:1042B00074E88EE190E0A80197010E946F2B2150D5
:1042C0003040404050405695479537952795EC85AE
:1042D000FD853083EE85FF852083188ED0FE05C0D6
:1042E000EA89FB89808184608083EC89FD89C082B2
:1042F000EA89FB89808180618083EA89FB898081EA
:1043000088608083EA89FB89808180688083EA896C
:10431000FB8980818F7D8083DF91CF911F910F91E9
:10432000FF90EF90DF90CF900895FC01818D928DEA
:10433000282F30E0205C3F4F291B31092F7330704C
:104340000288F389E02D808182FF02C0369527958F
:10435000C9010895DC0159969C9159975A968C9100
:104360005A97981719F42FEF3FEF24C05296ED910A
:10437000FC915397808182FF14C05A969C915A9762
:104380005A968C915A97FD01E80FF11D868D282FC2
:1043900030E0A90FB11D5D969C9180E0282B392B50
:1043A00009C05A968C915A97A80FB11D5D968C91B1
:1043B000282F30E0C9010895DC0159969C91599746
:1043C0005A968C915A97981719F44FEF5FEF33C0B4
:1043D0005296ED91FC915397808182FF1CC05A96B2
:1043E0008C915A97FD01E80FF11D258D5A968C91FD
:1043F0005A97FD01E80FF11D968D5A968C915A97A8
:104400008E5F8F735A968C93492F50E0922F80E0E5
:10441000482B592B10C05A968C915A97FD01E80FE2
:10442000F11D958D5A968C915A978F5F8F735A967E
:104430008C93492F50E0CA010895CF93DF93EC018C
:10444000888D882361F419C08C9185FF0AC0E889A2
:10445000F989808185FF05C0CE010E94C320AA8909
:10446000BB898C9185FD05C0E889F989808186FD2D
:1044700004C00FB607FEE8CFF4CFDF91CF910895C7
:10448000EF92FF921F93CF93DF93EC017B019B8D03
:104490008C8D981709F05CC0E889F989808185FFC7
:1044A00057C0EA89FB89808182FF08C070FF03C082
:1044B0008081816002C080818E7F8083EE89FF8948
:1044C000E082E889F98980818064808339C01B8D0E
:1044D0001E5F02C01B8D1F5F1F730BC00FB607FC52
:1044E00008C0E889F989808185FF03C0CE010E9458
:1044F000C3208C8D181791F3EA89FB89808182FF94
:1045000010C08B8DFE01E80FF11DE35AFF4F8F2D78
:10451000817080838B8DFE01E80FF11DE25AFF4F01
:1045200006C08B8DFE01E80FF11DE35AFF4FE082BC
:104530001B8FEA89FB8980818062808381E0888F7C
:1045400081E090E0DF91CF911F91FF90EF9008956F
:10455000EA89FB89808182FDBACFBCCF8CE893E2E7
:10456000892B51F080E090E0892B31F00E948C2360
:10457000882311F00E94000085E694E2892B51F017
:1045800080E090E0892B31F00E946524882311F0AF
:104590000E94000080E090E0892B51F080E090E0E4
:1045A000892B31F00E940000882311F00E94000046
:1045B00080E090E0892B51F080E090E0892B31F091
:1045C0000E940000882311F00E94000008951F92AD
:1045D0000F920FB60F920BB60F9211242F933F93A9
:1045E0008F939F93AF93BF93EF93FF93E0916A09EB
:1045F000F0916B09808182FD38C0A0916C09B09167
:104600006D098C9182FF0BC0209173092E5F2F736F
:104610008C9190E095958795382F317004C020914A
:1046200073092F5F2F73E0917009F09171099081E8
:10463000809174092817F1F08C9182FF0DC0E091F0
:104640007309F0E0E65AF64F358FE0917309F0E018
:10465000E65AF64F968F06C0E0917309F0E0E65AED
:10466000F64F958F2093730905C0E0917009F09182
:104670007109E081FF91EF91BF91AF919F918F916F
:104680003F912F910F900BBE0F900FBE0F901F9078
:10469000189510925D0910925C0988EE93E0A0E0F5
:1046A000B0E080935E0990935F09A0936009B09396
:1046B00061098CE795E090935B0980935A0985EC3A
:1046C00090E0909367098093660984EC90E0909362
:1046D00069098093680980EC90E090936B0980935E
:1046E0006A0981EC90E090936D0980936C0982ECEB
:1046F00090E090936F0980936E0986EC90E0909320
:1047000071098093700910927309109274091092C4
:1047100075091092760908958AE599E00E9495211D
:1047200020E0892B09F021E0822F08951F920F923B
:104730000FB60F920BB60F9211242F933F934F9306
:104740005F936F937F938F939F93AF93BF93EF93F9
:10475000FF938AE599E00E94C320FF91EF91BF91FA
:10476000AF919F918F917F916F915F914F913F9109
:104770002F910F900BBE0F900FBE0F901F901895AA
:104780001F920F920FB60F920BB60F9211242F9318
:104790003F938F939F93AF93BF93EF93FF93E091DA
:1047A000070AF091080A808182FD38C0A091090AA9
:1047B000B0910A0A8C9182FF0BC02091100A2E5FE3
:1047C0002F738C9190E095958795382F317004C0A8
:1047D0002091100A2F5F2F73E0910D0AF0910E0ABD
:1047E00090818091110A2817F1F08C9182FF0DC001
:1047F000E091100AF0E0E950F64F358FE091100A91
:10480000F0E0E950F64F968F06C0E091100AF0E014
:10481000E950F64F958F2093100A05C0E0910D0ADC
:10482000F0910E0AE081FF91EF91BF91AF919F91BE
:104830008F913F912F910F900BBE0F900FBE0F9055
:104840001F9018951092FA091092F90988EE93E0DA
:10485000A0E0B0E08093FB099093FC09A093FD09D0
:10486000B093FE098CE795E09093F8098093F709DF
:104870008DEC90E09093040A8093030A8CEC90E016
:104880009093060A8093050A88EC90E09093080ABA
:104890008093070A89EC90E090930A0A8093090AB2
:1048A0008AEC90E090930C0A80930B0A8EEC90E0D7
:1048B00090930E0A80930D0A1092100A1092110A1A
:1048C0001092120A1092130A089587EF99E00E943D
:1048D000952120E0892B09F021E0822F08951F9275
:1048E0000F920FB60F920BB60F9211242F933F9396
:1048F0004F935F936F937F938F939F93AF93BF93E8
:10490000EF93FF9387EF99E00E94C320FF91EF910F
:10491000BF91AF919F918F917F916F915F914F91D7
:104920003F912F910F900BBE0F900FBE0F901F90D5
:104930001895CF92DF92EF92FF920F931F93CF9330
:10494000DF937C016B018A01C0E0D0E00FC0D6018B
:104950006D916D01D701ED91FC910190F081E02DF9
:10496000C7011995C80FD91F015010400115110535
:1049700071F7CE01DF91CF911F910F91FF90EF90D2
:10498000DF90CF900895EF92FF920F931F93CF93F4
:10499000DF937C018B01C0E0D0E0F8010F5F1F4F77
:1049A0006491662359F0D701ED91FC910190F0815B
:1049B000E02DC7011995C80FD91FEFCFCE01DF91A8
:1049C000CF911F910F91FF90EF900895CF93DF93B8
:1049D000FB01EC01A881B98160817181448155811D
:1049E0001296ED91FC9113971995DF91CF9108954F
:1049F000EF92FF920F931F938C01DC01ED91FC91DC
:104A00000190F081E02D6DE019957C01D801ED91C8
:104A1000FC910190F081E02DC8016AE019959C019C
:104A20002E0D3F1DC9011F910F91FF90EF9008952A
:104A3000EF92FF920F931F937C010E94C3248C017D
:104A4000C7010E94F8249C01200F311FC9011F914A
:104A50000F91FF90EF900895CF93DF93EC016115D4
:104A6000710519F420E030E00FC0DB010D9000204B
:104A7000E9F71197A61BB70BE881F9810280F38152
:104A8000E02DAD0119959C01C901DF91CF910895E9
:104A90004F925F927F928F929F92AF92BF92CF92EE
:104AA000DF92EF92FF920F931F93DF93CF93CDB7D7
:104AB000DEB7A1970FB6F894DEBF0FBECDBF2C01B5
:104AC000742ECB01223008F42AE019A231E2C32E61
:104AD000D12CCC0EDD1E822E9924AA24BB24672D56
:104AE000752FA50194010E946F2B79018A01C801DD
:104AF000B701A50194010E94502B472D461B089435
:104B0000C108D1084A3014F4405D01C0495CF60187
:104B10004083E114F1040105110521F07E2C5F2D85
:104B2000C801DDCFC201B6010E942C25A1960FB6A7
:104B3000F894DEBF0FBECDBFCF91DF911F910F91D3
:104B4000FF90EF90DF90CF90BF90AF909F908F90AD
:104B50007F905F904F900895CF92DF92EF92FF92F7
:104B60000F931F93CF93DF93EC016A017B01211513
:104B7000310541F4E881F9810190F081E02D642F45
:104B800019951FC02A303105D1F477FF17C0E8818D
:104B9000F9810190F081E02D6DE219958C01442797
:104BA0005527BA014C195D096E097F09CE012AE02B
:104BB0000E9448259801280F391F04C02AE00E944E
:104BC00048259C01C901DF91CF911F910F91FF9062
:104BD000EF90DF90CF9008950E942C250895EF92DA
:104BE000FF920F931F937C010E942C258C01C7011B
:104BF0000E94F824080F191FC8011F910F91FF9000
:104C0000EF900895CF93DF93EC010E94B02868875E
:104C100079878A879B87E881F9810680F781E02D73
:104C2000CE0119959C0197FF15C00E94B0282885D8
:104C300039854A855B85621B730B840B950B2C8130
:104C40003D814E815F81621773078407950718F3D2
:104C50002FEF3FEFC901DF91CF910895AF92BF923F
:104C6000CF92DF92EF92FF920F931F93CF93DF9338
:104C70005C017A0189012115310519F4C0E0D0E009
:104C800016C0C0E0D0E0C62EDD24C7FCD0940CC016
:104C9000C5010E94022697FD0AC08C159D0539F0BA
:104CA000F70181937F012196C017D10788F3CE01C8
:104CB000DF91CF911F910F91FF90EF90DF90CF90F8
:104CC000BF90AF9008950F931F93CF93DF93FC0194
:104CD0008B0141155105F9F061157105E1F08481F1
:104CE00095812817390718F0FB01108214C0415034
:104CF0005040EC01C21BD30B4C175D0708F4EA01CE
:104D000060817181620F731FC801AE010E945D0254
:104D1000C00FD11F1882DF91CF911F910F9108957D
:104D2000CF93DF93FC01848195814817590768F47C
:104D3000C081D181772767FD7095CE01840F951FC3
:104D40000E9442029C01009719F42FEF3FEF02C02E
:104D50002C1B3D0BC901DF91CF91089540E050E03D
:104D60000E9490260895DC01FB0114968D919C9180
:104D70001597892B31F461157105A9F090E08081B8
:104D800008C00D90BC91A02D6115710529F490E02B
:104D90008C91882349F407C0CD010E944D029C01EB
:104DA00090E0232B09F491E0892F08950F931F932E
:104DB000CF93DF93EC018B016F5F7F4F88819981E7
:104DC0000E946E2A009711F480E005C099838883C1
:104DD0001B830A8381E0DF91CF911F910F9108958A
:104DE000CF93DF93EC0188819981892B29F08A8107
:104DF0009B818617970760F4CE010E94D6268823F0
:104E000041F08C819D81892B19F4E881F981108210
:104E100081E0DF91CF910895EF92FF920F931F935E
:104E2000CF93DF93EC017B016C817D81E114F10470
:104E3000C1F04115510599F08A01060F171FB801FD
:104E40000E94F026882369F0888199812C813D8118
:104E5000820F931FB7010E9456021D830C8381E0CD
:104E600001C080E0DF91CF911F910F91FF90EF90F3
:104E70000895DF93CF930F920F92CDB7DEB769837A
:104E80001A82BE016F5F7F4F41E050E00E940C2705
:104E90000F900F90CF91DF910895FB016081718198
:104EA000448155810E940C270895CF93DF93EC0134
:104EB00088819981009711F00E942220198218821E
:104EC0001D821C821B821A82DF91CF910895EF927E
:104ED000FF920F931F93CF93DF93EC017B018A0125
:104EE000BA010E94F026882321F4CE010E945527A2
:104EF00007C01D830C8388819981B7010E945602E7
:104F0000CE01DF91CF911F910F91FF90EF90089507
:104F1000CF93DF93EC01198218821B821A821D82C3
:104F20001C826115710551F0DB010D900020E9F73D
:104F30001197A61BB70BAD010E946727DF91CF9198
:104F400008950F931F93182F092F6115710559F0BC
:104F5000DB010D900020E9F71197A61BB70BAD01FF
:104F60000E94672702C00E945527812F902F1F9112
:104F70000F910895EF92FF920F931F93DF93CF93BA
:104F8000CDB7DEB7A2970FB6F894DEBF0FBECDBF88
:104F90008C01FC011182108213821282158214820C
:104FA000CB01BA017E010894E11CF11CA70130E09D
:104FB0000E946C02C801B7010E94A127A2960FB6F9
:104FC000F894DEBF0FBECDBFCF91DF911F910F913F
:104FD000FF90EF900895BF92CF92DF92EF92FF92F1
:104FE0000F931F93CF93DF93082FB92E6B017A0194
:104FF000E9012417350710F4EA017901802F9B2D70
:1050000061E275E00E948827D60114968D919C91EB
:1050100015978E159F05D0F08C179D0708F4EC01AD
:10502000D601ED91FC911197EC0FFD1F10811082BC
:105030006D917C916E0D7F1D802F9B2D0E94A1276D
:10504000D601ED91FC91EC0FFD1F1083802F9B2D5D
:10505000DF91CF911F910F91FF90EF90DF90CF9054
:10506000BF900895CF93DF93EC01FB01861797075C
:1050700061F0608171816115710529F0448155816C
:105080000E94672702C00E945527CE01DF91CF9171
:105090000895FC01118210821382128215821482FB
:1050A0000E9432280895FC01808191810E94222073
:1050B0000895CF93DF930E94BE280E949C05CEEAFC
:1050C000D2E20E9485052097E1F30E94AE22F9CF3B
:1050D0001F920F920FB60F9211242F933F938F932D
:1050E0009F93AF93BF938091980A9091990AA09152
:1050F0009A0AB0919B0A30919C0A0196A11DB11D9C
:10510000232F2D5F2D3720F02D570196A11DB11DA6
:1051100020939C0A8093980A9093990AA0939A0AE4
:10512000B0939B0A8091940A9091950AA091960A57
:10513000B091970A0196A11DB11D8093940A909396
:10514000950AA093960AB093970ABF91AF919F9149
:105150008F913F912F910F900FBE0F901F90189538
:105160008FB7F8942091980A3091990A40919A0A41
:1051700050919B0A8FBFB901CA010895789484B5F4
:10518000826084BD84B5816084BD85B5826085BD43
:1051900085B5816085BDEEE6F0E080818160808329
:1051A000E1E8F0E01082808182608083808181600C
:1051B0008083E0E8F0E0808181608083E1EBF0E0D3
:1051C000808184608083E0EBF0E080818160808377
:1051D000E1E9F0E08081826080838081816080836A
:1051E000E0E9F0E0808181608083E1EAF0E08081A5
:1051F00082608083808181608083E0EAF0E080814A
:1052000081608083E1E2F1E080818260808380813F
:1052100081608083E0E2F1E0808181608083EAE761
:10522000F0E08081846080838081826080838081DF
:10523000816080838081806880831092C10008959E
:10524000EF92FF920F931F93CF93DF937B018C011B
:105250003FB7F8948091940A9091950AA091960A8C
:10526000B091970A26B5A89B05C02F3F19F001966B
:10527000A11DB11D3FBFBA2FA92F982F8827820FDC
:10528000911DA11DB11D52E0880F991FAA1FBB1FC0
:105290005A95D1F7EC0130C00E944F2B3FB7F894DC
:1052A0008091940A9091950AA091960AB091970ADC
:1052B00026B5A89B05C02F3F19F00196A11DB11D71
:1052C0003FBFBA2FA92F982F8827820F911DA11DAC
:1052D000B11D32E0880F991FAA1FBB1F3A95D1F765
:1052E0008C1B9D0B885E9340B8F20894E108F1088E
:1052F00001091109C851DC4FE114F1040105110540
:1053000059F6DF91CF911F910F91FF90EF90089583
:10531000CF93DF93482F50E0CA0180509D4FFC018E
:10532000349146545D4FFA018491882369F190E0ED
:10533000880F991FFC01E459FD4FA591B491FC0120
:10534000EA57FD4FC591D491662351F42FB7F894D5
:105350008C91932F909589238C93888189230BC0FE
:10536000623061F42FB7F8948C91932F9095892334
:105370008C938881832B88832FBF06C09FB7F894B6
:105380008C91832B8C939FBFDF91CF9108958930AF
:1053900009F449C08A30A0F4843051F1853040F4DA
:1053A000823079F1833000F5813009F063C026C086
:1053B000873079F1883098F5863009F05BC025C0D8
:1053C0008D3009F442C08E3028F48B30B1F18C302E
:1053D000C0F52DC0803109F442C0813109F445C0C7
:1053E0008F3009F047C037C0809180008F7703C0AD
:1053F000809180008F7D80938000089584B58F77A1
:1054000002C084B58F7D84BD08958091B0008F77F0
:1054100003C08091B0008F7D8093B000089580918B
:1054200090008F7707C0809190008F7D03C080919E
:105430009000877F8093900008958091A0008F77DF
:1054400007C08091A0008F7D03C08091A000877F5E
:105450008093A0000895809120018F7703C08091F0
:1054600020018F7D80932001089580912001877F06
:10547000809320010895FF920F931F93F62E482FDB
:1054800050E0CA018A5B9C4FFC012491CA01805004
:105490009D4FFC01149146545D4FFA010491002385
:1054A000C9F0222319F0822F0E94C729E02FF0E0D3
:1054B000EE0FFF1FEA57FD4FA591B4919FB7F894E7
:1054C000FF2021F48C911095812302C08C91812BB7
:1054D0008C939FBF1F910F91FF9008956F927F92C1
:1054E0008F929F92AF92BF92CF92DF92EF92FF92F4
:1054F0000F931F93CF93DF938C01009729F4CB0177
:105500000E94851F8C01BBC08EEFE82E8FEFF82E16
:10551000E00EF11E4801860E971E8E149F0408F4BB
:10552000ACC0D7014D915C91119746175707B8F061
:105530004530510508F4A3C0CA01049786179707A0
:1055400008F49DC042505040461B570BF401419354
:1055500051936D937C93CF010E94222090C05B01F8
:10556000A41AB50A3801640E751EA0919F0AB09165
:10557000A00AE0E0F0E0CC24DD2447C0A615B70582
:10558000A9F5CD91DC911197CE0102968A159B0564
:1055900068F1CE018A199B09029612962C911297F6
:1055A00013963C91059758F0F40122833383CA196E
:1055B000DB09D183C083D7016D937C9309C04E5F13
:1055C0005F4F4C0F5D1FF70151834083C901FC0100
:1055D000C114D10431F0D6011396FC93EE931297C7
:1055E0004EC0F093A00AE0939F0A49C08D919C9110
:1055F0001197E817F90708F4FC016D0112968C91D8
:10560000129713969C919C01D901109709F0B6CF7F
:1056100080919D0A90919E0A86159705E9F4E617F8
:10562000F707D0F420913305309134052115310569
:1056300041F42DB73EB780912F0590913005281B7E
:10564000390B82169306C8F490929E0A80929D0AA6
:10565000F7017183608313C0CB010E94851FEC01A9
:10566000009759F0D7014D915C91B8010E94390221
:10567000C8010E9422208E0102C000E010E0C80193
:10568000DF91CF911F910F91FF90EF90DF90CF901E
:10569000BF90AF909F908F907F906F9008950895E6
:1056A000629FD001739FF001829FE00DF11D649F06
:1056B000E00DF11D929FF00D839FF00D749FF00D92
:1056C000659FF00D9927729FB00DE11DF91F639F33
:1056D000B00DE11DF91FBD01CF0111240895A1E214
:1056E0001A2EAA1BBB1BFD010DC0AA1FBB1FEE1F5C
:1056F000FF1FA217B307E407F50720F0A21BB30BA7
:10570000E40BF50B661F771F881F991F1A9469F722
:1057100060957095809590959B01AC01BD01CF017E
:10572000089597FB092E05260ED057FD04D0D7DF2C
:105730000AD0001C38F450954095309521953F4F84
:105740004F4F5F4F0895F6F790958095709561954E
:105750007F4F8F4F9F4F0895EE0FFF1F0590F491DD
:10576000E02D19942F923F924F925F926F927F9209
:105770008F929F92AF92BF92CF92DF92EF92FF9261
:105780000F931F93CF93DF93CDB7DEB7CA1BDB0B0D
:105790000FB6F894DEBF0FBECDBF19942A883988A2
:1057A00048885F846E847D848C849B84AA84B984B9
:1057B000C884DF80EE80FD800C811B81AA81B981C5
:1057C000CE0FD11D0FB6F894DEBF0FBECDBFED01D9
:1057D000089513E0C8E9D3E004C0FE010E94AE2B97
:0C57E0002296CA39D107C9F7F894FFCF10
:1057EC006C6F673A6D61696E206C6F6F703B006C0B
:1057FC006F673A66696E6520656D756C617A696F65
:10580C006E653B006C6F673A2077616974696E67EF
:10581C00206C656F20696E697469616C697A7A6154
:10582C0074696F6E3B0072656164790072657175A5
:10583C00657374006C6F673A2049443A20002C2041
:10584C005365637265743A20002C204C617374208C
:10585C005472616E73616374696F6E3A20003B0021
:10586C00006170706C69636174696F6E2F636F6631
:10587C0066656561700061006C6F673A4E646566C1
:10588C00206D65737361676520746F206269673B77
:10589C00007265630073746F7265207B2274696D8E
:1058AC00657374616D70223A2200222C2265766534
:1058BC006E745F74797065223A22726563686172E6
:1058CC006765222C227472616E73616374696F6EEA
:1058DC005F6964223A2200222C226D616368696E32
:1058EC00655F6964223A2200222C22757365725F0F
:1058FC006964223A2200222C22616D6F756E74222B
:10590C003A222B00227D006C6F673A207265636827
:10591C006172676520003B0070757200222C226555
:10592C0076656E745F74797065223A227075726355
:10593C0068617365222C227472616E736163746981
:10594C006F6E5F6964223A2200222C22616D6F75A2
:10595C006E74223A222D006C6F673A207075726358
:10596C006861736520006765745F74696D653A00E2
:10597C006C6F673A206572726F723B00636F6E6E6C
:10598C00656374696F6E3A006F6B3B007365745F8F
:10599C00646174613A006765745F646174653A00B0
:1059AC00302E30006C6F673A20696E697420617319
:1059BC00207461726765742074696D656F75743BD2
:1059CC00006C6F673A74617267657420696E697AEE
:1059DC0069616C697A7A61746F3B00636F6E6E6596
:1059EC006374696F6E3A7265713B006765745F74BE
:1059FC00696D653A7265713B006C6F673A00222CD9
:105A0C00226576656E745F74797065223A226C6FCC
:105A1C00675F696E222C226D616368696E655F69D0
:105A2C0064223A22006C6F673A206C6F67696E3B98
:105A3C00006C6F673A207374617475732057414919
:105A4C0054494E473B006C6F673A20737461747510
:105A5C0073205245434841524745442000747261BB
:105A6C006E73616374696F6E204944203D20006C35
:105A7C006F673A20737461747573205055524348A4
:105A8C0041534520006C6F673A636F6D6D616E64B6
:105A9C00206E6F7420737570706F727465643B0048
:105AAC006C6F673A75736369746F206461207377E8
:105ABC00697463683B006C6F673A7365742064614A
:105ACC007461206661696C656420696E2072656C16
