:100000000C9422020C9453020C9453020C9453024D
:100010000C9453020C9453020C9453020C9453020C
:100020000C9453020C9453020C9453020C945302FC
:100030000C9453020C9453020C9453020C945302EC
:100040000C9453020C9453020C9453020C945302DC
:100050000C9453020C9453020C9453020C94D02130
:100060000C9453020C94D01C0C94061D0C94530257
:100070000C9453020C9453020C9453020C945302AC
:100080000C9453020C9453020C9453020C9453029C
:100090000C947D1D0C94B31D0C9453020C945302CC
:1000A0000C9453020C9453020C9453020C9453027C
:1000B0000C9453020C9453020C9453020C9453026C
:1000C0000C9453020C9453020C9453020C9453025C
:1000D0000C9453020C9453020C9453020C9453024C
:1000E0000C945302720579057B057D058105850514
:1000F000950599059D05AD05B105EC22EF22DE229F
:10010000E222E8222623F322F722FD2201230523FF
:100110000B230F231323262319231D2321230C94A0
:10012000A5190C949D050C947B050C94E71B0C946D
:1001300067020C94891B0C94301D0C94ED0E0C94EA
:1001400013230C940B230C94E8220C94311B0C9475
:10015000BC050C9427140C94E2220C94F3220C940A
:10016000AD050C9499050C94F7220C94E71D0C94A2
:1001700090190C945A1B0C94F8050C944F100C9485
:1001800079050C9411140C94671B0C94FD220C94AB
:100190003A1D0C94EF220C94DE220C94091C0C9452
:1001A000751B0C9472050C94B1050C9426230C94C9
:1001B00081050C9421230C94E4190C9405230C94D0
:1001C0000F230C9419230C942A1E0C9495050C945F
:1001D000DD1D0C941D230C9485050C9401230C94B7
:1001E0007D050C94EC220123456789ABCDEFFEDC45
:1001F000BA9876543210F0E1D2C3982F8A429144D3
:100200003771CFFBC0B5A5DBB5E95BC25639F1113B
:10021000F159A4823F92D55E1CAB98AA07D8015B26
:100220008312BE853124C37D0C55745DBE72FEB150
:10023000DE80A706DC9B74F19BC1C1699BE4864705
:10024000BEEFC69DC10FCCA10C246F2CE92DAA8452
:10025000744ADCA9B05CDA88F97652513E986DC6D2
:1002600031A8C82703B0C77F59BFF30BE0C6479139
:10027000A7D55163CA0667292914850AB7273821EB
:100280001B2EFC6D2C4D130D385354730A65BB0A9D
:100290006A762EC9C281852C7292A1E8BFA24B66F4
:1002A0001AA8708B4BC2A3516CC719E892D12406CF
:1002B00099D685350EF470A06A1016C1A419086C81
:1002C000371E4C774827B5BCB034B30C1C394AAA4A
:1002D000D84E4FCA9C5BF36F2E68EE828F746F63AB
:1002E000A5781478C8840802C78CFAFFBE90EB6C1E
:1002F00050A4F7A3F9BEF27871C65741524E494E49
:10030000473A20546F6F206D616E79207265636F7C
:100310007264732E20496E637265617365204D416E
:10032000585F4E4445465F5245434F5244532E005A
:1003300000000A0B02090C0D0E080703040100005F
:1003400000000000000000000000000000000000AD
:10035000000000000000000000000000121110006A
:10036000000000000000000000000000000000008D
:1003700000000000000001021020200808102040AA
:100380001020408002010201080402010102040859
:1003900010204080804020100804020180040201E7
:1003A0008040201008040201080402010102040830
:1003B000102040800102040810204080050505053A
:1003C000070508080808020202020A0A08080404CD
:1003D00004040101010101010101030303030303FB
:1003E0000303040707070C0C0C0C0C0C0C0C02028A
:1003F000020206060606060606060B0B0B0B0B0B87
:100400000B0B00002200250028002B002E003100DD
:10041000340002010000050108010B010000210069
:10042000240027002A002D003000330001010000C5
:10043000040107010A016702BC054F1027143A1D89
:10044000E71DF80511241FBECFEFD1E2DEBFCDBFFF
:1004500000E00CBF15E0A0E0B2E0E8EAF3E500E060
:100460000BBF02C007900D92A237B107D9F72AE05F
:10047000A2E7B5E001C01D92AF37B207E1F714E083
:10048000C2E4D4E000E006C022970109FE010BBFE0
:100490000E94F923C633D10780E00807A9F70E941C
:1004A000C1210C94C2290C9400006AE372E088E335
:1004B00099E00E94CA1E68E873E182E795E00E9415
:1004C000130969E472E088E399E00C94CA1E4AE0DB
:1004D0006DEB77E089E496E00E94C21969E476E06A
:1004E00082E795E00E94021810924406109243069B
:1004F0001092450681E080934606109248061092BD
:1005000047060895CF93DF93CDB7DEB7C555D10920
:100510000FB6F894DEBF0FBECDBF26E040E855E22F
:1005200060E070E088E399E00E946E1C26E040E8FD
:1005300055E260E070E085ED99E00E946E1C6EE58A
:1005400072E088E399E00E94CA1E85ED99E00E945E
:100550005A1B892BD1F320E430E0AE014F5F5F4F8F
:100560006AE085ED99E00E94AD1F45E050E060E84B
:1005700072E0CE0101960E945126892B09F07EC0BF
:1005800066E872E085ED99E00E94CA1E85ED99E06B
:100590000E945A1B892BD1F320E430E0AE014F5F5B
:1005A0005F4F6AE085ED99E00E94AD1FBE016F5F6D
:1005B0007F4FCE01805B9F4F0E94502028E030E0AB
:1005C00040E050E0BE01605B7F4FCE018F5B9F4FEC
:1005D0000E947B21BE016F5B7F4F82E795E00E9406
:1005E000BB04CE018F5B9F4F0E94E21F23E130E0EE
:1005F00049E050E0BE01605B7F4FCE018F5B9F4FB3
:100600000E947B21BE016F5B7F4F82E795E00E94D5
:100610008304CE018F5B9F4F0E94E21F2DE130E0EB
:1006200044E150E0BE01605B7F4FCE01865B9F4F8F
:100630000E947B2120E030E049E050E0BE016F5B8A
:100640007F4FCE01865B9F4F0E9431212A961FAEBD
:100650002A97CE018F5B9F4F0E942126AB01BC01E0
:1006600082E795E00E94CF04CE01865B9F4F0E94F7
:10067000E21FCE01805B9F4F0E94E21F82E795E060
:100680000E94F8046EE872E088E399E00E949B1EE5
:1006900062E775E0CE018F5B9F4F0E94C404BE01EC
:1006A0006F5B7F4F88E399E00E948D1ECE018F5BC8
:1006B0009F4F0E94E21F68E972E088E399E00E9480
:1006C0009B1E62E775E0CE018F5B9F4F0E94B004D6
:1006D000BE016F5B7F4F88E399E00E948D1ECE01C3
:1006E0008F5B9F4F0E94E21F63EA72E088E399E00C
:1006F0000E949B1E62E775E0CE018F5B9F4F0E94B8
:10070000D804BE016F5B7F4F88E399E00E948D1E85
:10071000CE018F5B9F4F0E94E21F68E874E088E380
:1007200099E00E94CA1ECB5ADF4F0FB6F894DEBF85
:100730000FBECDBFDF91CF9108950F931F93CF933D
:10074000DF93CDB7DEB7AF970FB6F894DEBF0FBE1D
:10075000CDBF8C01FC01248135812550310940E059
:1007600050E0BC01CE018A960E947B2160E3CE015D
:100770008A960E94FE2020E030E04BE050E0BE016F
:100780006F5F7F4FCE018A960E9431211B86CE017A
:1007900001960E942126AB01BC014093CF065093E5
:1007A000D0066093D1067093D2068FE496E00E9443
:1007B0003814BC01CE0180960E947B264091CF0662
:1007C0005091D0066091D1067091D2064A505109DD
:1007D000610971098FE496E00E943814BC01CE01D2
:1007E00046960E947B264091CF065091D00660919C
:1007F000D1067091D206465F5F4F6F4F7F4F8FE4F7
:1008000096E00E943814BC01CE010C960E947B2613
:1008100062E370E080E090E00E9449226CE976E0BB
:10082000CE0146960E947226892B19F482E090E050
:1008300012C06CE976E0CE0180960E947226892B68
:10084000A9F36CE976E0CE010C960E947226892B02
:1008500069F388E090E09093BA078093B907B801F4
:100860008BEA96E00E946620CE018A960E94E21FE3
:10087000AF960FB6F894DEBF0FBECDBFDF91CF911C
:100880001F910F9108950F931F93CF93DF9300D083
:1008900000D0CDB7DEB78B0120E030E046E050E07D
:1008A00061EA77E00E9431211092A6074091CB06C1
:1008B0005091CC066091CD067091CE062AE0CE0113
:1008C00001960E949E20BE016F5F7F4FC8010E946B
:1008D000F720CE0101960E94E21F20E030E043E1C4
:1008E00050E06EE877E0C8010E9431211092A00725
:1008F00026960FB6F894DEBF0FBECDBFDF91CF9125
:100900001F910F910895CF93DF93CDB7DEB76F9707
:100910000FB6F894DEBF0FBECDBFCB0120E030E0B4
:100920004BE050E063E877E00E9431214AE050E07C
:1009300063E877E0CE0101960E9432148FE1FE0158
:100940003196AFE4B6E001900D928A95E1F76F968B
:100950000FB6F894DEBF0FBECDBFDF91CF910895E3
:10096000CF93DF93EC0163E877E00E945020CE0143
:10097000DF91CF910895CB0120E030E049E050E0D5
:1009800063E976E00C943121CF93DF93EC0163E9C6
:1009900076E00E945020CE01DF91CF9108954093E0
:1009A000CB065093CC066093CD067093CE06089587
:1009B000CF93DF93EC014091CB065091CC06609130
:1009C000CD067091CE062AE00E949E20CE01DF91D6
:1009D000CF9108954F37510554F4FC01EF5AFF4F62
:1009E0005083319640838D5A9F4F0C945E26089514
:1009F0000F931F93CF93DF93CDB7DEB7EC970FB66E
:100A0000F894DEBF0FBECDBF8C01CE0101960E94CF
:100A1000BA14BE016F5F7F4F83ED96E00E94ED1424
:100A2000CE0101960E94D71468EB72E0CE010196C8
:100A30000E9450206AEB72E0CE01C7960E945020BF
:100A4000AE014F5F5F4FBE01695C7F4F83ED96E063
:100A50000E944116CE01C7960E94E21FCE01019668
:100A60000E94E21F83ED96E00E94531590930A07BF
:100A7000809309078937910538F06FEC72E088E3BD
:100A800099E00E94CA1EFFCF6BE077E083ED96E00D
:100A90000E947C154091090750910A076BE077E0AE
:100AA000C8010E94EA04C8010E940818C8010E94F7
:100AB0002118EC960FB6F894DEBF0FBECDBFDF91C4
:100AC000CF911F910F9108950F93CF93DF93DA0188
:100AD000E9016B30710508F04BC0FB01EE58FF4F88
:100AE0000C94EC2380E98C9311961C920E5F088382
:100AF0003FC08AE607C08AE601C085E68C9381E89C
:100B000033C082E68C9382E82FC086E68C9387E719
:100B100011968C93119789E0E3E9F6E01296019023
:100B20000D928A95E1F78BE022C082E28C9383E3F9
:100B30001BC083E38C9384E403C084E48C9385E539
:100B400011968C93119712968BE1E7E7F6E00190EE
:100B50000D928A95E1F78EE10AC085E58C9386E6D1
:100B600003C081EB8C9382EB11968C9382E0888397
:100B7000DF91CF910F91089567E972E083EB97E0E1
:100B80000E94502067E972E08DEA97E00E945020B1
:100B900067E972E087EA97E00E94502083ED96E0D3
:100BA0000E94BA1467E972E083EC96E00E9450203C
:100BB00067E972E08DEB96E00E94502067E972E0F1
:100BC00087EB96E00E94502067E972E081EB96E0A7
:100BD0000E94502067E972E08BEA96E00E94502064
:100BE0004AE050E066E072E08FE496E00C94321444
:100BF0008BEA96E00E94E21F81EB96E00E94E21FE2
:100C000087EB96E00E94E21F8DEB96E00E94E21FC8
:100C100083EC96E00E94E21F83ED96E00E94D714D9
:100C200087EA97E00E94E21F8DEA97E00E94E21FA8
:100C300083EB97E00C94E21FCF93DF93CDB7DEB741
:100C4000C755D1090FB6F894DEBF0FBECDBF88E3FC
:100C500099E00E945A1B181619060CF0B0C120E446
:100C600030E0AE014F5F5F4F6AE088E399E00E9499
:100C7000AD1F43E050E068EE72E0CE0101960E94A5
:100C80005126892B09F0BDC04091CB065091CC066E
:100C90006091CD067091CE064F5F5F4F6F4F7F4FD3
:100CA0004093CB065093CC066093CD067093CE064E
:100CB0002AE0CE018F5B9F4F0E949E2020E030E013
:100CC00049E050E06EE676E0CE018F5B9F4F0E94D8
:100CD0003121CE018F5B9F4F0E94E21F84E1FE0114
:100CE0003596A7E7B6E001900D928A95E1F789E085
:100CF000EEE6F6E0AAE8B6E001900D928A95E1F7FB
:100D000085E0E7E7F6E0DE01AE5ABF4F01900D92B5
:100D10008A95E1F78AE0EDE7F6E0DE01AF5BBF4FD1
:100D200001900D928A95E1F76CEE72E085ED99E005
:100D30000E949B1EBE016F5B7F4F85ED99E00E9474
:100D40009B1E61E073E085ED99E00E949B1E40913F
:100D5000CB065091CC066091CD067091CE062AE06C
:100D6000CE01845B9F4F0E949E20BE01645B7F4F3B
:100D700085ED99E00E948D1ECE01845B9F4F0E94FD
:100D8000E21F68E574E085ED99E00E949B1E63E92F
:100D900076E085ED99E00E949B1E6EE273E085EDA2
:100DA00099E00E949B1E63EB77E085ED99E00E943D
:100DB0008D1E6CE373E085ED99E00E949B1EBE01E1
:100DC0006E5A7F4F85ED99E00E949B1E6AE473E0A6
:100DD00085ED99E00E949B1E6DE473E088E399E045
:100DE0000E949B1E67E776E088E399E00E949B1EC5
:100DF00068E874E088E399E00E94CA1E85E090E00C
:100E0000C7C043E050E06CE573E0CE0101960E945C
:100E10005126892B09F0C1C04091CB065091CC06D8
:100E20006091CD067091CE064F5F5F4F6F4F7F4F41
:100E30004093CB065093CC066093CD067093CE06BC
:100E40002AE0CE018F5B9F4F0E949E2020E030E081
:100E500049E050E06EE676E0CE018F5B9F4F0E9446
:100E60003121CE018F5B9F4F0E94E21F84E1FE0182
:100E70003596A7E7B6E001900D928A95E1F789E0F3
:100E8000EEE6F6E0AAE8B6E001900D928A95E1F769
:100E900085E0E7E7F6E0DE01AE5ABF4F01900D9224
:100EA0008A95E1F78AE0EDE7F6E0DE01AF5BBF4F40
:100EB00001900D928A95E1F76CEE72E085ED99E074
:100EC0000E949B1EBE016F5B7F4F85ED99E00E94E3
:100ED0009B1E60E673E085ED99E00E949B1E4091A9
:100EE000CB065091CC066091CD067091CE062AE0DB
:100EF000CE01845B9F4F0E949E20BE01645B7F4FAA
:100F000085ED99E00E948D1ECE01845B9F4F0E946B
:100F1000E21F68E574E085ED99E00E949B1E63E99D
:100F200076E085ED99E00E949B1E6EE273E085ED10
:100F300099E00E949B1E63EB77E085ED99E00E94AB
:100F40008D1E6DE873E085ED99E00E949B1EBE0149
:100F50006E5A7F4F85ED99E00E949B1E6AE473E014
:100F600085ED99E00E949B1E6BE973E088E399E0B0
:100F70000E949B1E67E776E088E399E00E949B1E33
:100F800068E874E088E399E00E94CA1E86E090E079
:100F90009093BA078093B90710C043E050E06AEA23
:100FA00073E0CE0101960E945126892B41F064EB3B
:100FB00073E088E399E00E94CA1E81E001C080E0EE
:100FC000C95ADF4F0FB6F894DEBF0FBECDBFDF9119
:100FD000CF9108950F931F93CF93DF93CDB7DEB7D3
:100FE0002C970FB6F894DEBF0FBECDBF88E399E013
:100FF0000E945A1B181619061CF501E088E399E0B7
:101000000E945A1B18161906DCF488E399E00E9426
:10101000751B182F8091A906612F811103C083ECE5
:1010200096E002C08DEB96E00E94FE201A3319F480
:101030000093A906E3CF1B3309F781E08093AA064A
:101040008091AA06882309F4E2C060EC73E083EC87
:1010500096E00E941221882381F06CEC73E08DEB06
:1010600096E00E941221882309F4B7C081E090E045
:101070009093BC078093BB07B0C060ED73E083EC36
:1010800096E00E941221882329F06CEC73E08DEB2E
:1010900096E0A1C06CE573E083EC96E00E9412211B
:1010A0008823C9F18091CB069091CC06A091CD0602
:1010B000B091CE060196A11DB11D8093CB069093F1
:1010C000CC06A093CD06B093CE0620E130E046E0FA
:1010D00050E06DEB76E0CE0107960E947B2125E083
:1010E00030E040E050E06DEB76E0CE0101960E94EA
:1010F0007B21BE01695F7F4FCE0101960E944304B0
:10110000CE0101960E94E21FCE0107960E94E21FC7
:1011100086E090E040C068EE72E083EC96E00E94CA
:1011200012218823E9F18091CB069091CC06A09101
:10113000CD06B091CE060196A11DB11D8093CB06C0
:101140009093CC06A093CD06B093CE0620E130E07C
:1011500046E050E06DEB76E0CE0107960E947B21E1
:1011600025E030E040E050E06DEB76E0CE01019606
:101170000E947B21BE01695F7F4FCE0101960E94D4
:101180004304CE0101960E94E21FCE0107960E9401
:10119000E21F85E090E09093BA078093B9071DC0E5
:1011A0006AEA73E083EC96E00E941221882379F0CA
:1011B0006DEB76E0CE0101960E947D20CE01019676
:1011C0000E949D03CE0101960E94E21F06C06AEDB7
:1011D00073E083EC96E00E94122167E972E083ECF1
:1011E00096E00E94862067E972E08DEB96E00E940F
:1011F000862067E972E087EB96E00E9486201092D5
:10120000A9061092A8061092AA0681E001C080E00B
:101210002C960FB6F894DEBF0FBECDBFDF91CF91F5
:101220001F910F9108955F926F927F928F929F927C
:10123000AF92BF92CF92DF92EF92FF920F931F93E4
:10124000CF93DF93CDB7DEB7C85ED1090FB6F89460
:10125000DEBF0FBECDBF7C018B011092CA0610927B
:10126000C90684E090E090931202809311021092DC
:10127000A60664EE73E08DEA97E00E94862067E997
:1012800072E083EB97E00E9486201092A70689E027
:10129000E3E1F2E0DE01AD52BF4F01900D928A957D
:1012A000E1F789E0ECE1F2E0DE01A653BF4F0190E7
:1012B0000D928A95E1F7FE01EF57FF4F86E2DF01BD
:1012C0001D928A95E9F78CE8808385E0818384E02C
:1012D000828380E28783D701AF52BF4F0D90BC91CC
:1012E000A02D109731F08D919D91AC9184839583C1
:1012F000A683980146E2BF01C7010E945E188130B3
:1013000041F068EE73E088E399E00E94CA1E80E035
:101310001EC365E074E088E399E00E94CA1E8FE076
:10132000E5E2F2E0DE01A554BF4F01900D928A95EF
:10133000E1F7F701EC52FF4F8081811106C08FEF7A
:10134000C753DF4F8883C95CD040F701ED52FF4F90
:101350001082C12CD12C5524539434E0632E712C6F
:101360005E01B7EAAB0EB11C40E8BE016F5F7F4F74
:10137000C7010E949C186B819C810D818A818034F9
:1013800009F4F8C138F4803209F4CBC0803309F491
:1013900003C184C2843A21F0803B09F477C07EC245
:1013A000662319F0643039F19DC29C30B1F50230EA
:1013B00009F07DC08E81813E09F079C08F81835014
:1013C000823008F074C000E09E0128513F4FAE010A
:1013D0004F5F5F4F60E070E0C7010E9464058F813E
:1013E00011E0833009F47AC2843009F07CC282E0D3
:1013F000C82ED12C78C249E050E0BE016C5F7F4F0F
:10140000CE018D529F4F0E945126892B71F481E0AD
:1014100090E09093BA078093B90700E09E012851AD
:101420003F4FAE014F5F5F4F79C049E050E0BE01D2
:101430006C5F7F4FCE0186539F4F0E945126892BB0
:10144000D9F46FE174E088E399E00E94CA1E0E941B
:10145000EA07811107C06AE070E080E090E00E9436
:101460004922F5CF00E09E0128513F4FAE014F5F6A
:101470005F4F65E070E08CC000E09E0128513F4F57
:10148000AE014F5F5F4F62E070E082C070E0762F88
:101490006627690F711D81E0C816D10491F092E0B2
:1014A000C916D104D1F0C114D10409F01BC200E067
:1014B0009E0128513F4FAE014F5F5F4F61E070E0EA
:1014C00067C06138710560F4802E912CABEBB0E001
:1014D000AC0FBD1F6A0F7B1F13C06138710550F040
:1014E00000E09E0128513F4FAE014F5F5F4F64E027
:1014F00070E04EC0802E912C6F5A7F4F6E0D7F1D75
:10150000A401CE0101960E945E2641E050E04C0FFE
:101510005D1F480D591D9E0128513F4F60E070E04E
:1015200037C06111DFC19111DDC1DE011696ECE912
:10153000F6E010E0CF018C599640081719071CF00F
:101540008D918193F7CF6FE274E088E399E00E9478
:10155000CA1E0E94EA07811107C06AE070E080E0BD
:1015600090E00E944922F5CF8091B9079091BA0787
:101570008230910509F451CF089709F0B3C100E01A
:101580009E0128513F4FAE014F5F5F4F6AE070E010
:10159000C7010E946405A6C16111A4C19111A2C135
:1015A000DE011696F50110E0CF018A199B09081794
:1015B00019071CF08D918193F7CFF501E00FF11F12
:1015C0001082B501CE018E519F4F0E9450206CE2D7
:1015D000CE018E519F4F0E9477218C016BE3CE018B
:1015E0008E519F4F0E9477214C0198012150310963
:1015F00040E050E0BE016E517F4FCE0184529F4FBC
:101600000E947B21BE0164527F4F83EB97E00E94D2
:101610006620CE0184529F4F0E94E21FA8014F5FB7
:101620005F4F9401BE016E517F4FCE0184529F4F98
:101630000E947B21BE0164527F4F8DEA97E00E9499
:101640006620CE0184529F4F0E94E21F6DE374E03A
:1016500088E399E00E949B1EBE016E517F4F88E394
:1016600099E00E948D1E68E874E088E399E00E948A
:10167000CA1E60ED73E088E399E00E949B1E6DEA4C
:1016800077E088E399E00E948D1E68E874E088E3C3
:1016900099E00E94CA1E64E670E080E090E00E943B
:1016A00049220E94EA07811105C06AE070E080E0EB
:1016B00090E0F5CF1092BA071092B90700E09E01B2
:1016C00028513F4FAE014F5F5F4F60E070E0C701B0
:1016D0000E9464058091A706811146C06CEE72E0FD
:1016E00085ED99E00E949B1E4091CF065091D00657
:1016F0006091D1067091D2062AE0CE0184529F4FAC
:101700000E949E20BE0164527F4F85ED99E00E94A9
:101710008D1ECE0184529F4F0E94E21F62E474E04E
:1017200085ED99E00E949B1E63E976E085ED99E0E6
:101730000E949B1E6EE273E085ED99E00E949B1E65
:1017400063EB77E085ED99E00E948D1E6AE473E01B
:1017500085ED99E00E949B1E69E674E088E399E0BC
:101760000E94CA1E5092A706CE018E519F4F0E9422
:10177000E21FB8C06111B6C09111B4C00E941C062E
:101780008091B9079091BA078530910511F18630A3
:10179000910509F44CC0892B09F079C01092BA0761
:1017A0001092B90765E774E088E399E00E94CA1EC9
:1017B00000E09E0128513F4FAE014F5F5F4F66E052
:1017C00070E0C7010E9464057092120260921102DB
:1017D0005EC01092BA071092B9076AE874E088E315
:1017E00099E00E949B1E61EA74E088E399E00E9400
:1017F0009B1E4091CB065091CC066091CD06709116
:10180000CE062AE030E088E399E00E94351F68E8C0
:1018100074E088E399E00E94CA1E00E09E0128510E
:101820003F4FAE014F5F5F4F67E070E02DC01092F9
:10183000BA071092B90763EB74E088E399E00E945D
:101840009B1E61EA74E088E399E00E949B1E409130
:10185000CB065091CC066091CD067091CE062AE061
:1018600030E088E399E00E94351F68E874E088E37F
:1018700099E00E94CA1E00E09E0128513F4FAE0130
:101880004F5F5F4F68E070E0C7010E94640562E34C
:1018900070E080E090E00E94492224C08091C90657
:1018A0009091CA0601969093CA068093C90611E0EA
:1018B00004970CF010E069EC74E088E399E00E9472
:1018C0009B1E00E09E0128513F4FAE014F5F5F4FCE
:1018D00062E070E0C7010E94640505C0CC24C39497
:1018E000D12C01C011E064EE74E088E399E00E941D
:1018F000CA1E00E020E030E0C851DF4F4881C85EDA
:10190000D040BE016F5F7F4FC7010E94EA18892B4C
:1019100059F46AEF74E088E399E00E94CA1E60E01F
:10192000C7010E94551902C011111ECD6AE175E070
:1019300088E399E00E94CA1E6FE275E088E399E0AF
:101940000E94CA1E60E0C7010E94551981E0C8517B
:10195000DF4F0FB6F894DEBF0FBECDBFDF91CF9142
:101960001F910F91FF90EF90DF90CF90BF90AF90BD
:101970009F908F907F906F905F90089561E085E3D6
:101980000E94602361E085E30E9427238CB580617B
:101990008CBD8CB580648CBD61E084E30E942723FC
:1019A00061E083E30C942723CF93DF93EC0144E1C0
:1019B00050E066EE71E08B5B9F4F0E944826FE016F
:1019C000E75AFF4F1082118212821382CC5BDF4FE5
:1019D0001882DF91CF9108952F923F924F925F929C
:1019E0006F927F928F929F92AF92BF92CF92DF922F
:1019F000EF92FF920F931F93CF93DF93CDB7DEB794
:101A0000A0970FB6F894DEBF0FBECDBF9E8F8D8F0F
:101A10009C012B5B3F4FD9014D915D916D917C9164
:101A20004D835E836F8378872C5F3F4FD9014D9143
:101A30005D916D917C9149875A876B877C872C5F7C
:101A40003F4FD9014D915D916D917C914D875E879E
:101A50006F87788B2C5F3F4FD9014D915D916D91D0
:101A60007C91498B5A8B6B8B7C8B2C5F3F4FD901C0
:101A70004D915D916D917C914D8B5E8B6F8B788FCD
:101A8000498F5A8F6B8F7C8F09891A892B893C89E2
:101A9000CD84DE84EF84F88889849A84AB84BC8406
:101AA0004D815E816F81788549835A836B837C8306
:101AB000212C312C422D403198F4D901C8018C25BC
:101AC0009D25AE25BF2588219921AA21BB218027EC
:101AD0009127A227B32787569648AD47B54A8FC0AE
:101AE000822D8F706D8D7E8D54E0859F600D711DF0
:101AF0001124D1011D96AF70BB271196AA0FBB1FF1
:101B0000AA0FBB1F8D8D9E8DA80FB91FF1013896AE
:101B1000EF70FF273196EE0FFF1FEE0FFF1FE80F4C
:101B2000F91F8D919D910D90BC91A02D4080518009
:101B30006280738084259525A625B725FB01448006
:101B400055806680778084259525A625B725F101E7
:101B50003296EF70FF273196EE0FFF1FEE0FFF1F3B
:101B60006D8C7E8CE60DF71D408051806280738005
:101B700084259525A625B725880F991FAA1FBB1F69
:101B8000811DFB0184839583A683B783443108F4C8
:101B900094CFD701C601483268F488259925AA2533
:101BA000BB2580279127A227B3278F559441A642B2
:101BB000B14925C04C33B8F488299929AA29BB29F1
:101BC00080239123A223B3232601370148205920E3
:101BD0006A207B2084299529A629B7298452934419
:101BE000A44EB0470CC088259925AA25BB2580277F
:101BF0009127A227B3278A529E43AD49B5434F7020
:101C00006D8C7E8C54E0459F600C711C112478A271
:101C10006F8E49815A816B817C81EBE17695679566
:101C200057954795EA95D1F749805A806B807C801B
:101C3000F5E0440C551C661C771CFA95D1F7442935
:101C4000552966297729EF8DF8A144805580668053
:101C50007780440D551D661D771D480F591F6A1F5B
:101C60007B1F898D9A8DAB8DBC8D480F591F6A1FC4
:101C70007B1FD501C401E2E0B695A795979587959E
:101C8000EA95D1F7FEE1880C991CAA1CBB1CFA95B9
:101C9000D1F7882A992AAA2ABB2A9FEF291A390A3A
:101CA000A0E52A16310489F0098F1A8F2B8F3C8FFB
:101CB000970186017501640189809A80AB80BC80A0
:101CC00049835A836B837C83F5CEED8DFE8DEB5B70
:101CD000FF4F8D819E81AF81B885480F591F6A1FC4
:101CE0007B1F40835183628373836D8C7E8C99E468
:101CF000690E711C89819A81AB81BC8149855A85A5
:101D00006B857C85840F951FA61FB71FF301808309
:101D10009183A283B383ED8DFE8DE35BFF4F4D85F1
:101D20005E856F857889840E951EA61EB71E8082FB
:101D30009182A282B382ED8DFE8DEF5AFF4F6989A9
:101D40007A898B899C89C60ED71EE81EF91EC0822F
:101D5000D182E282F3824D8D5E8D4B5A5F4F8D8929
:101D60009E89AF89B88D080F191F2A1F3B1FDA0102
:101D70000D931D932D933C931397A0960FB6F89453
:101D8000DEBF0FBECDBFDF91CF911F910F91FF90AE
:101D9000EF90DF90CF90BF90AF909F908F907F900B
:101DA0006F905F904F903F902F900895CF93DF9367
:101DB000EC01CC5BDF4F388123E02327FC01E20FED
:101DC000F11D648321E0230F2883203419F40E943D
:101DD000EC0C1882DF91CF910895262FFC01E75A71
:101DE000FF4F40815181628173814F5F5F4F6F4F21
:101DF0007F4F4083518362837383622F0E94D60E8C
:101E000081E090E008950F931F93CF93DF93EC014F
:101E100060E80E94D60E8E010C5B1F4FF801808196
:101E200060E0883321F0CE010E94D60EF7CFCE01BC
:101E30000E94D60E60E0CE010E94D60E60E0CE0178
:101E40000E94D60E8E01075A1F4FF80160817181E2
:101E500082819381EDE19695879577956795EA95CF
:101E6000D1F7CE010E94D60EF80160817181828186
:101E70009381F5E19695879577956795FA95D1F7D2
:101E8000CE010E94D60EF80160817181828193811A
:101E9000ADE09695879577956795AA95D1F7CE0190
:101EA0000E94D60EF8016081718182819381B5E034
:101EB0009695879577956795BA95D1F7CE010E944B
:101EC000D60EF8016081660F660F660FCE01DF91B6
:101ED000CF911F910F910C94D60ECF93DF93EC010D
:101EE0000E94030FAE0125E030E0FA01EB5BFF4FEB
:101EF00060817181828193810E94F223608371836A
:101F000082839383215031094C5F5F4F2115310546
:101F100061F7CE018B5B9F4FDF91CF910895AF9218
:101F2000BF92CF92DF92EF92FF920F931F93CF93C6
:101F3000DF9300D01F92CDB7DEB75C017C018DE549
:101F4000E80EF11C80E4D7011D928A95E9F741342F
:101F5000510554F1C50149835A836B837C830E94E8
:101F6000D40C6B81062F7C81172F49815A8168011F
:101F7000C40ED51E0C151D0561F0F80161918F018D
:101F8000D501ED91FC910190F081E02DC5011995ED
:101F9000F1CFC5010E946D0F24E1FC01D701019032
:101FA0000D922A95E1F703C0C7010E945E26C50184
:101FB0000E94D40C85017501B0E4EB0EF11C86E3A0
:101FC000D82ED501ED91FC91D801A35ABF4F6C9149
:101FD0006D250190F081E02DC50119950F5F1F4F10
:101FE0000E151F0571F70F900F900F900F90DF9156
:101FF000CF911F910F91FF90EF90DF90CF90BF9006
:10200000AF900895DF92EF92FF920F931F93CF93BB
:10201000DF93EC010E946D0FDE01A356BF4F24E158
:10202000FC0101900D922A95E1F7CE010E94D40C9B
:102030007E0180E4E80EF11C8E019CE5D92EE8813A
:10204000F981D801A35ABF4F6C916D250190F081A1
:10205000E02DCE0119950F5F1F4F0E151F0579F763
:102060007E0184E1E80EF11C8E01E881F981D8013E
:10207000A356BF4F0190F081E02D6C91CE011995D0
:102080000F5F1F4F0E151F0581F7CE01DF91CF9116
:102090001F910F91FF90EF90DF900C946D0F1092B5
:1020A000C1071092C00783E495E09093BF07809327
:1020B000BE0708952F923F924F925F926F927F9248
:1020C0008F929F92AF92BF92CF92DF92EF92FF9248
:1020D0000F931F93CF93DF93CDB7DEB7EF970FB674
:1020E000F894DEBF0FBECDBF9FAF8EAF9C012B5BC0
:1020F0003F4FD9018D919D910D90BC91A02D8C8F5A
:102100009D8FAE8FBF8F2EAD3FAD275B3F4FD90167
:102110008D919D910D90BC91A02D88A399A3AAA308
:10212000BBA32EAD3FAD235B3F4FD9018D919D9158
:102130000D90BC91A02D8CA39DA3AEA3BFA32EADEB
:102140003FAD2F5A3F4FD9018D919D910D90BC917C
:10215000A02D88A799A7AAA7BBA72EAD3FAD2B5A44
:102160003F4FD9018D919D910D90BC91A02D8CA7D1
:102170009DA7AEA7BFA72EAD3FAD275A3F4FD901B0
:102180008D919D910D90BC91A02D88AB99ABAAAB80
:10219000BBAB2EAD3FAD235A3F4FD9018D919D91E1
:1021A0000D90BC91A02D8CAB9DABAEABBFAB2EAD5B
:1021B0003FAD2F593F4FD9018D919D910D90BC910D
:1021C000A02D88AF99AFAAAFBBAF2AEF31E03B8F0C
:1021D0002A8F4C015D018CA99DA9AEA9BFA98A8B4C
:1021E0009B8BAC8BBD8B28A939A94AA95BA92E8BE7
:1021F0003F8B488F598F8CA59DA5AEA5BFA5898320
:102200009A83AB83BC8328A539A54AA55BA52E87F5
:102210003F87488B598B8CA19DA1AEA1BFA18A8716
:102220009B87AC87BD8728A139A14AA15BA12E83DA
:102230003F83488759874C8D5D8D6E8D7F8DAAEFCA
:102240002A2E33243A941D82C980DA80EB80FC80E8
:102250008BE0F694E794D794C7948A95D1F7898157
:102260009A81AB81BC8125E1880F991FAA1FBB1FF2
:102270002A95D1F7C82AD92AEA2AFB2A09811A8184
:102280002B813C81E6E03695279517950795EA95D1
:10229000D1F749805A806B807C80FAE1440C551C50
:1022A000661C771CFA95D1F70429152926293729A8
:1022B000C026D126E226F32609811A812B813C8192
:1022C000A9E13695279517950795AA95D1F74980E5
:1022D0005A806B807C80B7E0440C551C661C771CD0
:1022E000BA95D1F70429152926293729C026D126E0
:1022F000E226F3260A891B892C893D898E899F89CC
:10230000A88DB98D082719272A273B2789819A810B
:10231000AB81BC81082319232A233B238A899B890B
:10232000AC89BD89082719272A273B27EA8DFB8D11
:102330004590559065907490C00ED11EE21EF31E1C
:10234000C40CD51CE61CF71C8D818F70EEADFFAD63
:1023500094E0899FE00DF11D112484819581A6816F
:10236000B781C80ED91EEA1EFB1EC80CD91CEA1C78
:10237000FB1C4A015B011DE0B694A79497948794D7
:102380001A95D1F7DB01CA0103E1880F991FAA1F33
:10239000BB1F0A95D1F7882A992AAA2ABB2A8A0143
:1023A0009B0182E036952795179507958A95D1F779
:1023B0002A013B019EE1440C551C661C771C9A9532
:1023C000D1F7042915292629372980269126A22606
:1023D000B3268A019B01E6E1369527951795079567
:1023E000EA95D1F72A013B01FAE0440C551C661C22
:1023F000771CFA95D1F70429152926293729802633
:102400009126A226B3260E811F81288539858A85CB
:102410009B85AC85BD85082B192B2A2B3B2B0423D0
:102420001523262337234E805F80688479844822D1
:1024300059226A227B220429152926293729080DC9
:10244000191D2A1D3B1D8E859F85A889B9898C0D74
:102450009D1DAE1DBF1D8E879F87A88BB98B0C0D50
:102460001D1D2E1D3F1D9D819F5F9D83903409F48E
:102470000AC18D81803108F4CBC08F70AEADBFAD85
:10248000E4E08E9FA00DB11D1124BDAFACAFD10112
:10249000AF70BB271196AA0FBB1FAA0FBB1F8EAD33
:1024A0009FADA80FB91FECADFDADC480D580E6800F
:1024B000F7808D919D910D90BC91A02DC80ED91ED5
:1024C000EA1EFB1EF1013596EF70FF273196EE0FE5
:1024D000FF1FEE0FFF1F8EAD9FADE80FF91F40806D
:1024E00051806280738053014201E1E1B694A79468
:1024F00097948794EA95D1F7D301C201FFE0880F42
:10250000991FAA1FBB1FFA95D1F7882A992AAA2AD0
:10251000BB2AD301C201EAE0B695A79597958795A6
:10252000EA95D1F788269926AA26BB26D301C201AF
:10253000F3E1B695A79597958795FA95D1F7EDE0D4
:10254000440C551C661C771CEA95D1F78429952903
:10255000A629B72988269926AA26BB26C80CD91CE5
:10256000EA1CFB1CF1013897EF70FF273196EE0F44
:10257000FF1FEE0FFF1FAEADBFADEA0FFB1F408088
:1025800051806280738053014201B7E0B694A794F2
:1025900097948794BA95D1F7D301C201E9E1880FE6
:1025A000991FAA1FBB1FEA95D1F7882A992AAA2A40
:1025B000BB2AD301C201F3E0B695A79597958795FD
:1025C000FA95D1F788269926AA26BB26D301C201FF
:1025D000E2E1B695A79597958795EA95D1F7FEE044
:1025E000440C551C661C771CFA95D1F78429952953
:1025F000A629B72988269926AA26BB26C80CD91C45
:10260000EA1CFB1CECADFDADC482D582E682F782EC
:102610008A8D9B8D04969B8F8A8F9FEF291A390A8A
:102620008A889B88AC88BD888E899F89A88DB98D42
:102630008A8B9B8BAC8BBD8B89819A81AB81BC8152
:102640008E8B9F8BA88FB98F8E859F85A889B9891E
:1026500089839A83AB83BC838A859B85AC85BD8542
:102660008E879F87A88BB98B8E819F81A885B9851E
:102670008A879B87AC87BD874E835F83688779870E
:10268000B901A801E1CDEEADFFADEB5BFF4F8C8D45
:102690009D8DAE8DBF8D080F191F2A1F3B1F008314
:1026A000118322833383EEADFFADE75BFF4F88A13B
:1026B00099A1AAA1BBA1480F591F6A1F7B1F408384
:1026C0005183628373836EAD7FAD635B7F4F8E8179
:1026D0009F81A885B9852CA13DA14EA15FA1820F44
:1026E000931FA41FB51FFB0180839183A283B38333
:1026F0006EAD7FAD6F5A7F4F8A859B85AC85BD855A
:1027000028A539A54AA55BA5820F931FA41FB51F55
:10271000FB0180839183A283B3836EAD7FAD6B5A3F
:102720007F4F8E859F85A889B9892CA53DA54EA58B
:102730005FA5820F931FA41FB51FFB0180839183A8
:10274000A283B3836EAD7FAD675A7F4F89819A8133
:10275000AB81BC8128A939A94AA95BA9820F931F23
:10276000A41FB51FFB0180839183A283B3836EAD49
:102770007FAD635A7F4F8E899F89A88DB98D2CA913
:102780003DA94EA95FA9820F931FA41FB51FFB018E
:1027900080839183A283B3836EAD7FAD6F597F4FEA
:1027A0008A899B89AC89BD8928AD39AD4AAD5BADBD
:1027B000820F931FA41FB51FFB0180839183A28307
:1027C000B383EF960FB6F894DEBF0FBECDBFDF9197
:1027D000CF911F910F91FF90EF90DF90CF90BF901E
:1027E000AF909F908F907F906F905F904F903F90B1
:1027F0002F900895CF93DF93EC01CC5BDF4F3881AE
:1028000023E02327FC01E20FF11D648321E0230F65
:102810002883203419F40E945A101882DF91CF9136
:102820000895262FFC01EB59FF4F408151816281B1
:1028300073814F5F5F4F6F4F7F4F40835183628340
:102840007383622F0E94FA1381E090E00895109242
:102850007208109271088BE495E090937008809351
:102860006F080895FC017183608353834283089548
:10287000CF93DF93EC01CB01BA012EE130E040E0D1
:1028800050E00E94CD232C833D834E835F831886C6
:1028900019861A861B865C874D873E872F874A815B
:1028A0005B81688179818EEB97E00E948F0FE091C8
:1028B000BE07F091BF07BE01685F7F4F0280F381C2
:1028C000E02D48E050E08EEB97E019958EEB97E015
:1028D0000E940210998B888BFC0143894F7050E055
:1028E0005B8B4A8B1C8A1D8A1E8A1F8A20E030E07F
:1028F000840F951F4C895D896E897F89762F652F9E
:10290000542F44274C8B5D8B6E8B7F8BFC01E20F29
:10291000F31FE0814E2B4C8B5D8B6E8B7F8B2F5F7B
:102920003F4F2430310531F7CB01BA019F7720E4C6
:1029300032E44FE050E00E94CD236C8B7D8B8E8B78
:102940009F8B68969F938F937F936F938FE495E00F
:102950009F938F93DF93CF930E94E226EDB7FEB74C
:1029600038960FB6F894FEBF0FBEEDBFCE01DF91D3
:10297000CF910895EF92FF920F931F93CF93DF9320
:102980008C01EC017C0184E3E80EF11CCE010E9475
:102990009A162D96CE15DF05C9F7F80115AA14AAC7
:1029A000DF91CF911F910F91FF90EF9008950F93BA
:1029B0001F93CF93DF938C01009751F0EC01E496C5
:1029C000C017D10729F02D97CE010E94A916F8CF84
:1029D000DF91CF911F910F910895AF92BF92CF9247
:1029E000DF92EF92FF920F931F93CF93DF93CDB7B8
:1029F000DEB72D970FB6F894DEBF0FBECDBF8C01AA
:102A00006B0186179707E9F17C01A12CB12CF80125
:102A100084A995A9A816B906A8F4CE0101960E942A
:102A20009A16BE016F5F7F4FC7010E94C916CE0183
:102A300001960E94A9168FEFA81AB80AEDE0EE0ED3
:102A4000F11CE5CFF60184A995A9F80195AB84ABFB
:102A5000E12CF12CA12CB12CF80184A995A9A81680
:102A6000B90678F4B6016E0D7F1DC8018E0D9F1D4D
:102A70000E94C916FFEFAF1ABF0A8DE0E80EF11CE5
:102A8000EBCFC8012D960FB6F894DEBF0FBECDBFB9
:102A9000DF91CF911F910F91FF90EF90DF90CF903A
:102AA000BF90AF900895CF92DF92EF92FF920F9375
:102AB0001F93CF93DF936C017C0100E010E0C0E036
:102AC000D0E0F60184A995A90817190758F4C701A1
:102AD0000E943217C80FD91F0F5F1F4F8DE0E80EFD
:102AE000F11CEFCFCE01DF91CF911F910F91FF909D
:102AF000EF90DF90CF900895CF92DF92EF92FF9208
:102B00000F931F93CF93DF936C017B018C01C0E087
:102B1000D0E0F60184A995A9C817D907B8F4219681
:102B200021E0C817D90709F020E041E0C130D10504
:102B300009F040E0B701C8010E946317C8010E9474
:102B40003217E80EF91E035F1F4FE3CFDF91CF91DD
:102B50001F910F91FF90EF90DF90CF900895CF934A
:102B6000DF93EC012CA93DA92430310588F44DE018
:102B7000429FC001439F900D11248C0F9D1F0E9406
:102B8000C9168CA99DA901969DAB8CAB81E007C0AD
:102B90006AEF72E088E399E00E94B81E80E0DF915E
:102BA000CF9108956F927F928F929F92AF92BF9232
:102BB000CF92DF92EF92FF920F931F93CF93DF9309
:102BC000CDB7DEB72D970FB6F894DEBF0FBECDBFE1
:102BD0006C018B015A0149016DB67EB6CE0101969A
:102BE0000E949A1662E0CE0101960E94B917F80180
:102BF000448155814F5F5F4F8DB79EB7841B950B06
:102C00000FB6F8949EBF0FBE8DBFEDB7FEB73196DD
:102C10007F0120E030E0BF01C8010E943121F801AE
:102C200044815581B701CE0101960E94BC17A401D1
:102C3000B501CE0101960E94DF17BE016F5F7F4F85
:102C4000C6010E94AF15CE0101960E94A9160FB6CB
:102C5000F8947EBE0FBE6DBE2D960FB6F894DEBF03
:102C60000FBECDBFDF91CF911F910F91FF90EF90DD
:102C7000DF90CF90BF90AF909F908F907F906F909C
:102C800008958F929F92AF92BF92CF92DF92EF9270
:102C9000FF920F931F93CF93DF9300D000D0CDB757
:102CA000DEB75C014B018A01CDB6DEB6FA01448184
:102CB00055814F5F5F4F8DB79EB7841B950B0FB645
:102CC000F8949EBF0FBE8DBFEDB7FEB731967F0162
:102CD00020E030E0BF01C8010E943121F8010481E9
:102CE0001581B401CE0101960E947D209801A701B3
:102CF000BE016F5F7F4FC5010E94D215CE010196C4
:102D00000E94E21F0FB6F894DEBE0FBECDBE26961F
:102D10000FB6F894DEBF0FBECDBFDF91CF911F91EC
:102D20000F91FF90EF90DF90CF90BF90AF909F906A
:102D30008F900895FC0110821282118214821382F6
:102D400016821582108617821286118614861386C3
:102D50000895CF93DF93EC0189819A81892B21F02B
:102D60008F8198850E94A9248B819C81892B21F0D9
:102D700089859A850E94A9248D819E81892B31F0B5
:102D80008B859C85DF91CF910C94A924DF91CF9105
:102D90000895EF92FF920F931F93CF93DF93EC016F
:102DA0008B018617970709F455C089819A81892B71
:102DB00021F08F8198850E94A9248B819C81892B89
:102DC00021F089859A850E94A9248D819E81892B75
:102DD00021F08B859C850E94A924F801808188833D
:102DE000E180F280FA82E982838194819C838B83E3
:102DF000858196819E838D83E114F10459F0C7018A
:102E00000E94112498878F83F80167817085A7013C
:102E10000E945E26EB80FC80E114F10459F0C701AA
:102E20000E9411249A878987F80161857285A7011C
:102E30000E945E26ED80FE80E114F10459F0C70186
:102E40000E9411249C878B87F80163857485A701F4
:102E50000E945E26CE01DF91CF911F910F91FF90CE
:102E6000EF900895FC01438154814F3F510521F0BB
:102E70001CF026E030E002C023E030E0658176817E
:102E80006115710511F02F5F3F4F81819281860F8F
:102E9000971F840F951F820F931F0895FC012081B7
:102EA0006111206830E041112064838194818F3F5B
:102EB000910509F00CF4206185819681892B09F038
:102EC0002860822F0895EF92FF920F931F93CF9364
:102ED000DF93EC018B01642F422F0E944E17F80103
:102EE0008083898181838B819C818F3F910509F04B
:102EF00024F482830D5F1F4F09C0F80112821382F0
:102F00008C8184838B8185830A5F1F4F8D819E8195
:102F1000009719F0F80181938F016F8178854981BD
:102F20005A81C8010E945E26E980FA80E00EF11EF7
:102F300069857A854B815C81C7010E945E268B8101
:102F40009C814D815E814115510561F06B857C85C9
:102F50008E0D9F1DDF91CF911F910F91FF90EF90EC
:102F60000C945E26DF91CF911F910F91FF90EF900F
:102F70000895FC0160830895EF92FF920F931F93D1
:102F8000CF93DF93EC017B018A0189819A81892BA0
:102F900021F08F8198850E94A924C8010E941124E4
:102FA00098878F83A801B7010E945E261A83098340
:102FB000DF91CF911F910F91FF90EF900895EF92C5
:102FC000FF920F931F93CF93DF93EC017B018A0154
:102FD0008B819C81892B21F089859A850E94A92467
:102FE000C8010E9411249A878987A801B7010E940D
:102FF0005E261C830B83DF91CF911F910F91FF9071
:10300000EF900895815B9F4FFC0171836083089569
:10301000CF93DF93EC01C15BDF4F88819981DC01A5
:10302000ED91FC910190F081E02D199588819981B5
:10303000DC01ED91FC910280F381E02DDF91CF91D5
:103040001994EF92FF920F93CF93DF93FC0194E1D9
:10305000978781E0808B918B828B7F018FE4E80ED4
:10306000F11CD7018D919C91EF012F96DC01ED9120
:10307000FC910480F581E02D00E020E030E044E0A8
:10308000BE011995811112C0F70180819181DC0187
:10309000ED91FC910680F781E02D20E030E040E4E6
:1030A000BE01199521E0181619060CF020E0822FB8
:1030B000DF91CF910F91FF90EF900895CF92DF9223
:1030C000EF92FF920F93CF93DF93EC0169017C01A4
:1030D0008FE4E80EF11CD7018D919C91DC01ED91FC
:1030E000FC910480F581E02D00E020E030E01995AE
:1030F00087FD15C0F70180819181DC01ED91FC9184
:10310000BE01615F7F4F0680F781E02D960140E4AC
:103110001995181634F08E3F31F480E005C08FEF1A
:1031200003C081E001C08EEFDF91CF910F91FF903E
:10313000EF90DF90CF900895EF92FF920F931F933F
:10314000CF93DF93EB01142F26E82883815B9F4FF9
:103150007C01DC018D919C91DC01ED91FC9104805E
:10316000F581E02D00E020E030E041E0199581118B
:1031700026C0F70180819181DC01ED91FC910680F0
:10318000F781E02D20ED37E0412FBE01199518168B
:103190001906CCF49C01215031098881811111C09C
:1031A00040E0842F90E08217930738F4FE01E80F87
:1031B000F91F818180834F5FF4CFC90104C08FEF75
:1031C00001C08BEF9FEFDF91CF911F910F91FF9087
:1031D000EF900895EF92FF920F93CF93DF93EC015E
:1031E0004034E8F0232B19F080E090E058C0DC0177
:1031F0001F966A177B07C1F38EE88F87FE01E15B9C
:10320000FF4F80819181FC0120813181F901E480AF
:10321000F580042F9B0141E0BD01F70124C05FEF61
:10322000540F5F3F79F0852F992787FD9095FB011B
:10323000E80FF91FE081DE01A80FB91F5096EC934B
:103240005150EFCF8EE88F87FE01E15BFF4F808109
:103250009181DC01ED91FC914F5F0480F581E02DBF
:10326000BE01615F7F4F19958111BECFFE01E15B09
:10327000FF4F80819181DC01ED91FC910680F78107
:10328000E02D28EB3BE040E4BE01615F7F4F1995E4
:1032900097FDAACF81E090E02F85211180E0DF919A
:1032A000CF910F91FF90EF900895EF92FF920F93BF
:1032B000CF93DF93FC0182E58787608B7F018FE4EA
:1032C000E80EF11CD7018D919C91EF012F96DC0146
:1032D000ED91FC910480F581E02D00E020E030E0EC
:1032E00042E0BE011995811113C0F70180819181DF
:1032F000DC01ED91FC910680F781E02D20E030E0CB
:1033000040E4BE01DF91CF910F91FF90EF901994AF
:1033100080E090E0DF91CF910F91FF90EF900895C2
:1033200061E0FC0184810E9427230E94BE0C8CB5C1
:10333000837F8CBD8CB580628CBD8CB58C7F8160A9
:103340008CBD8DB581608DBD0895CF93DF93EC0169
:1033500060E08C810E94602362E070E080E090E099
:103360000E94492261E08C81DF91CF910C9460230F
:103370008EBD00000DB407FEFDCF8EB5089580E030
:103380000C94B819FC0189E595E09183808315823E
:1033900073836283448308951F93CF93DF93EC017B
:1033A00060E08C810E94602382E00E94B8190E9434
:1033B000BF19182F61E08C810E946023812F8170DA
:1033C000DF91CF911F910895BF92CF92DF92EF923C
:1033D000FF920F931F93CF93DF938C01D62EB72EBE
:1033E000C42E7901C0E0D0E0C8010E94CC1981113F
:1033F00010C061E070E080E090E00E9449222196D8
:10340000E114F10489F3EC16FD0670F78EEF9FEFDF
:1034100059C060E0F80184810E94602361E070E09F
:1034200080E090E00E94492283E00E94B8190E9447
:10343000BF19811115C00E94BF19811111C00E94CE
:10344000BF198F3F69F40E94BF19F82E0E94BF195F
:103450008F0D31F4F801C5810E94BF19853D49F0F7
:10346000CDEFDFEF61E0F80184810E946023CE019F
:1034700029C00E94BF1991E09C0F9813F1CFFA94D4
:10348000FA94CF1438F40E94BF190E94BF19CCEFF0
:10349000DFEFE8CF86EDE82EEC0ECD2CCD2DDB2D29
:1034A0008C2F8C198F1528F40E94BF198993E80E70
:1034B000F7CF0E94BF198E0D99F60E94BF19CF2D2C
:1034C000D0E0D0CFDF91CF911F910F91FF90EF907F
:1034D000DF90CF90BF9008958F929F92AF92BF924E
:1034E000CF92DF92EF92FF920F931F93CF93DF93D0
:1034F0007C01162FD72EB42EA22E932E60E0FC0155
:1035000084810E94602362E070E080E090E00E948D
:10351000492281E00E94B81980E00E94B81980E039
:103520000E94B8198FEF0E94B819C1E0C00FCB0DEF
:103530008C2F0E94B8198C2F81950E94B81984EDA8
:103540000E94B819812EC12FDD2D14ED8C2F881902
:103550008B1540F46E0189910E94B819F6018081A3
:10356000180FF4CFBA2CCA2DD92D8C2F8B19801798
:1035700040F46E0189910E94B819F6018081180FFC
:10358000F4CF812F81950E94B81980E00E94B8196C
:1035900061E0F7018481DF91CF911F910F91FF903E
:1035A000EF90DF90CF90BF90AF909F908F900C9452
:1035B0006023AF92BF92CF92DF92EF92FF920F9370
:1035C0001F93CF93DF93CDB7DEB72C970FB6F89448
:1035D000DEBF0FBECDBF7C0186E0E4E3F2E0DE019A
:1035E000179601900D928A95E1F760E0F7018481CA
:1035F0000E94602361E070E080E090E00E94492238
:1036000083E00E94B8198E010F5F1F4F6E01F7E033
:10361000CF0ED11CB02EA12E0E94BF19F8018193AC
:103620008F01EC15FD05C1F761E0F70184810E946F
:10363000602346E050E0B8018B2D9A2D0E94512660
:103640002C960FB6F894DEBF0FBECDBFDF91CF91A1
:103650001F910F91FF90EF90DF90CF90BF90AF90B0
:1036600008950F931F93CF93DF93EC01FB018081AB
:103670008D83CE010E946C1A1AE0CE010E94CC19F3
:1036800081110AC061E070E080E090E00E94492270
:10369000115099F78EEF09C0CE010E94D91A91E01E
:1036A000811101C090E0892F8195DF91CF911F9109
:1036B0000F910895FC01818D228D90E0805C9F4FD9
:1036C000821B910960E470E00E9497230895FC0139
:1036D000918D828D981731F0828DE80FF11D858DC7
:1036E00090E008958FEF9FEF0895FC01918D828DFA
:1036F000981761F0828DDF01A80FB11D5D968C9146
:10370000928D9F5F9F73928F90E008958FEF9FEF50
:10371000089580E39DE1892B41F080E090E0892BC2
:1037200021F00E94301D811125C08DED9DE1892B76
:1037300041F080E090E0892B21F00E94DD1D811195
:103740001CC080E090E0892B41F080E090E0892B64
:1037500021F00E940000811113C080E090E0892BCD
:10376000A1F080E090E0892B81F00E94000081119F
:103770000AC008950E940000D8CF0E940000E1CF47
:103780000E940000EACF0C9400000895FC01848D93
:10379000DF01A80FB11DA35ABF4F2C91848D90E07B
:1037A00001968F739927848FA689B7892C93A08956
:1037B000B1898C9180648C93938D848D981306C00D
:1037C0000288F389E02D80818F7D80830895CF93D7
:1037D000DF93EC01888D8823C9F0EA89FB89808119
:1037E00085FD05C0A889B9898C9186FD0FC00FB6EB
:1037F00007FCF5CF808185FFF2CFA889B9898C912C
:1038000085FFEDCFCE010E94C61BE7CFDF91CF91A0
:103810000895CF92DF92FF920F931F93CF93DF9380
:103820001F92CDB7DEB76C01DC015B969C915B9774
:103830005C968C915C97981307C05096ED91FC9123
:103840005197808185FD32C0F601038D10E00F5F36
:103850001F4F0F731127F02EF601848DF81211C03F
:103860000FB607FCF9CFD6015096ED91FC91519718
:10387000808185FFF1CFC60169830E94C61B6981E3
:10388000EBCF838DE80FF11DE35AFF4F6083D60124
:103890005B960C935B975296ED91FC9153978081C8
:1038A0008062808381E058968C930DC0D601569635
:1038B000ED91FC91579760835096ED91FC91519753
:1038C00080818064808381E090E00F90DF91CF91D0
:1038D0001F910F91FF90DF90CF900895BF92CF92EC
:1038E000DF92EF92FF92CF93DF93EC016A017B01AD
:1038F000B22EE889F98982E08083411581EE58076C
:1039000061057105A1F060E079E08DE390E0A70129
:1039100096010E94AB232150310941095109569566
:10392000479537952795211580E1380798F0E88964
:10393000F989108260E874E88EE190E0A7019601B1
:103940000E94AB23215031094109510956954795F1
:1039500037952795EC85FD853083EE85FF8520839F
:10396000188EEC89FD89B082EA89FB8980818061AB
:103970008083EA89FB89808188608083EA89FB896A
:10398000808180688083EA89FB8980818F7D808344
:10399000DF91CF91FF90EF90DF90CF90BF9008958F
:1039A0001F920F920FB60F9211240BB60F922F9306
:1039B0008F939F93EF93FF93E0914809F09149090A
:1039C0008081E0914E09F0914F0982FD12C09081F3
:1039D000809151098F5F8F7320915209821751F0A6
:1039E000E0915109F0E0E85CF64F958F8093510922
:1039F00001C08081FF91EF919F918F912F910F9046
:103A00000BBE0F900FBE0F901F9018951F920F9234
:103A10000FB60F9211240BB60F922F933F934F9333
:103A20005F936F937F938F939F93AF93BF93EF9326
:103A3000FF9388E399E00E94C61BFF91EF91BF912D
:103A4000AF919F918F917F916F915F914F913F9136
:103A50002F910F900BBE0F900FBE0F901F901895D7
:103A600088E399E00E945A1B21E0892B09F420E0A9
:103A7000822F089510923B0910923A0988EE93E044
:103A8000A0E0B0E080933C0990933D09A0933E09EB
:103A9000B0933F0985E695E0909339098093380902
:103AA00085EC90E0909345098093440984EC90E084
:103AB000909347098093460980EC90E090934909E0
:103AC0008093480981EC90E090934B0980934A09D8
:103AD00082EC90E090934D0980934C0986EC90E045
:103AE00090934F0980934E091092510910925209F8
:103AF000109253091092540908951F920F920FB615
:103B00000F9211240BB60F922F938F939F93EF93E5
:103B1000FF93E091E509F091E6098081E091EB09DE
:103B2000F091EC0982FD12C090818091EE098F5FC7
:103B30008F732091EF09821751F0E091EE09F0E0C8
:103B4000EB52F64F958F8093EE0901C08081FF9173
:103B5000EF919F918F912F910F900BBE0F900FBE01
:103B60000F901F9018951F920F920FB60F9211246D
:103B70000BB60F922F933F934F935F936F937F9367
:103B80008F939F93AF93BF93EF93FF9385ED99E04E
:103B90000E94C61BFF91EF91BF91AF919F918F91B2
:103BA0007F916F915F914F913F912F910F900BBE3D
:103BB0000F900FBE0F901F90189585ED99E00E9411
:103BC0005A1B21E0892B09F420E0822F08951092DE
:103BD000D8091092D70988EE93E0A0E0B0E0809376
:103BE000D9099093DA09A093DB09B093DC0985E643
:103BF00095E09093D6098093D5098DEC90E0909351
:103C0000E2098093E1098CEC90E09093E4098093C1
:103C1000E30988EC90E09093E6098093E50989EC4C
:103C200090E09093E8098093E7098AEC90E0909304
:103C3000EA098093E9098EEC90E09093EC09809377
:103C4000EB091092EE091092EF091092F009109210
:103C5000F1090895CF92DF92EF92FF920F931F9395
:103C6000CF93DF936C017A01EB01E60EF71E00E0C3
:103C700010E0CE15DF0561F06991D601ED91FC9160
:103C80000190F081E02DC6011995080F191FF1CFA1
:103C9000C801DF91CF911F910F91FF90EF90DF90BE
:103CA000CF9008956115710581F0DB010D90002022
:103CB000E9F7AD0141505109461B570BDC01ED916D
:103CC000FC910280F381E02D199480E090E008954A
:103CD000EF92FF920F931F93CF93DF938C01FB0121
:103CE000C0E0D0E064917F018FEFE81AF80A662304
:103CF00061F0D801ED91FC910190F081E02DC801B7
:103D00001995C80FD91FF701EDCFCE01DF91CF91E3
:103D10001F910F91FF90EF900895DC01ED91FC91C0
:103D2000DB0114964D915C9115976D917C91028009
:103D3000F381E02D19940C94521EDC01ED91FC915D
:103D40000190F081E02D19940F931F93CF93DF938F
:103D5000EC016DE00E949D1E8C016AE0CE010E9484
:103D60009D1E800F911FDF91CF911F910F9108959C
:103D70000F931F93CF93DF93EC010E94681E8C0179
:103D8000CE010E94A41E800F911FDF91CF911F9141
:103D90000F9108950F931F93CF93DF93EC010E942F
:103DA000521E8C01CE010E94A41E800F911FDF9134
:103DB000CF911F910F9108958F929F92AF92BF92D2
:103DC000CF92DF92EF92FF920F931F93CF93DF93E7
:103DD000CDB7DEB7A1970FB6F894DEBF0FBECDBF4B
:103DE0007C01C42EE52FCB01D22E19A221E02D1586
:103DF00010F02AE0D22E8E010F5D1F4F8D2C912CDA
:103E0000A12CB12C6C2D7E2FA50194010E94AB2317
:103E10008C2DD29E80191124015011098A3014F47E
:103E2000805D01C0895CF801808321153105410561
:103E3000510521F0C22EE32FCA01E4CFB801C7011A
:103E40000E94521EA1960FB6F894DEBF0FBECDBFE2
:103E5000DF91CF911F910F91FF90EF90DF90CF9066
:103E6000BF90AF909F908F900895CF92DF92EF9286
:103E7000FF920F931F93CF93DF93EC016A017B01B5
:103E80002115310579F4E881F9810190F081E02D67
:103E9000642FDF91CF911F910F91FF90EF90DF90F2
:103EA000CF9019942A303105E9F477FF1AC06DE2FA
:103EB0000E949D1E8C0144275527BA014C195D09AB
:103EC0006E097F092AE0CE010E94DC1E800F911F3F
:103ED000DF91CF911F910F91FF90EF90DF90CF90E6
:103EE00008952AE0B701A601CE01DF91CF911F917D
:103EF0000F91FF90EF90DF90CF900C94DC1E0F930A
:103F00001F93CF93DF93EC010E941A226887798771
:103F10008A879B87E881F9810680F781E02DCE01B1
:103F2000199597FF15C00E941A22088519852A85C0
:103F30003B85601B710B820B930B0C811D812E81C5
:103F40003F81601771078207930720F38FEF9FEF80
:103F5000DF91CF911F910F910895AF92BF92CF92B1
:103F6000DF92EF92FF920F931F93CF93DF936C0139
:103F7000790121153105B9F08A01C0E0D0E0A62E03
:103F8000BB24A7FCB094C6010E947F1F97FD0EC002
:103F90008A159B0559F0F80181938F012196CE1562
:103FA000DF0589F703C080E090E001C0CE01DF911A
:103FB000CF911F910F91FF90EF90DF90CF90BF9026
:103FC000AF900895FC01808191810C94A924CF9336
:103FD000DF93EC0188819981009711F00E94A92458
:103FE000198218821D821C821B821A82DF91CF9156
:103FF00008950F931F93CF93DF93EC018B016F5FB5
:104000007F4F888199810E943825009731F09983EC
:1040100088831B830A8381E001C080E0DF91CF9118
:104020001F910F910895CF93DF93EC0188819981BF
:10403000892B29F08A819B818617970760F4CE012E
:104040000E94F91F882341F08C819D81892B19F4EE
:10405000E881F981108281E0DF91CF910895EF929C
:10406000FF920F931F93CF93DF93EC017B018A01A3
:10407000BA010E941320811104C0CE010E94E71FE3
:1040800007C01D830C83B701888199810E947B261C
:10409000CE01DF91CF911F910F91FF90EF90089586
:1040A000FC01118210821382128215821482611522
:1040B000710559F0FB0101900020E9F7AF01415073
:1040C0005109461B570B0C942F200895CF93DF9373
:1040D000EC01FB018617970761F060817181611522
:1040E000710529F0448155810E942F2002C00E9451
:1040F000E71FCE01DF91CF910895FC01118210825C
:1041000013821282158214820C946620CF93DF935F
:10411000EC016115710561F0FB0101900020E9F7E8
:10412000AF0141505109461B570B0E942F2002C07E
:104130000E94E71FCE01DF91CF9108950F931F9347
:10414000CF93DF93CDB7DEB7A2970FB6F894DEBF5B
:104150000FBECDBF8C01CB01BA01F80111821082D4
:10416000138212821582148230E0AE014F5F5F4FDE
:104170000E949126BE016F5F7F4FC8010E9486207A
:10418000A2960FB6F894DEBF0FBECDBFDF91CF91E0
:104190001F910F910895EF92FF920F931F93CF936A
:1041A000DF93EC017B010C811D816115710511F418
:1041B00080E016C04115510591F0040F151FB8019C
:1041C0000E9413208823A1F3288139818C819D814D
:1041D000B701820F931F0E947B261D830C8381E011
:1041E000DF91CF911F910F91FF90EF900895FB0108
:1041F00044815581608171810C94CB20CF93DF93F2
:104200001F921F92CDB7DEB769831A8241E050E05A
:10421000BE016F5F7F4F0E94CB200F900F90DF9108
:10422000CF910895FC0124813581232B31F421E0C5
:1042300061157105A1F0FB0108C0FC01808191812D
:104240006115710531F421E0FC018081882339F08A
:1042500005C00E94722621E0892B09F020E0822F00
:1042600008950F931F93CF93DF93EB0141155105F1
:10427000E9F02097D9F0FC01648175812617370792
:10428000A0F4621B730B8A010150110960177107BA
:1042900008F48B01FC0160817181620F731FA8011A
:1042A000CE010E948226C00FD11F1882DF91CF91CC
:1042B0001F910F910895CF93DF93FC018481958125
:1042C0004817590778F4C081D181772767FD709529
:1042D000CE01840F951F0E946726009719F08C1B52
:1042E0009D0B02C08FEF9FEFDF91CF91089540E0CB
:1042F00050E00C945B21BF92CF92DF92EF92FF923D
:104300000F931F93CF93DF936C017B01EA01890127
:104310002417350720F48D2FE901042F182F67E9A2
:1043200072E0C6010E945020D70114968D919C9195
:104330001597C817D907C8F48017910708F48C019E
:10434000D701ED91FC911197E00FF11FB080108221
:104350006D917C916C0F7D1FC6010E948620D70154
:10436000ED91FC91E00FF11FB082C601DF91CF917A
:104370001F910F91FF90EF90DF90CF90BF90089525
:1043800008950E9471220E94C0210E948202C9E801
:10439000DBE10E9455022097E1F30E94891BF9CFCF
:1043A0001F920F920FB60F9211242F933F938F936A
:1043B0009F93AF93BF938091730A9091740AA091D9
:1043C000750AB091760A3091720A23E0230F2D37D7
:1043D00020F40196A11DB11D05C026E8230F029609
:1043E000A11DB11D2093720A8093730A9093740AE1
:1043F000A093750AB093760A8091770A9091780A13
:10440000A091790AB0917A0A0196A11DB11D8093FD
:10441000770A9093780AA093790AB0937A0ABF91A9
:10442000AF919F918F913F912F910F900FBE0F9061
:104430001F9018952FB7F8946091730A7091740AC1
:104440008091750A9091760A2FBF08953FB7F8942E
:104450008091770A9091780AA091790AB0917A0AAE
:1044600026B5A89B05C02F3F19F00196A11DB11DCF
:104470003FBF6627782F892F9A2F620F711D811DEC
:10448000911D42E0660F771F881F991F4A95D1F74B
:104490000895CF92DF92EF92FF92CF93DF936B015B
:1044A0007C010E942622EB01C114D104E104F10435
:1044B00089F00E9496230E9426226C1B7D0B683E89
:1044C000734090F381E0C81AD108E108F108C8519F
:1044D000DC4FEACFDF91CF91FF90EF90DF90CF904C
:1044E0000895789484B5826084BD84B5816084BD6C
:1044F00085B5826085BD85B5816085BDEEE6F0E05D
:10450000808181608083E1E8F0E0108280818260B8
:104510008083808181608083E0E8F0E08081816039
:104520008083E1EBF0E0808184608083E0EBF0E069
:10453000808181608083E1E9F0E080818260808316
:10454000808181608083E0E9F0E080818160808308
:10455000E1EAF0E0808182608083808181608083F5
:10456000E0EAF0E0808181608083E1E2F1E0808137
:1045700082608083808181608083E0E2F1E08081DD
:1045800081608083EAE7F0E08081846080838081BD
:104590008260808380818160808380818068808365
:1045A0001092C100089590E0FC013197E231F105CD
:1045B00008F04CC0E358FF4F0C94EC23809180002E
:1045C0008F7703C0809180008F7D80938000089555
:1045D00080918000877FF9CF84B58F7702C084B542
:1045E0008F7D84BD08958091B0008F7703C0809146
:1045F000B0008F7D8093B0000895809190008F77F8
:1046000007C0809190008F7D03C080919000877FCC
:104610008093900008958091A0008F7707C08091CB
:10462000A0008F7D03C08091A000877F8093A000B1
:104630000895809120018F7707C0809120018F7DA0
:1046400003C080912001877F809320010895CF933C
:10465000DF9390E0FC01EA58FC4F2491FC01E45404
:10466000FC4F8491882349F190E0880F991FFC0149
:10467000E45EFB4FA591B4918E5F9B4FFC01C59109
:10468000D4919FB7611108C0F8948C912095822332
:104690008C93888182230AC0623051F4F8948C9103
:1046A000322F309583238C938881822B888304C09A
:1046B000F8948C91822B8C939FBFDF91CF910895BA
:1046C0000F931F93CF93DF931F92CDB7DEB7282FA1
:1046D00030E0F901E05DFC4F8491F901EA58FC4FAC
:1046E0001491F901E454FC4F04910023C9F088238C
:1046F00021F069830E94D3226981E02FF0E0EE0F60
:10470000FF1FEE5FFB4FA591B4919FB7F8948C917A
:10471000611103C01095812301C0812B8C939FBF31
:104720000F90DF91CF911F910F910895089597FBFE
:10473000072E16F4009407D077FD09D00E94FD23C0
:1047400007FC05D03EF4909581959F4F0895709594
:1047500061957F4F0895A1E21A2EAA1BBB1BFD0194
:104760000DC0AA1FBB1FEE1FFF1FA217B307E40750
:10477000F50720F0A21BB30BE40BF50B661F771FA8
:10478000881F991F1A9469F7609570958095909588
:104790009B01AC01BD01CF010895052E97FB1EF4CE
:1047A00000940E94E42357FD07D00E94AB2307FC2E
:1047B00003D04EF40C94E423509540953095219508
:1047C0003F4F4F4F5F4F089590958095709561953D
:1047D0007F4F8F4F9F4F0895EE0FFF1F0590F4916D
:1047E000E02D199469279627692778278727782746
:1047F00008950790F691E02D1994AA1BBB1B51E177
:1048000007C0AA1FBB1FA617B70710F0A61BB70B40
:10481000881F991F5A95A9F780959095BC01CD01E5
:104820000895CF93DF938230910510F482E090E0F9
:10483000E0917D0AF0917E0A20E030E0A0E0B0E057
:10484000309739F14081518148175907B8F048171E
:10485000590771F482819381109729F013969C93E4
:104860008E9312972CC090937E0A80937D0A27C066
:104870002115310531F04217530718F0A901DB016A
:1048800001C0EF019A01BD01DF010280F381E02D3B
:10489000D7CF21153105F9F0281B390B243031050C
:1048A00080F48A819B816115710521F0FB0193835E
:1048B000828304C090937E0A80937D0AFE01329623
:1048C00044C0FE01E20FF31F8193919322503109FE
:1048D000398328833AC020917B0A30917C0A232BAC
:1048E00041F4209102023091030230937C0A20931C
:1048F0007B0A20910002309101022115310541F41B
:104900002DB73EB74091040250910502241B350B90
:10491000E0917B0AF0917C0AE217F307A0F42E1BCA
:104920003F0B2817390778F0AC014E5F5F4F241713
:10493000350748F04E0F5F1F50937C0A40937B0A67
:104940008193919302C0E0E0F0E0CF01DF91CF913D
:104950000895CF93DF93009709F487C0FC01329745
:1049600013821282C0917D0AD0917E0A209781F431
:1049700020813181280F391F80917B0A90917C0A18
:104980008217930779F5F0937C0AE0937B0A6DC058
:10499000DE0120E030E0AE17BF0750F412964D91D3
:1049A0005C9113979D014115510509F1DA01F3CF8F
:1049B000B383A28340815181840F951F8A179B077F
:1049C00071F48D919C911197840F951F029691839C
:1049D000808312968D919C911397938382832115E6
:1049E000310529F4F0937E0AE0937D0A3EC0D90197
:1049F0001396FC93EE9312974D915D91A40FB51F02
:104A0000EA17FB0779F480819181840F951F029644
:104A1000D90111969C938E938281938113969C93D6
:104A20008E931297E0E0F0E08A819B81009719F065
:104A3000FE01EC01F9CFCE01029628813981820F67
:104A4000931F20917B0A30917C0A2817390769F45B
:104A5000309729F410927E0A10927D0A02C01382C8
:104A60001282D0937C0AC0937B0ADF91CF91089584
:104A70006F927F928F929F92AF92BF92CF92DF926E
:104A8000EF92FF920F931F93CF93DF93EC01CB0133
:104A9000209781F4DF91CF911F910F91FF90EF90BC
:104AA000DF90CF90BF90AF909F908F907F906F904E
:104AB0000C941124FE01E60FF71F9E0122503109CC
:104AC000E217F30708F4ACC0D9010D911C911197BE
:104AD00006171707B8F00530110508F49FC0A801A4
:104AE000445051094617570708F498C0025011095D
:104AF000061B170B019311936D937C93CF010E94BA
:104B0000A9248CC05B01A01AB10A4E01800E911E2F
:104B1000A0917D0AB0917E0A612C712C60E070E05A
:104B2000109709F449C0A815B905C9F5ED90FC9096
:104B30001197670142E0C40ED11CCA14DB0478F15E
:104B400047018A189B08640142E0C40ED11C1296EA
:104B5000BC9012971396AC91B5E0CB16D10440F0FF
:104B6000B282A38391828082D9018D939C9309C0E4
:104B70000E5F1F4F0E0D1F1DF90111830083EB2DDA
:104B8000FA2F6115710531F0DB011396FC93EE935A
:104B9000129744C0F0937E0AE0937D0A3FC06D9166
:104BA0007C9111976616770608F43B01BD011296B9
:104BB0000D90BC91A02DB4CF60917B0A70917C0ABE
:104BC00068157905E9F468167906D0F44091000279
:104BD000509101024115510541F44DB75EB7609106
:104BE000040270910502461B570BE417F507C0F449
:104BF000F0937C0AE0937B0AF901918380830EC0D5
:104C00000E9411247C01009759F0A801BE010E9466
:104C10005E26CE010E94A924C70104C0CE0102C0B5
:104C200080E090E0DF91CF911F910F91FF90EF9086
:104C3000DF90CF90BF90AF909F908F907F906F90BC
:104C400008951F93FC0199278827BC01E8941191CE
:104C50001032E9F3193010F01E30C8F31B3251F056
:104C60001D3249F4689406C00E94AB26610F711D85
:104C7000811D911D119110531A30B0F33EF490959F
:104C80008095709561957F4F8F4F9F4F1F9108952D
:104C9000FB01DC0102C005900D9241505040D8F755
:104CA0000895FB01DC0104C08D910190801921F46D
:104CB00041505040C8F7881B990B0895FB01DC0157
:104CC00002C001900D9241505040D8F70895FC0168
:104CD0008191861721F08823D9F799270895319774
:104CE000CF010895FB01DC018D9101908019011025
:104CF000D9F3990B0895FB01DC0101900D9200207E
:104D0000E1F70895FB01DC014150504048F001906B
:104D10000D920020C9F701C01D9241505040E0F7AC
:104D200008952532310520F4223010F00C949C2691
:104D3000FA011082CA010895BB272A3051F4992341
:104D400042F4BDE290958095709561957F4F8F4FAD
:104D50009F4F0C94C126592F482F372F262F660FAF
:104D6000771F881F991F660F771F881F991F620F73
:104D7000731F841F951F660F771F881F991F089543
:104D8000BB27FA01A62F6217710581059105330B28
:104D900030FB66F0AA27660F771F881F991FAA1F8E
:104DA000A21710F0A21B63953850A9F7A05DAA3393
:104DB00008F0A95DA19336F7B111B1931082CA0131
:104DC0000C9422290F931F93CF93DF93CDB7DEB7B7
:104DD0002E970FB6F894DEBF0FBECDBF0E891F8988
:104DE00086E08C831A8309838FEF9FE79E838D83F0
:104DF000AE01465E5F4F688D798DCE0101960E94AF
:104E00001127EF81F885E00FF11F10822E960FB663
:104E1000F894DEBF0FBECDBFDF91CF911F910F91F0
:104E200008952F923F924F925F926F927F928F924E
:104E30009F92AF92BF92CF92DF92EF92FF920F9329
:104E40001F93CF93DF93CDB7DEB72C970FB6F894AF
:104E5000DEBF0FBECDBF7C016B018A01FC01178252
:104E60001682838181FFBDC1CE0101964C01F701FD
:104E70009381F60193FD859193FF81916F018823C2
:104E800009F4ABC1853239F493FD859193FF81918B
:104E90006F01853229F4B70190E00E943229E7CFF3
:104EA000512C312C20E02032A0F48B3269F030F408
:104EB000803259F0833269F420612CC08D3239F090
:104EC000803339F4216026C02260246023C028602A
:104ED00021C027FD27C030ED380F3A3078F426FF87
:104EE00006C0FAE05F9E300D1124532E13C08AE0F5
:104EF000389E300D1124332E20620CC08E3221F4E6
:104F000026FD6BC1206406C08C3611F4206802C0F7
:104F1000883641F4F60193FD859193FF81916F01ED
:104F20008111C1CF982F9F7D9554933028F40C5F49
:104F30001F4FFFE3F9830DC0833631F0833771F0E3
:104F4000833509F05BC022C0F801808189830E5F40
:104F50001F4F44244394512C540115C03801F2E0F2
:104F60006F0E711CF801A080B18026FF03C0652D73
:104F700070E002C06FEF7FEFC5012C870E941729F8
:104F80002C0183012C852F77222E17C03801F2E0E7
:104F90006F0E711CF801A080B18026FF03C0652D43
:104FA00070E002C06FEF7FEFC5012C870E940C29D3
:104FB0002C012C852068222E830123FC1BC0832D0D
:104FC00090E048165906B0F4B70180E290E00E94E4
:104FD00032293A94F4CFF50127FC859127FE81917F
:104FE0005F01B70190E00E94322931103A94F1E05C
:104FF0004F1A51084114510471F7E5C0843611F07D
:10500000893639F5F80127FF07C0608171818281F7
:1050100093810C5F1F4F08C060817181882777FDE5
:105020008095982F0E5F1F4F2F76B22E97FF09C0E5
:1050300090958095709561957F4F8F4F9F4F206819
:10504000B22E2AE030E0A4010E946429A82EA818FC
:1050500044C0853729F42F7EB22E2AE030E025C0E7
:10506000F22FF97FBF2E8F36C1F018F4883579F012
:10507000B4C0803719F0883721F0AFC02F2F2061DE
:10508000B22EB4FE0DC08B2D8460B82E09C024FF53
:105090000AC09F2F9660B92E06C028E030E005C0F8
:1050A00020E130E002C020E132E0F801B7FE07C0A5
:1050B00060817181828193810C5F1F4F06C0608186
:1050C000718180E090E00E5F1F4FA4010E9464296F
:1050D000A82EA818FB2DFF77BF2EB6FE0BC02B2DD8
:1050E0002E7FA51450F4B4FE0AC0B2FC08C02B2DCC
:1050F0002E7E05C07A2C2B2D03C07A2C01C0752C76
:1051000024FF0DC0FE01EA0DF11D8081803311F4F2
:10511000297E09C022FF06C07394739404C0822FB5
:10512000867809F0739423FD13C020FF06C05A2C23
:10513000731418F4530C5718732C731468F4B701D4
:1051400080E290E02C870E94322973942C85F5CF61
:10515000731410F4371801C0312C24FF12C0B701AA
:1051600080E390E02C870E9432292C8522FF17C013
:1051700021FF03C088E590E002C088E790E0B70116
:105180000CC0822F867859F021FD02C080E201C058
:105190008BE227FD8DE2B70190E00E943229A51431
:1051A00038F4B70180E390E00E9432295A94F7CF97
:1051B000AA94F401EA0DF11D8081B70190E00E94EC
:1051C0003229A110F5CF332009F451CEB70180E286
:1051D00090E00E9432293A94F6CFF70186819781B8
:1051E00002C08FEF9FEF2C960FB6F894DEBF0FBE74
:1051F000CDBFDF91CF911F910F91FF90EF90DF9086
:10520000CF90BF90AF909F908F907F906F905F9066
:105210004F903F902F900895FC0105906150704091
:105220000110D8F7809590958E0F9F1F0895FC016F
:105230006150704001900110D8F7809590958E0FC5
:105240009F1F0895DC01FC01672F71917723E1F71F
:10525000329704C07C916D9370836291AE17BF0743
:10526000C8F308950F931F93CF93DF93182F092F3F
:10527000EB018B8181FD03C08FEF9FEF20C082FF88
:1052800010C04E815F812C813D81421753077CF411
:10529000E881F9819F012F5F3F4F39832883108375
:1052A00006C0E885F985812F1995892B29F72E816C
:1052B0003F812F5F3F4F3F832E83812F902FDF91C0
:1052C000CF911F910F910895FA01AA27283051F12B
:1052D000203181F1E8946F936E7F6E5F7F4F8F4F27
:1052E0009F4FAF4FB1E03ED0B4E03CD0670F781F86
:1052F000891F9A1FA11D680F791F8A1F911DA11D6B
:105300006A0F711D811D911DA11D20D009F46894A3
:105310003F912AE0269F11243019305D3193DEF64B
:10532000CF010895462F4770405D4193B3E00FD001
:10533000C9F7F6CF462F4F70405D4A3318F0495DEC
:1053400031FD4052419302D0A9F7EACFB4E0A695CF
:105350009795879577956795BA95C9F700976105F1
:10536000710508959B01AC010A2E06945795479547
:1053700037952795BA95C9F7620F731F841F951F3C
:10538000A01D089514E0C2E4D4E000E006C0229716
:105390000109FE010BBF0E94F923C434D10780E04C
:0853A0000807A9F7F894FFCFFC
:1053A80000007F0A80004142434445464748494A35
:1053B8000004000007D27600008501010007FF0005
:1053C8000000001234000F20005400FF0406E1041E
:1053D800008000000000FF00FF006C6F673A6D61FD
:1053E800696E206C6F6F703B006C6F673A66696E10
:1053F8006520656D756C617A696F6E653B006C6FD1
:10540800673A2077616974696E67206C656F2069F7
:105418006E697469616C697A7A6174696F6E3B0050
:1054280072656164790072657175657374006C6F7B
:10543800673A2049443A20002C205365637265740A
:105448003A20002C204C617374205472616E736191
:105458006374696F6E3A200061006170706C6963F3
:105468006174696F6E2F636F666665656170006C45
:105478006F673A4E646566206D6573736167652072
:10548800746F206269673B007265630073746F72A2
:1054980065207B2274696D657374616D70223A2290
:1054A80000222C226576656E745F74797065223AE5
:1054B800227265636861726765222C227472616E5C
:1054C80073616374696F6E5F6964223A2200222CEB
:1054D80022757365725F6964223A2200222C226168
:1054E8006D6F756E74223A222B00227D006C6F67F7
:1054F8003A20726563686172676520007075720092
:10550800222C226576656E745F74797065223A2262
:105518007075726368617365222C227472616E7390
:10552800616374696F6E5F6964223A2200222C22DB
:10553800616D6F756E74223A222D006C6F673A2088
:10554800707572636861736520006765745F74695C
:105558006D653A006C6F673A206572726F723B0036
:10556800636F6E6E656374696F6E3A006F6B3B00B4
:105578007365745F646174613A006765745F646140
:1055880074653A00302E30006C6F673A20696E6996
:1055980074206173207461726765742074696D6525
:1055A8006F75743B006C6F673A746172676574203D
:1055B800696E697A69616C697A7A61746F3B0063B4
:1055C8006F6E6E656374696F6E3A7265713B0067E2
:1055D80065745F74696D653A7265713B006C6F67DD
:1055E8003A00222C226576656E745F7479706522A4
:1055F8003A226C6F675F696E222C226D616368695D
:105608006E655F6964223A22006C6F673A206C6F9E
:1056180067696E3B006C6F673A20737461747573C9
:105628002057414954494E473B006C6F673A2073F5
:10563800746174757320524543484152474544206C
:10564800007472616E73616374696F6E20494420DF
:105658003D20006C6F673A20737461747573205035
:105668005552434841534520006C6F673A636F6D4C
:105678006D616E64206E6F7420737570706F7274D4
:1056880065643B006C6F673A75736369746F206477
:1056980061207377697463683B006C6F673A736560
:1056A800742064617461206661696C656420696E48
:1056B8002072656C656173653B006C6F673A757342
:1056C8006369746F206461207768696C653B006C5E
:1056D8006F673A696E2072656C656173653B00009F
:1056E800000000ED0E2A1E0000000011142A1E25DD
:1056F80030366C6400000000009019A519311BE4D5
:105708001900000000091C2A1E5A1B751B671BE79D
:025718001B0074
:00000001FF
