:100000000C941D020C944E020C944E020C944E0261
:100010000C944E020C944E020C944E020C944E0220
:100020000C944E020C944E020C944E020C944E0210
:100030000C944E020C944E020C944E020C944E0200
:100040000C944E020C944E020C944E020C944E02F0
:100050000C944E020C944E020C944E020C94171FFA
:100060000C944E020C94C41A0C94FA1A0C944E027E
:100070000C944E020C944E020C944E020C944E02C0
:100080000C944E020C944E020C944E020C944E02B0
:100090000C944E020C944E020C944E020C944E02A0
:1000A0000C944E020C944E020C944E020C944E0290
:1000B0000C944E020C944E020C944E020C944E0280
:1000C0000C944E020C944E020C944E020C944E0270
:1000D0000C944E020C944E020C944E020C944E0260
:1000E0000C944E0276047D047F0481048504890407
:1000F0008D0491049504A504A904332036202520FD
:1001000029202F206D203A203E20442048204C20DA
:10011000522056205A206D206020642068200C94C4
:1001200099170C947F040C9452200C94A5040C9401
:10013000DB190C947D190C948D040C94241B0C94E5
:10014000E10C0C9425200C9425190C945A200C9445
:10015000B4040C9456200C9436200C9429200C9452
:100160001B120C943E200C9460200C9464200C9480
:100170006D200C94AE020C9484170C944E190C94C0
:10018000F0040C94430E0C947D040C9405120C9412
:1001900048200C9444200C9468200C945B190C9417
:1001A0002E1B0C94FD190C9495040C9469190C9455
:1001B00076040C9491040C9433200C9485040C94D4
:1001C0003A200C94D8170C94A9040C944C200C944D
:1001D0002F200C94711B0C9489040C94810401232E
:1001E000456789ABCDEFFEDCBA9876543210F0E16A
:1001F000D2C3982F8A4291443771CFFBC0B5A5DB9B
:10020000B5E95BC25639F111F159A4823F92D55E2E
:100210001CAB98AA07D8015B8312BE853124C37D2D
:100220000C55745DBE72FEB1DE80A706DC9B74F1D6
:100230009BC1C1699BE48647BEEFC69DC10FCCA19F
:100240000C246F2CE92DAA84744ADCA9B05CDA88EE
:10025000F97652513E986DC631A8C82703B0C77FC2
:1002600059BFF30BE0C64791A7D55163CA0667296A
:100270002914850AB72738211B2EFC6D2C4D130D30
:10028000385354730A65BB0A6A762EC9C281852C1D
:100290007292A1E8BFA24B661AA8708B4BC2A35101
:1002A0006CC719E892D1240699D685350EF470A052
:1002B0006A1016C1A419086C371E4C774827B5BCC4
:1002C000B034B30C1C394AAAD84E4FCA9C5BF36FAA
:1002D0002E68EE828F746F63A5781478C884080244
:1002E000C78CFAFFBE90EB6C50A4F7A3F9BEF2786E
:1002F00071C65741524E494E473A20546F6F206D98
:10030000616E79207265636F7264732E20496E632B
:100310007265617365204D41585F4E4445465F529A
:1003200045434F5244532E0000000A0B02090C0DA6
:100330000E08070304010000000000000000000098
:1003400000000000000000000000000000000000AD
:10035000000000001211100000000000000000006A
:10036000000000000000000000000000000001028A
:1003700010202008081020401020408002010201B7
:10038000080402010102040810204080804020106F
:1003900008040201800402018040201008040201C8
:1003A0000804020101020408102040800102040830
:1003B0001020408005050505070508080808020209
:1003C00002020A0A080804040404010101010101EF
:1003D00001010303030303030303040707070C0CD2
:1003E0000C0C0C0C0C0C0202020206060606060699
:1003F00006060B0B0B0B0B0B0B0B00002200250052
:1004000028002B002E0031003400020100000501FD
:1004100008010B0100002100240027002A002D0004
:100420003000330001010000040107010A01AE029F
:10043000B404430E1B122E1BF00411241FBECFEF79
:10044000D1E2DEBFCDBF00E00CBF14E0A0E0B2E01F
:10045000E6E3FEE400E00BBF02C007900D92AA376E
:10046000B107D9F728E0AAE7B4E001C01D92AA3E7F
:10047000B207E1F714E0C8E3D4E000E006C0229739
:100480000109FE010BBF0E944021CE32D10780E05E
:100490000807A9F70E94081F0C9409270C94000074
:1004A000CF93DF9300D000D0CDB7DEB726E040E099
:1004B00052EC61E070E080E498E00E94621A68EE1D
:1004C00073E080E090E00E94901F6AE372E0CE014A
:1004D00001960E94971DBE016F5F7F4F8AE794E0EF
:1004E0000E94DC03CE0101960E94291D63E472E0A4
:1004F000CE0101960E94971DBE016F5F7F4F8AE774
:1005000094E00E94AF03CE0101960E94291D40E0B5
:100510005DE261E371E08AE794E00E94E5038AE727
:1005200094E00E94FC0326960FB6F894DEBF0FBE3F
:10053000CDBFDF91CF9108956EE472E080E498E042
:100540000E94111C68E873E18AE794E00E94330777
:100550006DE572E080E498E00C94111C4AE065ECD3
:1005600076E081E595E00E94B61761E575E08AE7DF
:1005700094E00E94F61510924C0510924B051092D3
:100580004D0581E080934E051092500510924F0565
:1005900008950F931F93CF93DF93CDB7DEB7AF9737
:1005A0000FB6F894DEBF0FBECDBF8C01FC012481D5
:1005B00035812550310940E050E0BC01CE018A96DA
:1005C0000E94C21E60E3CE018A960E94451E20E072
:1005D00030E04BE050E0BE016F5F7F4FCE018A9666
:1005E0000E94781E1B86CE0101960E946823AB01F3
:1005F000BC014093D7055093D8056093D9057093FB
:10060000DA0587E595E00E942C12BC01CE018096A8
:100610000E94C2234091D7055091D8056091D90519
:100620007091DA054A5051096109710987E595E031
:100630000E942C12BC01CE0146960E94C22340911A
:10064000D7055091D8056091D9057091DA05465FBC
:100650005F4F6F4F7F4F87E595E00E942C12BC01E2
:10066000CE010C960E94C22362E370E080E090E02D
:100670000E94901F64EA75E0CE0146960E94B9235D
:10068000892B19F482E090E012C064EA75E0CE0193
:1006900080960E94B923892BA9F364EA75E0CE0104
:1006A0000C960E94B923892B69F388E090E090931F
:1006B000C2068093C106B80183EB95E00E94AD1D90
:1006C000CE018A960E94291DAF960FB6F894DEBF20
:1006D0000FBECDBFDF91CF911F910F9108950F9362
:1006E0001F93CF93DF9300D000D0CDB7DEB78B013F
:1006F00020E030E046E050E069EA76E00E94781EB3
:100700001092AE064091D3055091D4056091D50565
:100710007091D6052AE0CE0101960E94E51DBE012A
:100720006F5F7F4FC8010E943E1ECE0101960E945E
:10073000291D20E030E043E150E066E976E0C801A1
:100740000E94781E1092A80626960FB6F894DEBF77
:100750000FBECDBFDF91CF911F910F910895CF9321
:10076000DF93CDB7DEB76F970FB6F894DEBF0FBE3D
:10077000CDBFCB0120E030E04BE050E06BE876E00D
:100780000E94781E4AE050E06BE876E0CE010196C8
:100790000E9426128FE1FE013196A7E5B5E0019097
:1007A0000D928A95E1F76F960FB6F894DEBF0FBEF3
:1007B000CDBFDF91CF910895CB0120E030E049E03B
:1007C00050E06BE975E00C94781E4093D30550938C
:1007D000D4056093D5057093D60508954F3751051C
:1007E00054F4FC01EF5AFF4F5083319640838D5AE9
:1007F0009F4F0C94A52308950F931F93CF93DF93DE
:10080000CDB7DEB7EC970FB6F894DEBF0FBECDBF05
:100810008C01CE0101960E94AE12BE016F5F7F4F28
:100820008BED95E00E94E112CE0101960E94CB1261
:1008300062E772E0CE0101960E94971D64E772E0C4
:10084000CE01C7960E94971DAE014F5F5F4FBE015C
:10085000695C7F4F8BED95E00E943514CE01C79601
:100860000E94291DCE0101960E94291D8BED95E065
:100870000E944713909312068093110689379105C1
:1008800038F069E872E080E498E00E94111CFFCF24
:1008900063E176E08BED95E00E94701340911106C4
:1008A0005091120663E176E0C8010E94EE03C80190
:1008B0000E94FC15C8010E941516EC960FB6F8941C
:1008C000DEBF0FBECDBFDF91CF911F910F91089575
:1008D0000F93CF93DF93DA01E9016B30710508F0D4
:1008E0003FC0FB01EE58FF4F0C94332180E98C93FD
:1008F00011961C920E5F088333C08AE607C08AE611
:1009000001C085E68C9381E827C082E68C9382E85B
:1009100023C086E68C9387E71FC082E28C9383E333
:100920001BC083E38C9384E403C084E48C9385E54B
:1009300011968C93119712968BE1EFE7F5E00190F9
:100940000D928A95E1F78EE10AC085E58C9386E6E3
:1009500003C081EB8C9382EB11968C9382E08883A9
:10096000DF91CF910F9108956BEB73E08BEB96E0E5
:100970000E94971D6BEB73E085EB96E00E94971D3C
:100980006BEB73E08FEA96E00E94971D8BED95E08C
:100990000E94AE126BEB73E08BEC95E00E94971D0A
:1009A0006BEB73E085EC95E00E94971D6BEB73E0B9
:1009B0008FEB95E00E94971D6BEB73E089EB95E060
:1009C0000E94971D6BEB73E083EB95E00E94971DEF
:1009D0004AE050E066E072E087E595E00C9426126C
:1009E00083EB95E00E94291D89EB95E00E94291D6B
:1009F0008FEB95E00E94291D85EC95E00E94291D52
:100A00008BEC95E00E94291D8BED95E00E94CB12A6
:100A10008FEA96E00E94291D85EB96E00E94291D31
:100A20008BEB96E00C94291DCF93DF93CDB7DEB707
:100A3000C654D1090FB6F894DEBF0FBECDBF80E417
:100A400098E00E944E19181619060CF0D8C020E440
:100A500030E0AE014F5F5F4F6AE080E498E00E94B3
:100A6000F41C43E050E062EA72E0CE0101960E947D
:100A70009823892B09F051C04091D3055091D4059A
:100A80006091D5057091D6054F5F5F4F6F4F7F4FD7
:100A90004093D3055093D4056093D5057093D60544
:100AA0002AE0CE018F5B9F4F0E94E51D20E030E0E1
:100AB00049E050E066E775E0CE018F5B9F4F0E94F2
:100AC000781ECE018F5B9F4F0E94291D84E1FE019D
:100AD0003596AFE7B5E001900D928A95E1F789E090
:100AE000E6E7F5E0A2E9B5E001900D928A95E1F71D
:100AF00066EA72E080E498E00E94E21B6FE775E02E
:100B000080E498E00E94E21B61E973E080E498E0F1
:100B10000E94111C85E090E05BC043E050E065EB73
:100B200072E0CE0101960E949823892B09F055C0EE
:100B30004091D3055091D4056091D5057091D605AB
:100B40004F5F5F4F6F4F7F4F4093D3055093D40556
:100B50006093D5057093D6052AE0CE018F5B9F4F39
:100B60000E94E51D20E030E049E050E066E775E0D6
:100B7000CE018F5B9F4F0E94781ECE018F5B9F4FEF
:100B80000E94291D84E1FE013596AFE7B5E0019092
:100B90000D928A95E1F789E0E6E7F5E0A2E9B5E094
:100BA00001900D928A95E1F769EB72E080E498E09C
:100BB0000E94E21B6FE775E080E498E00E94E21B70
:100BC00061E973E080E498E00E94111C86E090E007
:100BD0009093C2068093C10610C043E050E068ECD9
:100BE00072E0CE0101960E949823892B41F062EDBC
:100BF00072E080E498E00E94111C81E001C080E076
:100C0000CA5BDF4F0FB6F894DEBF0FBECDBFDF91DA
:100C1000CF9108950F931F93CF93DF93CDB7DEB796
:100C20002C970FB6F894DEBF0FBECDBF80E498E0DE
:100C30000E944E19181619061CF501E080E498E090
:100C40000E944E1918161906DCF480E498E00E9400
:100C50006919182F8091B105612F811103C08BECA8
:100C600095E002C085EC95E00E94451E1A3319F408
:100C70000093B105E3CF1B3309F781E08093B20500
:100C80008091B205882309F4E2C06EED72E08BEC2E
:100C900095E00E94591E882381F06AEE72E085EC8F
:100CA00095E00E94591E882309F4B7C081E090E0C6
:100CB0009093C4068093C306B0C06EEE72E08BECD6
:100CC00095E00E94591E882329F06AEE72E085ECB7
:100CD00095E0A1C065EB72E08BEC95E00E94591E97
:100CE0008823C9F18091D3059091D405A091D505B1
:100CF000B091D6050196A11DB11D8093D3059093A7
:100D0000D405A093D505B093D60520E130E046E0A8
:100D100050E065EC75E0CE0107960E94C21E25E00A
:100D200030E040E050E065EC75E0CE0101960E94B5
:100D3000C21EBE01695F7F4FCE0101960E946F0304
:100D4000CE0101960E94291DCE0107960E94291D01
:100D500086E090E040C062EA72E08BEC95E00E9491
:100D6000591E8823E9F18091D3059091D405A09173
:100D7000D505B091D6050196A11DB11D8093D3056F
:100D80009093D405A093D505B093D60520E130E02B
:100D900046E050E065EC75E0CE0107960E94C21E69
:100DA00025E030E040E050E065EC75E0CE010196D2
:100DB0000E94C21EBE01695F7F4FCE0101960E9454
:100DC0006F03CE0101960E94291DCE0107960E9455
:100DD000291D85E090E09093C2068093C1061DC056
:100DE00068EC72E08BEC95E00E94591E882379F044
:100DF00065EC75E0CE0101960E94C41DCE010196FE
:100E00000E94C902CE0101960E94291D06C068EF0A
:100E100072E08BEC95E00E94591E6BEB73E08BEC5B
:100E200095E00E94CD1D6BEB73E085EC95E00E9490
:100E3000CD1D6BEB73E08FEB95E00E94CD1D109202
:100E4000B1051092B0051092B20581E001C080E0BA
:100E50002C960FB6F894DEBF0FBECDBFDF91CF91B9
:100E60001F910F9108955F926F927F928F929F9240
:100E7000AF92BF92CF92DF92EF92FF920F931F93A8
:100E8000CF93DF93CDB7DEB7C85ED1090FB6F89424
:100E9000DEBF0FBECDBF7C018B011092D205109238
:100EA000D10584E090E09093120280931102109299
:100EB000AE0562E073E085EB96E00E94CD1D6BEB22
:100EC00073E08BEB96E00E94CD1D1092AF0589E098
:100ED000E3E1F2E0DE01AD52BF4F01900D928A9541
:100EE000E1F789E0ECE1F2E0DE01A653BF4F0190AB
:100EF0000D928A95E1F7FE01EF57FF4F86E2DF0181
:100F00001D928A95E9F78CE8808385E0818384E0EF
:100F1000828380E28783D701AF52BF4F0D90BC918F
:100F2000A02D109731F08D919D91AC918483958384
:100F3000A683980146E2BF01C7010E945216813084
:100F400041F066E073E080E498E00E94111C80E0CC
:100F5000F2C263E273E080E498E00E94111C8FE02B
:100F6000E5E2F2E0DE01A554BF4F01900D928A95B3
:100F7000E1F7F701EC52FF4F8081811106C08FEF3E
:100F8000C753DF4F8883C95CD040F701ED52FF4F54
:100F90001082C12CD12C5524539434E0632E712C33
:100FA0005E01B7EAAB0EB11C40E8BE016F5F7F4F38
:100FB000C7010E9490166B819C810D818A818034CB
:100FC00009F4CCC138F4803209F4CBC0803309F481
:100FD00003C158C2843A21F0803B09F477C052C261
:100FE000662319F0643039F171C29C30B1F50230DA
:100FF00009F07DC08E81813E09F079C08F818350D8
:10100000823008F074C000E09E0128513F4FAE01CD
:101010004F5F5F4F60E070E0C7010E9468048F81FE
:1010200011E0833009F44EC2843009F050C282E0EE
:10103000C82ED12C4CC249E050E0BE016C5F7F4FFE
:10104000CE018D529F4F0E949823892B71F481E02D
:1010500090E09093C2068093C10600E09E01285163
:101060003F4FAE014F5F5F4F79C049E050E0BE0196
:101070006C5F7F4FCE0186539F4F0E949823892B30
:10108000D9F46DE373E080E498E00E94111C0E94A3
:101090000A06811107C06AE070E080E090E00E94DB
:1010A000901FF5CF00E09E0128513F4FAE014F5FEA
:1010B0005F4F65E070E08CC000E09E0128513F4F1B
:1010C000AE014F5F5F4F62E070E082C070E0762F4C
:1010D0006627690F711D81E0C816D10491F092E076
:1010E000C916D104D1F0C114D10409F0EFC100E058
:1010F0009E0128513F4FAE014F5F5F4F61E070E0AE
:1011000067C06138710560F4802E912CABEBB0E0C4
:10111000AC0FBD1F6A0F7B1F13C06138710550F003
:1011200000E09E0128513F4FAE014F5F5F4F64E0EA
:1011300070E04EC0802E912C6F5A7F4F6E0D7F1D38
:10114000A401CE0101960E94A52341E050E04C0F7E
:101150005D1F480D591D9E0128513F4F60E070E012
:1011600037C06111B3C19111B1C1DE011696E4EA35
:10117000F5E010E0CF01845A9540081719071CF0DC
:101180008D918193F7CF6DE473E080E498E00E9445
:10119000111C0E940A06811107C06AE070E080E01D
:1011A00090E00E94901FF5CF8091C1069091C206F9
:1011B0008230910509F451CF089709F087C100E00A
:1011C0009E0128513F4FAE014F5F5F4F6AE070E0D4
:1011D000C7010E9468047AC1611178C1911176C17A
:1011E000DE011696F50110E0CF018A199B09081758
:1011F00019071CF08D918193F7CFF501E00FF11FD6
:101200001082B501CE018E519F4F0E94971D6CE256
:10121000CE018E519F4F0E94BE1E8C016BE3CE010A
:101220008E519F4F0E94BE1E4C01980121503109E2
:1012300040E050E0BE016E517F4FCE0184529F4F7F
:101240000E94C21EBE0164527F4F8BEB96E00E944B
:10125000AD1DCE0184529F4F0E94291DA8014F5FF2
:101260005F4F9401BE016E517F4FCE0184529F4F5C
:101270000E94C21EBE0164527F4F85EB96E00E9421
:10128000AD1DCE0184529F4F0E94291D6BE573E076
:1012900080E498E00E94E21BBE016E517F4F80E423
:1012A00098E00E94D41B61E973E080E498E00E941A
:1012B000111C6EEE72E080E498E00E94E21B65EB88
:1012C00076E080E498E00E94D41B61E973E080E45A
:1012D00098E00E94111C64E670E080E090E00E94BB
:1012E000901F0E940A06811105C06AE070E080E04C
:1012F00090E0F5CF60E673E080E498E00E94E21BA6
:101300006FEA76E080E498E00E94D41B61E973E024
:1013100080E498E00E94111C1092C2061092C1064F
:1013200000E09E0128513F4FAE014F5F5F4F60E0EC
:1013300070E0C7010E9468048091AF05811108C068
:1013400062E773E080E498E00E94111C5092AF05C0
:10135000CE018E519F4F0E94291DB8C06111B6C0A9
:101360009111B4C00E9414058091C1069091C206EB
:101370008530910511F18630910509F44CC0892B17
:1013800009F079C01092C2061092C1066EE773E0B0
:1013900080E498E00E94111C00E09E0128513F4F1C
:1013A000AE014F5F5F4F66E070E0C7010E946804C6
:1013B00070921202609211025EC01092C2061092E8
:1013C000C10663E973E080E498E00E94E21B6AEAE8
:1013D00073E080E498E00E94E21B4091D3055091B5
:1013E000D4056091D5057091D6052AE030E080E4FF
:1013F00098E00E947C1C61E973E080E498E00E9420
:10140000111C00E09E0128513F4FAE014F5F5F4F1E
:1014100067E070E02DC01092C2061092C1066CEB1E
:1014200073E080E498E00E94E21B6AEA73E080E4E3
:1014300098E00E94E21B4091D3055091D405609141
:10144000D5057091D6052AE030E080E498E00E944E
:101450007C1C61E973E080E498E00E94111C00E0CC
:101460009E0128513F4FAE014F5F5F4F68E070E033
:10147000C7010E94680462E370E080E090E00E948F
:10148000901F24C08091D1059091D2050196909330
:10149000D2058093D10511E004970CF010E062EDC5
:1014A00073E080E498E00E94E21B00E09E01285176
:1014B0003F4FAE014F5F5F4F62E070E0C7010E9497
:1014C000680405C0CC24C394D12C01C011E06DEE9A
:1014D00073E080E498E00E94111C00E020E030E01E
:1014E000C851DF4F4881C85ED040BE016F5F7F4F5B
:1014F000C7010E94DE16892B59F463E074E080E492
:1015000098E00E94111C60E0C7010E94491702C0C8
:1015100011114ACD63E274E080E498E00E94111C4E
:1015200068E374E080E498E00E94111C60E0C70169
:101530000E94491781E0C851DF4F0FB6F894DEBF13
:101540000FBECDBFDF91CF911F910F91FF90EF9014
:10155000DF90CF90BF90AF909F908F907F906F90D3
:101560005F90089561E085E30E94A72061E085E334
:101570000E946E208CB580618CBD8CB580648CBD62
:1015800061E084E30E946E2061E083E30C946E20AE
:10159000CF93DF93EC0144E150E06EED71E08B5BA3
:1015A0009F4F0E948F23FE01E75AFF4F1082118246
:1015B00012821382CC5BDF4F1882DF91CF910895A6
:1015C0002F923F924F925F926F927F928F929F9253
:1015D000AF92BF92CF92DF92EF92FF920F931F9341
:1015E000CF93DF93CDB7DEB7A0970FB6F894DEBFE9
:1015F0000FBECDBF9E8F8D8F9C012B5B3F4FD901BE
:101600004D915D916D917C914D835E836F83788761
:101610002C5F3F4FD9014D915D916D917C91498730
:101620005A876B877C872C5F3F4FD9014D915D9125
:101630006D917C914D875E876F87788B2C5F3F4FD4
:10164000D9014D915D916D917C91498B5A8B6B8B3A
:101650007C8B2C5F3F4FD9014D915D916D917C91B9
:101660004D8B5E8B6F8B788F498F5A8F6B8F7C8FF2
:1016700009891A892B893C89CD84DE84EF84F88816
:1016800089849A84AB84BC844D815E816F81788526
:1016900049835A836B837C83212C312C422D40312A
:1016A00098F4D901C8018C259D25AE25BF25882138
:1016B0009921AA21BB2180279127A227B3278756EA
:1016C0009648AD47B54A8FC0822D8F706D8D7E8D47
:1016D00054E0859F600D711D1124D1011D96AF70DE
:1016E000BB271196AA0FBB1FAA0FBB1F8D8D9E8D06
:1016F000A80FB91FF1013896EF70FF273196EE0F52
:10170000FF1FEE0FFF1FE80FF91F8D919D910D90A8
:10171000BC91A02D408051806280738084259525E6
:10172000A625B725FB0144805580668077808425F7
:101730009525A625B725F1013296EF70FF27319642
:10174000EE0FFF1FEE0FFF1F6D8C7E8CE60DF71D59
:10175000408051806280738084259525A625B72519
:10176000880F991FAA1FBB1F811DFB0184839583CE
:10177000A683B783443108F494CFD701C601483219
:1017800068F488259925AA25BB2580279127A227BB
:10179000B3278F559441A642B14925C04C33B8F4C4
:1017A00088299929AA29BB2980239123A223B3231D
:1017B00026013701482059206A207B208429952959
:1017C000A629B72984529344A44EB0470CC088255B
:1017D0009925AA25BB2580279127A227B3278A52BE
:1017E0009E43AD49B5434F706D8C7E8C54E0459F50
:1017F000600C711C112478A26F8E49815A816B8113
:101800007C81EBE17695679557954795EA95D1F7F9
:1018100049805A806B807C80F5E0440C551C661C26
:10182000771CFA95D1F74429552966297729EF8D38
:10183000F8A14480558066807780440D551D661D53
:10184000771D480F591F6A1F7B1F898D9A8DAB8D9D
:10185000BC8D480F591F6A1F7B1FD501C401E2E0F0
:10186000B695A79597958795EA95D1F7FEE1880CEF
:10187000991CAA1CBB1CFA95D1F7882A992AAA2A76
:10188000BB2A9FEF291A390AA0E52A16310489F0EC
:10189000098F1A8F2B8F3C8F970186017501640188
:1018A00089809A80AB80BC8049835A836B837C8318
:1018B000F5CEED8DFE8DEB5BFF4F8D819E81AF816F
:1018C000B885480F591F6A1F7B1F4083518362836D
:1018D00073836D8C7E8C99E4690E711C89819A8169
:1018E000AB81BC8149855A856B857C85840F951FAA
:1018F000A61FB71FF30180839183A283B383ED8D6D
:10190000FE8DE35BFF4F4D855E856F857889840E84
:10191000951EA61EB71E80829182A282B382ED8D93
:10192000FE8DEF5AFF4F69897A898B899C89C60E93
:10193000D71EE81EF91EC082D182E282F3824D8D4D
:101940005E8D4B5A5F4F8D899E89AF89B88D080F88
:10195000191F2A1F3B1FDA010D931D932D933C93F2
:101960001397A0960FB6F894DEBF0FBECDBFDF91E0
:10197000CF911F910F91FF90EF90DF90CF90BF908C
:10198000AF909F908F907F906F905F904F903F901F
:101990002F900895CF93DF93EC01CC5BDF4F38811C
:1019A00023E02327FC01E20FF11D648321E0230FD4
:1019B0002883203419F40E94E00A1882DF91CF9125
:1019C0000895262FFC01E75AFF4F40815181628123
:1019D00073814F5F5F4F6F4F7F4F408351836283AF
:1019E0007383622F0E94CA0C81E090E008950F93E8
:1019F0001F93CF93DF93EC0160E80E94CA0C8E0125
:101A00000C5B1F4FF801808160E0883321F0CE012C
:101A10000E94CA0CF7CFCE010E94CA0C60E0CE0132
:101A20000E94CA0C60E0CE010E94CA0C8E01075AC7
:101A30001F4FF8016081718182819381EDE196955C
:101A4000879577956795EA95D1F7CE010E94CA0CE4
:101A5000F8016081718182819381F5E19695879586
:101A600077956795FA95D1F7CE010E94CA0CF801D7
:101A70006081718182819381ADE09695879577959C
:101A80006795AA95D1F7CE010E94CA0CF801608132
:101A9000718182819381B5E0969587957795679559
:101AA000BA95D1F7CE010E94CA0CF8016081660F89
:101AB000660F660FCE01DF91CF911F910F910C94AD
:101AC000CA0CCF93DF93EC010E94F70CAE0125E026
:101AD00030E0FA01EB5BFF4F60817181828193817D
:101AE0000E9439216083718382839383215031095D
:101AF0004C5F5F4F2115310561F7CE018B5B9F4F26
:101B0000DF91CF910895AF92BF92CF92DF92EF9283
:101B1000FF920F931F93CF93DF9300D01F92CDB707
:101B2000DEB75C017C018DE5E80EF11C80E4D70195
:101B30001D928A95E9F74134510554F1C501498355
:101B40005A836B837C830E94C80A6B81062F7C8139
:101B5000172F49815A816801C40ED51E0C151D0529
:101B600061F0F80161918F01D501ED91FC91019037
:101B7000F081E02DC5011995F1CFC5010E94610DDD
:101B800024E1FC01D70101900D922A95E1F703C0F1
:101B9000C7010E94A523C5010E94C80A85017501DD
:101BA000B0E4EB0EF11C86E3D82ED501ED91FC914B
:101BB000D801A35ABF4F6C916D250190F081E02DA3
:101BC000C50119950F5F1F4F0E151F0571F70F9077
:101BD0000F900F900F90DF91CF911F910F91FF9079
:101BE000EF90DF90CF90BF90AF900895DF92EF928B
:101BF000FF920F931F93CF93DF93EC010E94610D2F
:101C0000DE01A356BF4F24E1FC0101900D922A95FD
:101C1000E1F7CE010E94C80A7E0180E4E80EF11CC3
:101C20008E019CE5D92EE881F981D801A35ABF4FD6
:101C30006C916D250190F081E02DCE0119950F5F1B
:101C40001F4F0E151F0579F77E0184E1E80EF11C88
:101C50008E01E881F981D801A356BF4F0190F08130
:101C6000E02D6C91CE0119950F5F1F4F0E151F05CA
:101C700081F7CE01DF91CF911F910F91FF90EF90EF
:101C8000DF900C94610D1092C9061092C8068CE486
:101C900094E09093C7068093C60608952F923F92D2
:101CA0004F925F926F927F928F929F92AF92BF926C
:101CB000CF92DF92EF92FF920F931F93CF93DF9318
:101CC000CDB7DEB7EF970FB6F894DEBF0FBECDBF2E
:101CD0009FAF8EAF9C012B5B3F4FD9018D919D91A2
:101CE0000D90BC91A02D8C8F9D8FAE8FBF8F2EAD90
:101CF0003FAD275B3F4FD9018D919D910D90BC91D8
:101D0000A02D88A399A3AAA3BBA32EAD3FAD235BAF
:101D10003F4FD9018D919D910D90BC91A02D8CA329
:101D20009DA3AEA3BFA32EAD3FAD2F5A3F4FD90108
:101D30008D919D910D90BC91A02D88A799A7AAA7E0
:101D4000BBA72EAD3FAD2B5A3F4FD9018D919D9131
:101D50000D90BC91A02D8CA79DA7AEA7BFA72EADBF
:101D60003FAD275A3F4FD9018D919D910D90BC9168
:101D7000A02D88AB99ABAAABBBAB2EAD3FAD235A20
:101D80003F4FD9018D919D910D90BC91A02D8CABB1
:101D90009DABAEABBFAB2EAD3FAD2F593F4FD90181
:101DA0008D919D910D90BC91A02D88AF99AFAAAF58
:101DB000BBAF22EF31E03B8F2A8F4C015D018CA934
:101DC0009DA9AEA9BFA98A8B9B8BAC8BBD8B28A983
:101DD00039A94AA95BA92E8B3F8B488F598F8CA5B7
:101DE0009DA5AEA5BFA589839A83AB83BC8328A597
:101DF00039A54AA55BA52E873F87488B598B8CA1B7
:101E00009DA1AEA1BFA18A879B87AC87BD8728A172
:101E100039A14AA15BA12E833F83488759874C8D06
:101E20005D8D6E8D7F8DAAEF2A2E33243A941D820C
:101E3000C980DA80EB80FC808BE0F694E794D7943D
:101E4000C7948A95D1F789819A81AB81BC8125E1BC
:101E5000880F991FAA1FBB1F2A95D1F7C82AD92A14
:101E6000EA2AFB2A09811A812B813C81E6E036951A
:101E7000279517950795EA95D1F749805A806B8089
:101E80007C80FAE1440C551C661C771CFA95D1F74E
:101E90000429152926293729C026D126E226F3262A
:101EA00009811A812B813C81A9E1369527951795E7
:101EB0000795AA95D1F749805A806B807C80B7E05E
:101EC000440C551C661C771CBA95D1F704291529BA
:101ED00026293729C026D126E226F3260A891B891E
:101EE0002C893D898E899F89A88DB98D082719274E
:101EF0002A273B2789819A81AB81BC81082319233A
:101F00002A233B238A899B89AC89BD890827192705
:101F10002A273B27EA8DFB8D45905590659074905C
:101F2000C00ED11EE21EF31EC40CD51CE61CF71C0D
:101F30008D818F70EEADFFAD94E0899FE00DF11DB6
:101F4000112484819581A681B781C80ED91EEA1E0D
:101F5000FB1EC80CD91CEA1CFB1C4A015B011DE0DE
:101F6000B694A794979487941A95D1F7DB01CA0188
:101F700003E1880F991FAA1FBB1F0A95D1F7882A72
:101F8000992AAA2ABB2A8A019B0182E036952795C5
:101F9000179507958A95D1F72A013B019EE1440CDC
:101FA000551C661C771C9A95D1F7042915292629FA
:101FB000372980269126A226B3268A019B01E6E1D5
:101FC0003695279517950795EA95D1F72A013B0194
:101FD000FAE0440C551C661C771CFA95D1F70429CD
:101FE00015292629372980269126A226B3260E8177
:101FF0001F81288539858A859B85AC85BD85082B01
:10200000192B2A2B3B2B04231523262337234E8001
:102010005F8068847984482259226A227B220429BD
:10202000152926293729080D191D2A1D3B1D8E85C6
:102030009F85A889B9898C0D9D1DAE1DBF1D8E87FA
:102040009F87A88BB98B0C0D1D1D2E1D3F1D9D81DB
:102050009F5F9D83903409F40AC18D81803108F41B
:10206000CBC08F70AEADBFADE4E08E9FA00DB11DB3
:102070001124BDAFACAFD101AF70BB271196AA0F31
:10208000BB1FAA0FBB1F8EAD9FADA80FB91FECAD34
:10209000FDADC480D580E680F7808D919D910D9037
:1020A000BC91A02DC80ED91EEA1EFB1EF10135966B
:1020B000EF70FF273196EE0FFF1FEE0FFF1F8EAD63
:1020C0009FADE80FF91F40805180628073805301FB
:1020D0004201E1E1B694A79497948794EA95D1F7E9
:1020E000D301C201FFE0880F991FAA1FBB1FFA95F9
:1020F000D1F7882A992AAA2ABB2AD301C201EAE089
:10210000B695A79597958795EA95D1F7882699264C
:10211000AA26BB26D301C201F3E1B695A7959795F0
:102120008795FA95D1F7EDE0440C551C661C771C99
:10213000EA95D1F784299529A629B72988269926D1
:10214000AA26BB26C80CD91CEA1CFB1CF101389737
:10215000EF70FF273196EE0FFF1FEE0FFF1FAEADA2
:10216000BFADEA0FFB1F4080518062807380530136
:102170004201B7E0B694A79497948794BA95D1F7A3
:10218000D301C201E9E1880F991FAA1FBB1FEA957D
:10219000D1F7882A992AAA2ABB2AD301C201F3E0DF
:1021A000B695A79597958795FA95D1F7882699269C
:1021B000AA26BB26D301C201E2E1B695A795979561
:1021C0008795EA95D1F7FEE0440C551C661C771CF8
:1021D000FA95D1F784299529A629B7298826992621
:1021E000AA26BB26C80CD91CEA1CFB1CECADFDAD15
:1021F000C482D582E682F7828A8D9B8D04969B8F5E
:102200008A8F9FEF291A390A8A889B88AC88BD88F3
:102210008E899F89A88DB98D8A8B9B8BAC8BBD8B4A
:1022200089819A81AB81BC818E8B9F8BA88FB98F5E
:102230008E859F85A889B98989839A83AB83BC835E
:102240008A859B85AC85BD858E879F87A88BB98B3A
:102250008E819F81A885B9858A879B87AC87BD873A
:102260004E835F8368877987B901A801E1CDEEAD20
:10227000FFADEB5BFF4F8C8D9D8DAE8DBF8D080F3D
:10228000191F2A1F3B1F0083118322833383EEAD66
:10229000FFADE75BFF4F88A199A1AAA1BBA1480FA1
:1022A000591F6A1F7B1F40835183628373836EAD06
:1022B0007FAD635B7F4F8E819F81A885B9852CA1FF
:1022C0003DA14EA15FA1820F931FA41FB51FFB016B
:1022D00080839183A283B3836EAD7FAD6F5A7F4FAE
:1022E0008A859B85AC85BD8528A539A54AA55BA5B2
:1022F000820F931FA41FB51FFB0180839183A283CC
:10230000B3836EAD7FAD6B5A7F4F8E859F85A88955
:10231000B9892CA53DA54EA55FA5820F931FA41FCB
:10232000B51FFB0180839183A283B3836EAD7FAD24
:10233000675A7F4F89819A81AB81BC8128A939A9CD
:102340004AA95BA9820F931FA41FB51FFB018083BD
:102350009183A283B3836EAD7FAD635A7F4F8E8925
:102360009F89A88DB98D2CA93DA94EA95FA9820F7F
:10237000931FA41FB51FFB0180839183A283B383A6
:102380006EAD7FAD6F597F4F8A899B89AC89BD89BE
:1023900028AD39AD4AAD5BAD820F931FA41FB51FA9
:1023A000FB0180839183A283B383EF960FB6F894E9
:1023B000DEBF0FBECDBFDF91CF911F910F91FF9078
:1023C000EF90DF90CF90BF90AF909F908F907F90D5
:1023D0006F905F904F903F902F900895CF93DF9331
:1023E000EC01CC5BDF4F388123E02327FC01E20FB7
:1023F000F11D648321E0230F2883203419F40E9407
:102400004E0E1882DF91CF910895262FFC01EB59D3
:10241000FF4F40815181628173814F5F5F4F6F4FEA
:102420007F4F4083518362837383622F0E94EE113A
:1024300081E090E0089510927A071092790784E580
:1024400094E090937807809377070895FC01718357
:102450006083538342830895CF93DF93EC01CB01D4
:10246000BA012EE130E040E050E00E9414212C83BC
:102470003D834E835F83188619861A861B865C8788
:102480004D873E872F874A815B816881798186EC01
:1024900096E00E94830DE091C606F091C706BE014A
:1024A000685F7F4F0280F381E02D48E050E086ECCA
:1024B00096E0199586EC96E00E94F60D998B888B34
:1024C000FC0143894F7050E05B8B4A8B1C8A1D8A4C
:1024D0001E8A1F8A20E030E0840F951F4C895D8999
:1024E0006E897F89762F652F542F44274C8B5D8B07
:1024F0006E8B7F8BFC01E20FF31FE0814E2B4C8B28
:102500005D8B6E8B7F8B2F5F3F4F2430310531F712
:10251000CB01BA019F7720E432E44FE050E00E9403
:1025200014216C8B7D8B8E8B9F8B68969F938F93E2
:102530007F936F9388E594E09F938F93DF93CF937E
:102540000E942924EDB7FEB738960FB6F894FEBF67
:102550000FBEEDBFCE01DF91CF910895EF92FF92B4
:102560000F931F93CF93DF938C01EC017C0184E3E5
:10257000E80EF11CCE010E948E142D96CE15DF05BB
:10258000C9F7F80115AA14AADF91CF911F910F91F5
:10259000FF90EF9008950F931F93CF93DF938C01DB
:1025A000009751F0EC01E496C017D10729F02D9760
:1025B000CE010E949D14F8CFDF91CF911F910F9112
:1025C0000895AF92BF92CF92DF92EF92FF920F9356
:1025D0001F93CF93DF93CDB7DEB72D970FB6F89447
:1025E000DEBF0FBECDBF8C016B0186179707E9F1E7
:1025F0007C01A12CB12CF80184A995A9A816B906D3
:10260000A8F4CE0101960E948E14BE016F5F7F4F29
:10261000C7010E94BD14CE0101960E949D148FEF48
:10262000A81AB80AEDE0EE0EF11CE5CFF60184A978
:1026300095A9F80195AB84ABE12CF12CA12CB12C20
:10264000F80184A995A9A816B90678F4B6016E0D0B
:102650007F1DC8018E0D9F1D0E94BD14FFEFAF1A94
:10266000BF0A8DE0E80EF11CEBCFC8012D960FB626
:10267000F894DEBF0FBECDBFDF91CF911F910F91B8
:10268000FF90EF90DF90CF90BF90AF900895CF92E2
:10269000DF92EF92FF920F931F93CF93DF936C0122
:1026A0007C0100E010E0C0E0D0E0F60184A995A92B
:1026B0000817190758F4C7010E942615C80FD91F1B
:1026C0000F5F1F4F8DE0E80EF11CEFCFCE01DF91C1
:1026D000CF911F910F91FF90EF90DF90CF900895D1
:1026E000CF92DF92EF92FF920F931F93CF93DF93DE
:1026F0006C017B018C01C0E0D0E0F60184A995A9B2
:10270000C817D907B8F4219621E0C817D90709F0EE
:1027100020E041E0C130D10509F040E0B701C80137
:102720000E945715C8010E942615E80EF91E035F86
:102730001F4FE3CFDF91CF911F910F91FF90EF904B
:10274000DF90CF900895CF93DF93EC012CA93DA9A2
:102750002430310588F44DE0429FC001439F900D25
:1027600011248C0F9D1F0E94BD148CA99DA9019658
:102770009DAB8CAB81E007C062EF72E080E498E033
:102780000E94FF1B80E0DF91CF9108956F927F92AE
:102790008F929F92AF92BF92CF92DF92EF92FF9271
:1027A0000F931F93CF93DF93CDB7DEB72D970FB65F
:1027B000F894DEBF0FBECDBF6C018B015A014901F9
:1027C0006DB67EB6CE0101960E948E1462E0CE01F7
:1027D00001960E94AD15F801448155814F5F5F4F0E
:1027E0008DB79EB7841B950B0FB6F8949EBF0FBE96
:1027F0008DBFEDB7FEB731967F0120E030E0BF011D
:10280000C8010E94781EF80144815581B701CE01AC
:1028100001960E94B015A401B501CE0101960E9457
:10282000D315BE016F5F7F4FC6010E94A313CE0177
:1028300001960E949D140FB6F8947EBE0FBE6DBE29
:102840002D960FB6F894DEBF0FBECDBFDF91CF91AE
:102850001F910F91FF90EF90DF90CF90BF90AF90BE
:102860009F908F907F906F9008958F929F92AF92DC
:10287000BF92CF92DF92EF92FF920F931F93CF936D
:10288000DF9300D000D0CDB7DEB75C014B018A01E9
:10289000CDB6DEB6FA01448155814F5F5F4F8DB7EB
:1028A0009EB7841B950B0FB6F8949EBF0FBE8DBFCD
:1028B000EDB7FEB731967F0120E030E0BF01C801DF
:1028C0000E94781EF80104811581B401CE010196A1
:1028D0000E94C41D9801A701BE016F5F7F4FC50113
:1028E0000E94C613CE0101960E94291D0FB6F894CE
:1028F000DEBE0FBECDBE26960FB6F894DEBF0FBE6D
:10290000CDBFDF91CF911F910F91FF90EF90DF909E
:10291000CF90BF90AF909F908F900895FC01108250
:1029200012821182148213821682158210861782F7
:1029300012861186148613860895CF93DF93EC01D7
:1029400089819A81892B21F08F8198850E94F021BD
:102950008B819C81892B21F089859A850E94F021A9
:102960008D819E81892B31F08B859C85DF91CF9164
:102970000C94F021DF91CF910895EF92FF920F9385
:102980001F93CF93DF93EC018B018617970709F410
:1029900055C089819A81892B21F08F8198850E9469
:1029A000F0218B819C81892B21F089859A850E9459
:1029B000F0218D819E81892B21F08B859C850E9441
:1029C000F021F80180818883E180F280FA82E98237
:1029D000838194819C838B83858196819E838D8363
:1029E000E114F10459F0C7010E94582198878F83A0
:1029F000F80167817085A7010E94A523EB80FC8008
:102A0000E114F10459F0C7010E9458219A8789877F
:102A1000F80161857285A7010E94A523ED80FE80E3
:102A2000E114F10459F0C7010E9458219C878B875B
:102A3000F80163857485A7010E94A523CE01DF916B
:102A4000CF911F910F91FF90EF900895FC0143816A
:102A500054814F3F510521F01CF026E030E002C0C8
:102A600023E030E0658176816115710511F02F5FFB
:102A70003F4F81819281860F971F840F951F820F90
:102A8000931F0895FC0120816111206830E04111FD
:102A90002064838194818F3F910509F00CF42061BB
:102AA00085819681892B09F02860822F0895EF9205
:102AB000FF920F931F93CF93DF93EC018B01642F51
:102AC000422F0E944215F8018083898181838B8186
:102AD0009C818F3F910509F024F482830D5F1F4F85
:102AE00009C0F801128213828C8184838B818583D3
:102AF0000A5F1F4F8D819E81009719F0F801819325
:102B00008F016F81788549815A81C8010E94A52370
:102B1000E980FA80E00EF11E69857A854B815C813F
:102B2000C7010E94A5238B819C814D815E81411547
:102B3000510561F06B857C858E0D9F1DDF91CF91D6
:102B40001F910F91FF90EF900C94A523DF91CF91EF
:102B50001F910F91FF90EF900895FC0160830895FD
:102B6000EF92FF920F931F93CF93DF93EC017B01C2
:102B70008A0189819A81892B21F08F8198850E9411
:102B8000F021C8010E94582198878F83A801B701BE
:102B90000E94A5231A830983DF91CF911F910F9182
:102BA000FF90EF900895EF92FF920F931F93CF93B2
:102BB000DF93EC017B018A018B819C81892B21F0C1
:102BC00089859A850E94F021C8010E9458219A8720
:102BD0008987A801B7010E94A5231C830B83DF917D
:102BE000CF911F910F91FF90EF900895815B9F4FC0
:102BF000FC01718360830895CF93DF93EC01C15B87
:102C0000DF4F88819981DC01ED91FC910190F08189
:102C1000E02D199588819981DC01ED91FC9102806C
:102C2000F381E02DDF91CF911994EF92FF920F93F2
:102C3000CF93DF93FC0194E1978781E0808B918BA8
:102C4000828B7F018FE4E80EF11CD7018D919C915E
:102C5000EF012F96DC01ED91FC910480F581E02DD0
:102C600000E020E030E044E0BE011995811112C07F
:102C7000F70180819181DC01ED91FC910680F78163
:102C8000E02D20E030E040E4BE01199521E0181667
:102C900019060CF020E0822FDF91CF910F91FF9069
:102CA000EF900895CF92DF92EF92FF920F93CF9320
:102CB000DF93EC0169017C018FE4E80EF11CD70180
:102CC0008D919C91DC01ED91FC910480F581E02DCA
:102CD00000E020E030E0199587FD15C0F701808104
:102CE0009181DC01ED91FC91BE01615F7F4F068017
:102CF000F781E02D960140E41995181634F08E3FC7
:102D000031F480E005C08FEF03C081E001C08EEF99
:102D1000DF91CF910F91FF90EF90DF90CF900895CA
:102D2000EF92FF920F931F93CF93DF93EB01142F3A
:102D300026E82883815B9F4F7C01DC018D919C916B
:102D4000DC01ED91FC910480F581E02D00E020E0B4
:102D500030E041E01995811126C0F7018081918111
:102D6000DC01ED91FC910680F781E02D20ED37E04C
:102D7000412FBE01199518161906CCF49C0121505B
:102D800031098881811111C040E0842F90E08217C1
:102D9000930738F4FE01E80FF91F818180834F5FAC
:102DA000F4CFC90104C08FEF01C08BEF9FEFDF911B
:102DB000CF911F910F91FF90EF900895EF92FF92A6
:102DC0000F93CF93DF93EC014034E8F0232B19F0FD
:102DD00080E090E058C0DC011F966A177B07C1F3C2
:102DE0008EE88F87FE01E15BFF4F80819181FC01BE
:102DF00020813181F901E480F580042F9B0141E0BD
:102E0000BD01F70124C05FEF540F5F3F79F0852FBC
:102E1000992787FD9095FB01E80FF91FE081DE01FE
:102E2000A80FB91F5096EC935150EFCF8EE88F87C3
:102E3000FE01E15BFF4F80819181DC01ED91FC910E
:102E40004F5F0480F581E02DBE01615F7F4F1995D2
:102E50008111BECFFE01E15BFF4F80819181DC01DA
:102E6000ED91FC910680F781E02D28EB3BE040E4FA
:102E7000BE01615F7F4F199597FDAACF81E090E079
:102E80002F85211180E0DF91CF910F91FF90EF907E
:102E90000895EF92FF920F93CF93DF93FC0182E5A9
:102EA0008787608B7F018FE4E80EF11CD7018D913D
:102EB0009C91EF012F96DC01ED91FC910480F5814E
:102EC000E02D00E020E030E042E0BE0119958111E4
:102ED00013C0F70180819181DC01ED91FC910680A6
:102EE000F781E02D20E030E040E4BE01DF91CF919A
:102EF0000F91FF90EF90199480E090E0DF91CF91D7
:102F00000F91FF90EF90089561E0FC0184810E9491
:102F10006E200E94B20A8CB5837F8CBD8CB5806216
:102F20008CBD8CB58C7F81608CBD8DB581608DBD75
:102F30000895CF93DF93EC0160E08C810E94A7207D
:102F400062E070E080E090E00E94901F61E08C8180
:102F5000DF91CF910C94A7208EBD00000DB407FE29
:102F6000FDCF8EB5089580E00C94AC17FC0182E68D
:102F700094E09183808315827383628344830895F0
:102F80001F93CF93DF93EC0160E08C810E94A72018
:102F900082E00E94AC170E94B317182F61E08C8169
:102FA0000E94A720812F8170DF91CF911F910895FA
:102FB000BF92CF92DF92EF92FF920F931F93CF9326
:102FC000DF938C01D62EB72EC42E7901C0E0D0E05D
:102FD000C8010E94C017811110C061E070E080E05C
:102FE00090E00E94901F2196E114F10489F3EC1601
:102FF000FD0670F78EEF9FEF59C060E0F801848105
:103000000E94A72061E070E080E090E00E94901FA5
:1030100083E00E94AC170E94B317811115C00E9473
:10302000B317811111C00E94B3178F3F69F40E943A
:10303000B317F82E0E94B3178F0D31F4F801C58134
:103040000E94B317853D49F0CDEFDFEF61E0F80155
:1030500084810E94A720CE0129C00E94B31791E06D
:103060009C0F9813F1CFFA94FA94CF1438F40E947D
:10307000B3170E94B317CCEFDFEFE8CF86EDE82E51
:10308000EC0ECD2CCD2DDB2D8C2F8C198F1528F42B
:103090000E94B3178993E80EF7CF0E94B3178E0DE5
:1030A00099F60E94B317CF2DD0E0D0CFDF91CF910A
:1030B0001F910F91FF90EF90DF90CF90BF900895F8
:1030C0008F929F92AF92BF92CF92DF92EF92FF9238
:1030D0000F931F93CF93DF937C01162FD72EB42E1F
:1030E000A22E932E60E0FC0184810E94A72062E062
:1030F00070E080E090E00E94901F81E00E94AC1799
:1031000080E00E94AC1780E00E94AC178FEF0E9415
:10311000AC17C1E0C00FCB0D8C2F0E94AC178C2FC9
:1031200081950E94AC1784ED0E94AC17812EC12FAF
:10313000DD2D14ED8C2F88198B1540F46E018991CB
:103140000E94AC17F6018081180FF4CFBA2CCA2D5B
:10315000D92D8C2F8B19801740F46E0189910E9414
:10316000AC17F6018081180FF4CF812F81950E9452
:10317000AC1780E00E94AC1761E0F7018481DF9119
:10318000CF911F910F91FF90EF90DF90CF90BF9064
:10319000AF909F908F900C94A720AF92BF92CF9248
:1031A000DF92EF92FF920F931F93CF93DF93CDB7F0
:1031B000DEB72C970FB6F894DEBF0FBECDBF7C01F3
:1031C00086E0E4E3F2E0DE01179601900D928A9525
:1031D000E1F760E0F70184810E94A72061E070E0E0
:1031E00080E090E00E94901F83E00E94AC178E0167
:1031F0000F5F1F4F6E01F7E0CF0ED11CB02EA12E36
:103200000E94B317F80181938F01EC15FD05C1F7FA
:1032100061E0F70184810E94A72046E050E0B801F8
:103220008B2D9A2D0E9498232C960FB6F894DEBF12
:103230000FBECDBFDF91CF911F910F91FF90EF9007
:10324000DF90CF90BF90AF9008950F931F93CF93CF
:10325000DF93EC01FB0180818D83CE010E94601819
:103260001AE0CE010E94C01781110AC061E070E02F
:1032700080E090E00E94901F115099F78EEF09C0F6
:10328000CE010E94CD1891E0811101C090E0892FFC
:103290008195DF91CF911F910F910895FC01818D50
:1032A000228D90E0805C9F4F821B910960E470E06A
:1032B0000E94DE200895FC01918D828D981731F0D7
:1032C000828DE80FF11D858D90E008958FEF9FEFBF
:1032D0000895FC01918D828D981761F0828DDF0138
:1032E000A80FB11D5D968C91928D9F5F9F73928FF9
:1032F00090E008958FEF9FEF089584E29BE1892B82
:1033000041F080E090E0892B21F00E94241B811184
:1033100025C080E090E0892B41F080E090E0892B8F
:1033200021F00E94000081111CC080E090E0892BF8
:1033300041F080E090E0892B21F00E940000811193
:1033400013C080E090E0892BA1F080E090E0892B11
:1033500081F00E94000081110AC008950E940000BF
:10336000D8CF0E940000E1CF0E940000EACF0C9469
:1033700000000895FC01848DDF01A80FB11DA35A40
:10338000BF4F2C91848D90E001968F739927848F85
:10339000A689B7892C93A089B1898C9180648C937C
:1033A000938D848D981306C00288F389E02D808167
:1033B0008F7D80830895CF93DF93EC01888D8823E0
:1033C000C9F0EA89FB89808185FD05C0A889B98992
:1033D0008C9186FD0FC00FB607FCF5CF808185FF6D
:1033E000F2CFA889B9898C9185FFEDCFCE010E94DB
:1033F000BA19E7CFDF91CF910895CF92DF92FF9274
:103400000F931F93CF93DF931F92CDB7DEB76C015D
:10341000DC015B969C915B975C968C915C97981312
:1034200007C05096ED91FC915197808185FD32C087
:10343000F601038D10E00F5F1F4F0F731127F02E61
:10344000F601848DF81211C00FB607FCF9CFD60132
:103450005096ED91FC915197808185FFF1CFC60187
:1034600069830E94BA196981EBCF838DE80FF11D42
:10347000E35AFF4F6083D6015B960C935B9752969D
:10348000ED91FC91539780818062808381E0589612
:103490008C930DC0D6015696ED91FC9157976083A1
:1034A0005096ED91FC91519780818064808381E0FA
:1034B00090E00F90DF91CF911F910F91FF90DF90DF
:1034C000CF900895BF92CF92DF92EF92FF92CF9369
:1034D000DF93EC016A017B01B22EE889F98982E071
:1034E0008083411581EE580761057105A1F060E008
:1034F00079E08DE390E0A70196010E94F22021502F
:103500003109410951095695479537952795211558
:1035100080E1380798F0E889F989108260E874E85A
:103520008EE190E0A70196010E94F220215031091E
:10353000410951095695479537952795EC85FD85A5
:103540003083EE85FF852083188EEC89FD89B0825B
:10355000EA89FB89808180618083EA89FB89808197
:1035600088608083EA89FB89808180688083EA891A
:10357000FB8980818F7D8083DF91CF91FF90EF90D9
:10358000DF90CF90BF9008951F920F920FB60F92C9
:1035900011240BB60F922F938F939F93EF93FF936A
:1035A000E0915008F09151088081E0915608F09127
:1035B000570882FD12C09081809159088F5F8F73E8
:1035C00020915A08821751F0E0915908F0E0E05C30
:1035D000F74F958F8093590801C08081FF91EF913B
:1035E0009F918F912F910F900BBE0F900FBE0F9058
:1035F0001F9018951F920F920FB60F9211240BB6C1
:103600000F922F933F934F935F936F937F938F937B
:103610009F93AF93BF93EF93FF9380E498E00E9452
:10362000BA19FF91EF91BF91AF919F918F917F91C7
:103630006F915F914F913F912F910F900BBE0F9023
:103640000FBE0F901F90189580E498E00E944E19CD
:1036500021E0892B09F420E0822F0895109243087D
:103660001092420888EE93E0A0E0B0E08093440816
:1036700090934508A0934608B09347088EE694E0DF
:10368000909341088093400885EC90E090934D081A
:1036900080934C0884EC90E090934F0880934E0800
:1036A00080EC90E0909351088093500881EC90E07A
:1036B000909353088093520882EC90E090935508C1
:1036C0008093540886EC90E09093570880935608B6
:1036D0001092590810925A0810925B0810925C08D8
:1036E0000895CF92DF92EF92FF920F931F93CF93A3
:1036F000DF936C017A01EB01E60EF71E00E010E0AB
:10370000CE15DF0561F06991D601ED91FC91019034
:10371000F081E02DC6011995080F191FF1CFC801DE
:10372000DF91CF911F910F91FF90EF90DF90CF909D
:1037300008956115710581F0DB010D900020E9F716
:10374000AD0141505109461B570BDC01ED91FC9135
:103750000280F381E02D199480E090E00895EF92CB
:10376000FF920F931F93CF93DF938C01FB01C0E077
:10377000D0E064917F018FEFE81AF80A662361F0C8
:10378000D801ED91FC910190F081E02DC8011995CF
:10379000C80FD91FF701EDCFCE01DF91CF911F9157
:1037A0000F91FF90EF900895DC01ED91FC91DB010A
:1037B00014964D915C9115976D917C910280F381E7
:1037C000E02D19940C94991BDC01ED91FC91019072
:1037D000F081E02D19940F931F93CF93DF93EC01A9
:1037E0006DE00E94E41B8C016AE0CE010E94E41BA4
:1037F000800F911FDF91CF911F910F9108950F932B
:103800001F93CF93DF93EC010E94AF1B8C01CE017D
:103810000E94EB1B800F911FDF91CF911F910F91A1
:1038200008950F931F93CF93DF93EC010E94991B90
:103830008C01CE010E94EB1B800F911FDF91CF9175
:103840001F910F9108958F929F92AF92BF92CF9246
:10385000DF92EF92FF920F931F93CF93DF93CDB739
:10386000DEB7A1970FB6F894DEBF0FBECDBF7C01C7
:10387000C42EE52FCB01D22E19A221E02D1510F078
:103880002AE0D22E8E010F5D1F4F8D2C912CA12C82
:10389000B12C6C2D7E2FA50194010E94F2208C2D5D
:1038A000D29E80191124015011098A3014F4805DD0
:1038B00001C0895CF801808321153105410551055E
:1038C00021F0C22EE32FCA01E4CFB801C7010E9444
:1038D000991BA1960FB6F894DEBF0FBECDBFDF9146
:1038E000CF911F910F91FF90EF90DF90CF90BF90FD
:1038F000AF909F908F900895CF92DF92EF92FF92BA
:103900000F931F93CF93DF93EC016A017B01211585
:10391000310579F4E881F9810190F081E02D642F7F
:10392000DF91CF911F910F91FF90EF90DF90CF909B
:1039300019942A303105E9F477FF1AC06DE20E942C
:10394000E41B8C0144275527BA014C195D096E0907
:103950007F092AE0CE010E94231C800F911FDF9176
:10396000CF911F910F91FF90EF90DF90CF9008952E
:103970002AE0B701A601CE01DF91CF911F910F91EF
:10398000FF90EF90DF90CF900C94231C0F931F9328
:10399000CF93DF93EC010E94611F688779878A8744
:1039A0009B87E881F9810680F781E02DCE0119958A
:1039B00097FF15C00E94611F088519852A853B85E0
:1039C000601B710B820B930B0C811D812E813F813B
:1039D000601771078207930720F38FEF9FEFDF9146
:1039E000CF911F910F910895AF92BF92CF92DF9226
:1039F000EF92FF920F931F93CF93DF936C017901A6
:103A000021153105B9F08A01C0E0D0E0A62EBB2413
:103A1000A7FCB094C6010E94C61C97FD0EC08A1573
:103A20009B0559F0F80181938F012196CE15DF0592
:103A300089F703C080E090E001C0CE01DF91CF9113
:103A40001F910F91FF90EF90DF90CF90BF90AF90BC
:103A50000895FC01808191810C94F021CF93DF9334
:103A6000EC0188819981009711F00E94F021198260
:103A700018821D821C821B821A82DF91CF910895C9
:103A80000F931F93CF93DF93EC018B016F5F7F4FF9
:103A9000888199810E947F22009731F099838883E1
:103AA0001B830A8381E001C080E0DF91CF911F91E9
:103AB0000F910895CF93DF93EC0188819981892B31
:103AC00029F08A819B818617970760F4CE010E94B6
:103AD000401D882341F08C819D81892B19F4E88158
:103AE000F981108281E0DF91CF910895EF92FF92EA
:103AF0000F931F93CF93DF93EC017B018A01BA01EF
:103B00000E945A1D811104C0CE010E942E1D07C0C3
:103B10001D830C83B701888199810E94C223CE0145
:103B2000DF91CF911F910F91FF90EF900895FC01CD
:103B3000118210821382128215821482611571051E
:103B400059F0FB0101900020E9F7AF014150510904
:103B5000461B570B0C94761D0895CF93DF93EC0111
:103B6000FB018617970761F060817181611571050E
:103B700029F0448155810E94761D02C00E942E1DAD
:103B8000CE01DF91CF910895FC0111821082138242
:103B90001282158214820C94AD1DCF93DF93EC0139
:103BA0006115710561F0FB0101900020E9F7AF019B
:103BB00041505109461B570B0E94761D02C00E94BE
:103BC0002E1DCE01DF91CF9108950F931F93CF93B8
:103BD000DF93CDB7DEB7A2970FB6F894DEBF0FBE66
:103BE000CDBF8C01CB01BA01F80111821082138282
:103BF00012821582148230E0AE014F5F5F4F0E9447
:103C0000D823BE016F5F7F4FC8010E94CD1DA296D1
:103C10000FB6F894DEBF0FBECDBFDF91CF911F91DD
:103C20000F910895EF92FF920F931F93CF93DF931D
:103C3000EC017B010C811D816115710511F480E09F
:103C400016C04115510591F0040F151FB8010E94CF
:103C50005A1D8823A1F3288139818C819D81B70168
:103C6000820F931F0E94C2231D830C8381E0DF918A
:103C7000CF911F910F91FF90EF900895FB01448128
:103C80005581608171810C94121ECF93DF931F9236
:103C90001F92CDB7DEB769831A8241E050E0BE01C2
:103CA0006F5F7F4F0E94121E0F900F90DF91CF9198
:103CB0000895FC0124813581232B31F421E0611525
:103CC0007105A1F0FB0108C0FC01808191816115A3
:103CD000710531F421E0FC018081882339F005C0B1
:103CE0000E94B92321E0892B09F020E0822F08955A
:103CF0000F931F93CF93DF93EB0141155105E9F02B
:103D00002097D9F0FC016481758126173707A0F44C
:103D1000621B730B8A01015011096017710708F4C7
:103D20008B01FC0160817181620F731FA801CE01BC
:103D30000E94C923C00FD11F1882DF91CF911F911C
:103D40000F910895CF93DF93FC01848195814817EB
:103D5000590778F4C081D181772767FD7095CE012E
:103D6000840F951F0E94AE23009719F08C1B9D0BAA
:103D700002C08FEF9FEFDF91CF91089540E050E0B8
:103D80000C94A21EBF92CF92DF92EF92FF920F93FC
:103D90001F93CF93DF936C017B01EA018901241704
:103DA000350720F48D2FE901042F182F6BEB73E0FA
:103DB000C6010E94971DD70114968D919C9115976D
:103DC000C817D907C8F48017910708F48C01D701E8
:103DD000ED91FC911197E00FF11FB08010826D9171
:103DE0007C916C0F7D1FC6010E94CD1DD701ED9106
:103DF000FC91E00FF11FB082C601DF91CF911F91BE
:103E00000F91FF90EF90DF90CF90BF9008950895AD
:103E10000E94B81F0E94071F0E945002CDE7D9E1FF
:103E20000E949C022097E1F30E947D19F9CF1F9216
:103E30000F920FB60F9211242F933F938F939F935E
:103E4000AF93BF938091DE089091DF08A091E008C6
:103E5000B091E1083091DD0823E0230F2D3720F4E5
:103E60000196A11DB11D05C026E8230F0296A11DD4
:103E7000B11D2093DD088093DE089093DF08A093A6
:103E8000E008B093E1088091E2089091E308A091E6
:103E9000E408B091E5080196A11DB11D8093E208E8
:103EA0009093E308A093E408B093E508BF91AF9125
:103EB0009F918F913F912F910F900FBE0F901F9068
:103EC00018952FB7F8946091DE087091DF08809103
:103ED000E0089091E1082FBF08953FB7F8948091D2
:103EE000E2089091E308A091E408B091E50826B5B6
:103EF000A89B05C02F3F19F00196A11DB11D3FBF22
:103F00006627782F892F9A2F620F711D811D911DB1
:103F100042E0660F771F881F991F4A95D1F70895D1
:103F2000CF92DF92EF92FF92CF93DF936B017C01F0
:103F30000E946D1FEB01C114D104E104F10489F06A
:103F40000E94DD200E946D1F6C1B7D0B683E73403C
:103F500090F381E0C81AD108E108F108C851DC4F9C
:103F6000EACFDF91CF91FF90EF90DF90CF9008954F
:103F7000789484B5826084BD84B5816084BD85B544
:103F8000826085BD85B5816085BDEEE6F0E080810B
:103F900081608083E1E8F0E010828081826080832C
:103FA000808181608083E0E8F0E0808181608083AF
:103FB000E1EBF0E0808184608083E0EBF0E08081E1
:103FC00081608083E1E9F0E080818260808380818C
:103FD00081608083E0E9F0E0808181608083E1EAB4
:103FE000F0E0808182608083808181608083E0EA6C
:103FF000F0E0808181608083E1E2F1E08081826095
:104000008083808181608083E0E2F1E08081816053
:104010008083EAE7F0E08081846080838081826031
:10402000808380818160808380818068808310921A
:10403000C100089590E0FC013197E231F10508F0EC
:104040004CC0E358FF4F0C943321809180008F7750
:1040500003C0809180008F7D8093800008958091BF
:104060008000877FF9CF84B58F7702C084B58F7DBC
:1040700084BD08958091B0008F7703C08091B00017
:104080008F7D8093B0000895809190008F7707C056
:10409000809190008F7D03C080919000877F8093F6
:1040A000900008958091A0008F7707C08091A000B4
:1040B0008F7D03C08091A000877F8093A00008952A
:1040C000809120018F7707C0809120018F7D03C0F0
:1040D00080912001877F809320010895CF93DF9303
:1040E00090E0FC01E259FC4F2491FC01EC54FC4FA0
:1040F0008491882349F190E0880F991FFC01EC5EC0
:10410000FB4FA591B49186509C4FFC01C591D49171
:104110009FB7611108C0F8948C91209582238C93ED
:10412000888182230AC0623051F4F8948C91322F36
:10413000309583238C938881822B888304C0F894E4
:104140008C91822B8C939FBFDF91CF9108950F9319
:104150001F93CF93DF931F92CDB7DEB7282F30E0A8
:10416000F901E85DFC4F8491F901E259FC4F14918B
:10417000F901EC54FC4F04910023C9F0882321F08D
:1041800069830E941A206981E02FF0E0EE0FFF1F83
:10419000E650FC4FA591B4919FB7F8948C916111B2
:1041A00003C01095812301C0812B8C939FBF0F907A
:1041B000DF91CF911F910F910895089597FB072EDE
:1041C00016F4009407D077FD09D00E94442107FC23
:1041D00005D03EF4909581959F4F08957095619517
:1041E0007F4F0895A1E21A2EAA1BBB1BFD010DC033
:1041F000AA1FBB1FEE1FFF1FA217B307E407F50797
:1042000020F0A21BB30BE40BF50B661F771F881F72
:10421000991F1A9469F760957095809590959B0108
:10422000AC01BD01CF010895052E97FB1EF400944B
:104230000E942B2157FD07D00E94F22007FC03D0DB
:104240004EF40C942B2150954095309521953F4F7D
:104250004F4F5F4F089590958095709561957F4F72
:104260008F4F9F4F0895EE0FFF1F0590F491E02DA3
:10427000199469279627692778278727782708952B
:104280000790F691E02D1994AA1BBB1B51E107C0C2
:10429000AA1FBB1FA617B70710F0A61BB70B881FD6
:1042A000991F5A95A9F780959095BC01CD01089565
:1042B000CF93DF938230910510F482E090E0E0919B
:1042C000E808F091E90820E030E0A0E0B0E03097A5
:1042D00039F14081518148175907B8F048175907FB
:1042E00071F482819381109729F013969C938E9399
:1042F00012972CC09093E9088093E80827C02115F5
:10430000310531F04217530718F0A901DB0101C054
:10431000EF019A01BD01DF010280F381E02DD7CFCB
:1043200021153105F9F0281B390B2430310580F4B3
:104330008A819B816115710521F0FB019383828342
:1043400004C09093E9088093E808FE01329644C0C7
:10435000FE01E20FF31F81939193225031093983BB
:1043600028833AC02091E6083091E708232B41F4D6
:1043700020910202309103023093E7082093E6086F
:1043800020910002309101022115310541F42DB731
:104390003EB74091040250910502241B350BE09179
:1043A000E608F091E708E217F307A0F42E1B3F0B95
:1043B0002817390778F0AC014E5F5F4F2417350797
:1043C00048F04E0F5F1F5093E7084093E608819333
:1043D000919302C0E0E0F0E0CF01DF91CF9108952A
:1043E000CF93DF93009709F487C0FC0132971382C3
:1043F0001282C091E808D091E908209781F42081C9
:104400003181280F391F8091E6089091E7088217C3
:10441000930779F5F093E708E093E6086DC0DE01B5
:1044200020E030E0AE17BF0750F412964D915C913A
:1044300013979D014115510509F1DA01F3CFB383BB
:10444000A28340815181840F951F8A179B0771F4C5
:104450008D919C911197840F951F02969183808373
:1044600012968D919C911397938382832115310528
:1044700029F4F093E908E093E8083EC0D9011396C7
:10448000FC93EE9312974D915D91A40FB51FEA171F
:10449000FB0779F480819181840F951F0296D901E1
:1044A00011969C938E938281938113969C938E9305
:1044B0001297E0E0F0E08A819B81009719F0FE01FD
:1044C000EC01F9CFCE01029628813981820F931F2A
:1044D0002091E6083091E7082817390769F43097EA
:1044E00029F41092E9081092E80802C0138212829F
:1044F000D093E708C093E608DF91CF9108956F92BB
:104500007F928F929F92AF92BF92CF92DF92EF9263
:10451000FF920F931F93CF93DF93EC01CB01209772
:1045200081F4DF91CF911F910F91FF90EF90DF9079
:10453000CF90BF90AF909F908F907F906F900C9492
:104540005821FE01E60FF71F9E0122503109E217A4
:10455000F30708F4ACC0D9010D911C91119706170F
:104560001707B8F00530110508F49FC0A8014450A2
:1045700051094617570708F498C002501109061B45
:10458000170B019311936D937C93CF010E94F0213F
:104590008CC05B01A01AB10A4E01800E911EA09141
:1045A000E808B091E908612C712C60E070E0109788
:1045B00009F449C0A815B905C9F5ED90FC9011970B
:1045C000670142E0C40ED11CCA14DB0478F1470134
:1045D0008A189B08640142E0C40ED11C1296BC905C
:1045E00012971396AC91B5E0CB16D10440F0B2828D
:1045F000A38391828082D9018D939C9309C00E5F21
:104600001F4F0E0D1F1DF90111830083EB2DFA2F93
:104610006115710531F0DB011396FC93EE9312974F
:1046200044C0F093E908E093E8083FC06D917C91A5
:1046300011976616770608F43B01BD0112960D909E
:10464000BC91A02DB4CF6091E6087091E708681581
:104650007905E9F468167906D0F44091000250918A
:1046600001024115510541F44DB75EB76091040256
:1046700070910502461B570BE417F507C0F4F09341
:10468000E708E093E608F901918380830EC00E9459
:1046900058217C01009759F0A801BE010E94A52372
:1046A000CE010E94F021C70104C0CE0102C080E00B
:1046B00090E0DF91CF911F910F91FF90EF90DF90ED
:1046C000CF90BF90AF909F908F907F906F90089504
:1046D0001F93FC0199278827BC01E894119110329F
:1046E000E9F3193010F01E30C8F31B3251F01D32BF
:1046F00049F4689406C00E94F223610F711D811D68
:10470000911D119110531A30B0F33EF4909580959D
:10471000709561957F4F8F4F9F4F1F910895FB01BB
:10472000DC0102C005900D9241505040D8F7089529
:10473000FB01DC0104C08D910190801921F44150EE
:104740005040C8F7881B990B0895FB01DC0102C09B
:1047500001900D9241505040D8F70895FC0181918D
:10476000861721F08823D9F7992708953197CF012B
:104770000895FB01DC018D91019080190110D9F39E
:10478000990B0895FB01DC0101900D920020E1F7E7
:104790000895FB01DC014150504048F001900D921A
:1047A0000020C9F701C01D9241505040E0F7089524
:1047B0002532310520F4223010F00C94E323FA0165
:1047C0001082CA010895BB272A3051F4992342F47C
:1047D000BDE290958095709561957F4F8F4F9F4F6B
:1047E0000C940824592F482F372F262F660F771F38
:1047F000881F991F660F771F881F991F620F731FED
:10480000841F951F660F771F881F991F0895BB2768
:10481000FA01A62F6217710581059105330B30FB54
:1048200066F0AA27660F771F881F991FAA1FA21775
:1048300010F0A21B63953850A9F7A05DAA3308F0C9
:10484000A95DA19336F7B111B1931082CA010C94FE
:1048500069260F931F93CF93DF93CDB7DEB72E97C3
:104860000FB6F894DEBF0FBECDBF0E891F8986E05C
:104870008C831A8309838FEF9FE79E838D83AE011C
:10488000465E5F4F688D798DCE0101960E94582457
:10489000EF81F885E00FF11F10822E960FB6F89485
:1048A000DEBF0FBECDBFDF91CF911F910F91089555
:1048B0002F923F924F925F926F927F928F929F9230
:1048C000AF92BF92CF92DF92EF92FF920F931F931E
:1048D000CF93DF93CDB7DEB72C970FB6F894DEBF3A
:1048E0000FBECDBF7C016B018A01FC0117821682CD
:1048F000838181FFBDC1CE0101964C01F7019381F7
:10490000F60193FD859193FF81916F01882309F44E
:10491000ABC1853239F493FD859193FF81916F018D
:10492000853229F4B70190E00E947926E7CF512C17
:10493000312C20E02032A0F48B3269F030F4803248
:1049400059F0833269F420612CC08D3239F0803304
:1049500039F4216026C02260246023C0286021C071
:1049600027FD27C030ED380F3A3078F426FF06C017
:10497000FAE05F9E300D1124532E13C08AE0389E5A
:10498000300D1124332E20620CC08E3221F426FD0E
:104990006BC1206406C08C3611F4206802C08836D2
:1049A00041F4F60193FD859193FF81916F0181118F
:1049B000C1CF982F9F7D9554933028F40C5F1F4FE3
:1049C000FFE3F9830DC0833631F0833771F083350F
:1049D00009F05BC022C0F801808189830E5F1F4F00
:1049E00044244394512C540115C03801F2E06F0E59
:1049F000711CF801A080B18026FF03C0652D70E016
:104A000002C06FEF7FEFC5012C870E945E262C014C
:104A100083012C852F77222E17C03801F2E06F0E0C
:104A2000711CF801A080B18026FF03C0652D70E0E5
:104A300002C06FEF7FEFC5012C870E9453262C0127
:104A40002C852068222E830123FC1BC0832D90E03F
:104A500048165906B0F4B70180E290E00E9479262A
:104A60003A94F4CFF50127FC859127FE81915F01EF
:104A7000B70190E00E94792631103A94F1E04F1A84
:104A800051084114510471F7E5C0843611F089369C
:104A900039F5F80127FF07C0608171818281938118
:104AA0000C5F1F4F08C060817181882777FD80955A
:104AB000982F0E5F1F4F2F76B22E97FF09C090954B
:104AC0008095709561957F4F8F4F9F4F2068B22ED4
:104AD0002AE030E0A4010E94AB26A82EA81844C00A
:104AE000853729F42F7EB22E2AE030E025C0F22F40
:104AF000F97FBF2E8F36C1F018F4883579F0B4C035
:104B0000803719F0883721F0AFC02F2F2061B22EE7
:104B1000B4FE0DC08B2D8460B82E09C024FF0AC0DE
:104B20009F2F9660B92E06C028E030E005C020E136
:104B300030E002C020E132E0F801B7FE07C060813A
:104B40007181828193810C5F1F4F06C060817181EA
:104B500080E090E00E5F1F4FA4010E94AB26A82EBC
:104B6000A818FB2DFF77BF2EB6FE0BC02B2D2E7F76
:104B7000A51450F4B4FE0AC0B2FC08C02B2D2E7E42
:104B800005C07A2C2B2D03C07A2C01C0752C24FF74
:104B90000DC0FE01EA0DF11D8081803311F4297EE4
:104BA00009C022FF06C07394739404C0822F8678D4
:104BB00009F0739423FD13C020FF06C05A2C731410
:104BC00018F4530C5718732C731468F4B70180E26F
:104BD00090E02C870E94792673942C85F5CF73146E
:104BE00010F4371801C0312C24FF12C0B70180E344
:104BF00090E02C870E9479262C8522FF17C021FF88
:104C000003C088E590E002C088E790E0B7010CC0DF
:104C1000822F867859F021FD02C080E201C08BE22C
:104C200027FD8DE2B70190E00E947926A51438F4A3
:104C3000B70180E390E00E9479265A94F7CFAA94B6
:104C4000F401EA0DF11D8081B70190E00E94792600
:104C5000A110F5CF332009F451CEB70180E290E0E6
:104C60000E9479263A94F6CFF7018681978102C097
:104C70008FEF9FEF2C960FB6F894DEBF0FBECDBF1F
:104C8000DF91CF911F910F91FF90EF90DF90CF9028
:104C9000BF90AF909F908F907F906F905F904F905C
:104CA0003F902F900895FC010590615070400110D5
:104CB000D8F7809590958E0F9F1F0895FC01615045
:104CC000704001900110D8F7809590958E0F9F1F2E
:104CD0000895DC01FC01672F71917723E1F732978A
:104CE00004C07C916D9370836291AE17BF07C8F3C7
:104CF00008950F931F93CF93DF93182F092FEB0184
:104D00008B8181FD03C08FEF9FEF20C082FF10C019
:104D10004E815F812C813D81421753077CF4E881ED
:104D2000F9819F012F5F3F4F39832883108306C08D
:104D3000E885F985812F1995892B29F72E813F81E7
:104D40002F5F3F4F3F832E83812F902FDF91CF9195
:104D50001F910F910895FA01AA27283051F12031AF
:104D600081F1E8946F936E7F6E5F7F4F8F4F9F4FFF
:104D7000AF4FB1E03ED0B4E03CD0670F781F891F41
:104D80009A1FA11D680F791F8A1F911DA11D6A0F0F
:104D9000711D811D911DA11D20D009F468943F91C2
:104DA0002AE0269F11243019305D3193DEF6CF01C1
:104DB0000895462F4770405D4193B3E00FD0C9F787
:104DC000F6CF462F4F70405D4A3318F0495D31FDF4
:104DD0004052419302D0A9F7EACFB4E0A695979547
:104DE000879577956795BA95C9F70097610571051D
:104DF00008959B01AC010A2E069457954795379567
:104E00002795BA95C9F7620F731F841F951FA01DC0
:104E1000089514E0C8E3D4E000E006C02297010939
:104E2000FE010BBF0E944021CA33D10780E0080772
:064E3000A9F7F894FFCF82
:104E36000000EA0880004142434445464748494A43
:104E46000004000007D27600008501010007FF007C
:104E56000000001234000F20005400FF0406E10495
:104E6600008000000000FF00FF0030303030353693
:104E76003738004142434445464748494A006C6F2B
:104E8600673A6D61696E206C6F6F703B006C6F677F
:104E96003A66696E6520656D756C617A696F6E65D7
:104EA6003B0061006170706C69636174696F6E2F9D
:104EB600636F666665656170006C6F673A4E646520
:104EC60066206D65737361676520746F206269671C
:104ED6003B00726563006C6F673A207265636861B8
:104EE6007267652000707572006C6F673A20707586
:104EF60072636861736520006765745F74696D65C8
:104F06003A006C6F673A206572726F723B00636F8E
:104F16006E6E656374696F6E3A006F6B3B00736506
:104F2600745F646174613A006765745F6461746597
:104F36003A00302E30006C6F673A20696E69742033
:104F46006173207461726765742074696D656F752D
:104F5600743B006C6F673A74617267657420696EA2
:104F6600697A69616C697A7A61746F3B00636F6E06
:104F76006E656374696F6E3A7265713B006765743E
:104F86005F74696D653A7265713B006C6F673A00D4
:104F96006C6F673A20636F6E74726F6C206B657905
:104FA6003D006C6F673A206C6F67696E3B006C6FF3
:104FB600673A207374617475732057414954494E9A
:104FC600473B006C6F673A207374617475732052A7
:104FD600454348415247454420007472616E7361EF
:104FE6006374696F6E204944203D20006C6F673AF8
:104FF600207374617475732050555243484153456C
:1050060020006C6F673A636F6D6D616E64206E6F22
:105016007420737570706F727465643B006C6F6793
:105026003A75736369746F2064612073776974637A
:10503600683B006C6F673A73657420646174612025
:105046006661696C656420696E2072656C65617362
:10505600653B006C6F673A75736369746F206461B2
:10506600207768696C653B006C6F673A696E2072E1
:10507600656C656173653B0000000000E10C711B07
:10508600000000000512711B2530366C640000001C
:105096000000841799172519D81700000000FD197C
:0A50A600711B4E1969195B19DB1923
:00000001FF
